:020000040800F2
:100000005805002001010008090100080B01000843
:100010000D0100080F010008110100080000000098
:1000200000000000000000000000000013010008B4
:100030001501000800000000170100081901000860
:100040001B0100081B0100081B0100081B01000820
:100050001B0100081B0100081B0100081B01000810
:100060001B0100081B0100081B0100081B01000800
:100070001B0100081B0100081B0100081B010008F0
:100080001B0100081B010008490100081B010008B2
:100090001B0100081B0100081B0100081B010008D0
:1000A0001B0100081B0100081B0100081B010008C0
:1000B0001B010008450D00081B0100081B0100087A
:1000C0001B0100081B0100081B0100081B010008A0
:1000D0001B010008091200081B0100081B01000891
:1000E0001B0100081B0100081B010008DFF80CD0F1
:1000F00000F018F800480047BD150008580500201A
:100100000648804706480047FEE7FEE7FEE7FEE7B1
:10011000FEE7FEE7FEE7FEE7FEE7FEE7E50C000888
:10012000ED000008064C074D06E0E06840F00103D2
:1001300094E8070098471034AC42F6D3FFF7DAFF93
:10014000901A0008B01A00086FF001000149086019
:10015000704700000024014010B50446012C02D174
:1001600000F040FA1BE000220221480701F020FBCA
:100170004FF08040406C20F400404FF080414864D4
:100180000846006820F00100086043220915044871
:1001900001F09FF94FF4806001491031086010BDF3
:1001A000000C014070B506460C46154636B1012ECE
:1001B00017D0022E28D0032E4CD138E044B929465E
:1001C000082000F0C9FE0021042000F0C5FE07E071
:1001D0002946042000F0C0FE0021082000F0BCFEEB
:1001E00059E044B92946092000F0B6FE0021052057
:1001F00000F0B2FE07E02946052000F0ADFE002128
:10020000092000F0A9FE46E044B929460A2000F082
:10021000A3FE0021062000F09FFE07E029460620ED
:1002200000F09AFE00210A2000F096FE33E044B967
:1002300029460B2000F090FE0021072000F08CFEE4
:1002400007E02946072000F087FE00210B2000F080
:1002500083FE20E00021082000F07EFE0021042023
:1002600000F07AFE0021092000F076FE0021052032
:1002700000F072FE00210A2000F06EFE0021062030
:1002800000F06AFE00210B2000F066FE002107202E
:1002900000F062FE00BF00BF70BD000030B587B047
:1002A0005248806940F004005049886108468069DE
:1002B00040F010008861002202214D4801F009F948
:1002C000002204214A4801F004F900220221494891
:1002D00001F0FFF800220821464801F0FAF840F644
:1002E00092544FF478754148806940F400703F495A
:1002F00088614FF4404001F0C1F900BF3B48C0683D
:1003000040F400703949C8600846C06820F40070A5
:10031000C86000BF01A801F0D2F84FF4602003903C
:1003200001A9354801F048F8012305221946324851
:1003300001F072F80123052202212F4801F06CF828
:10034000012305220B212C4801F066F80123052228
:100350000D21294801F060F82A462146264801F07F
:1003600027F80121244801F014F80221224801F065
:1003700010F80B21204801F00CF80D211E4801F067
:1003800008F84FF400011C4801F00AF81A48001D53
:10039000006840F040001849091D0860081D006809
:1003A00040F00100091D08600846006840F00800A0
:1003B000086000BF104808300068C0F3C000002883
:1003C000F8D10D480830006840F004000A490831AF
:1003D000086000BF084808300068C0F380000028AB
:1003E000F8D101F009F807B030BD0000001002405C
:1003F00000080140001001400024014010B50B48E6
:10040000806940F00800094988610846806940F029
:100410000400886143224915054801F05AF84FF459
:10042000007003491031086010BD00000010024048
:100430000008014010B51448806940F010001249CE
:10044000886143228914114801F043F843224FF494
:1004500000610E4801F03DF843224FF480610B48E3
:1004600001F037F84FF480500849086140100861E6
:10047000401008610A2000F0B1FC00F091FC05205A
:1004800000F09AFE10BD0000001002400010014074
:1004900010B588B004464E4801F0F0F94D4890FB85
:1004A000F4F04D4908804D48806940F004004B4904
:1004B00088610846806940F4006088610846806968
:1004C00040F0010088614B228915454801F001F890
:1004D0004B224FF40071424800F0FBFF4B224FF4D7
:1004E00080613F4800F0F5FF4B224FF400613C482B
:1004F00000F0EFFF38480088ADF818000020ADF894
:100500001A00ADF81400ADF81600ADF81C0005A9EE
:100510002F4801F02DF96020ADF802000120ADF860
:1005200004000020ADF80600ADF80A000820ADF880
:100530000C000020ADF80E00ADF810008DF80000A2
:10054000ADF808006946224801F044F901208DF811
:1005500000000020ADF8080069461D4801F03AF996
:1005600002208DF800000020ADF808006946184808
:1005700001F030F903208DF800000020ADF80800EC
:100580006946134801F026F91148006840F001005F
:100590000F4908600E484430006840F400400C49A0
:1005A0004431086000221146094801F001F9002297
:1005B0000121074801F0FCF800220221044801F063
:1005C000F7F800220321024801F0F2F808B010BD4C
:1005D000002C014040190100DC0000200010024006
:1005E0000008014000B589B02C48806940F008003F
:1005F0002A4988610846C06940F00100C8614B2261
:100600000915274800F065FF0121480200F0C6FFE8
:1006100047F22F50ADF81C000020ADF81E00ADF8D9
:100620001800ADF81A00ADF8200006A94FF0804080
:1006300001F09EF86020ADF806000120ADF808003A
:100640000020ADF80A00ADF80E000820ADF810004B
:100650004001ADF812000020ADF8140002208DF822
:10066000040043F69820ADF80C0001A94FF080403B
:1006700001F0B0F84FF08040006840F001004FF00A
:10068000804108600846406C40F400404864012204
:100690000221480701F08CF809B000BD00100240AB
:1006A000000C01401FB51B48C06940F00200194909
:1006B000C86140F2E730ADF808000020ADF80A004C
:1006C000ADF80400ADF8060001A9134801F050F898
:1006D00001224721104801F059F91D208DF8000032
:1006E00001208DF803008DF8010000208DF8020034
:1006F000684600F08BFF08480C30006840F00100AD
:1007000005490C3108600448006840F001000249C6
:1007100008601FBD0010024000040040012006498F
:100720008871022104488175032180F82610042174
:1007300080F836107047000014010020154800783A
:10074000C0F38000B8B114480078C0F3800090B9BD
:1007500012480078401C11490870084600780228A9
:1007600017DD002008700C48007820F00400001D00
:10077000094908700DE00020084908700548007814
:10078000C0F3800028B90448007820F00400024932
:10079000087070470600002007000020EF000020CE
:1007A00010B528480078C0F3801000283BD02648B8
:1007B0000078C0F38010002835D124480078401C10
:1007C000224908700846007802283ADD00200870A7
:1007D0001D48007820F0400040301B4908701C483C
:1007E000407BF8B91A48407FE0B9194890F82D00CD
:1007F000C0B9174890F83D00A0B916480078401CD1
:100800001449087008460078052801DD01200870A9
:10081000104909780F31C8B200F060FB0D4800782C
:1008200000F0E8F90DE0002008490870054800785C
:10083000C0F3801028B90448007820F04000024935
:10084000087010BD0600002007000020E70000200F
:1008500014010020E800002010B52B480078C0F3F8
:100860004000002841D029480078C0F3400000280B
:100870003BD127480078401C25490870084600787D
:10088000022840DD002008702048007820F0020097
:10089000801C1E4908701F48407B28BB1D48407FB4
:1008A00010BB1C4890F82D00F0B91A4890F83D0094
:1008B000D0B91948007820B117480078401E164971
:1008C00008701548007810B90920134908701348BA
:1008D000114A1278815C042000F0A6FC0F490E4AF0
:1008E0001278885C00F0BAFA0DE000200849087020
:1008F00005480078C0F3400028B90448007820F08B
:1009000002000249087010BD060000200700002008
:10091000E300002014010020E6000020F100002088
:1009200015480078C0F3C000B8B114480078C0F38F
:10093000C00090B912480078401C11490870084660
:100940000078022817DD002008700C48007820F09D
:1009500008000830094908700DE0002008490870B7
:1009600005480078C0F3C00028B90448007820F09A
:1009700008000249087070470600002007000020A8
:10098000F000002010B500F093F8FFF765FF00F0CD
:100990003DF8FFF7D3FEFFF7C3FF00F0EBF8FFF7DA
:1009A000FFFE00F001F810BD15480078C0F34010BC
:1009B000B8B114480078C0F3401090B912480078DC
:1009C000401C1149087008460078022817DD0020F5
:1009D00008700C48007820F0200020300949087089
:1009E0000DE000200849087005480078C0F3401069
:1009F00028B90448007820F02000024908707047A8
:100A00000600002007000020EC00002010B523485D
:100A10000078C0F3001088B321480078C0F30010BC
:100A200060BB20480078401C1E49087008460078CA
:100A3000022832DD002008701948007820F01000EC
:100A40001030174908701848407B30BB1648407F6B
:100A500018BB154890F82D00F8B9134890F83D00E0
:100A6000D8B900201149087008460178042000F028
:100A7000DBFB0E48007800F0F1F90EE0FFE7002004
:100A80000849087005480078C0F3001028B90448E8
:100A9000007820F010000249087010BD0600002008
:100AA00007000020E400002014010020E6000020E0
:100AB00010B52A48007800F0010000283ED02848F0
:100AC000007800F00100002838D126480078401C4A
:100AD000244908700846007802283DDD002008708F
:100AE0001F48007820F00100401C1D4908701E4876
:100AF000407B10BB1C48407FF8B91B4890F82D0084
:100B0000D8B9194890F83D00B8B918480078401C89
:100B10001649087008460078092801DD0120087090
:100B20001348124A1278815C042000F07DFB1049C2
:100B30000E4A1278885C00F091F90DE00020094916
:100B400008700648007800F0010028B904480078D1
:100B500020F001000249087010BD000006000020CE
:100B600007000020E200002014010020E600002021
:100B7000F100002010B51B4800780121B1EBD01F17
:100B800022D119480078C009F0B918480078401CF3
:100B90001649087008460078022822DD00200870F7
:100BA0001148007820F0800080300F49087010480C
:100BB000007818B901200E49087002E000200C49A5
:100BC000087000F077FB0CE0002008490870054829
:100BD0000078C00928B90448007820F08000024954
:100BE000087010BD0600002007000020E50000206E
:100BF000E900002006283FD2DFE800F03E030E1A8D
:100C000027330121234AD17300222249CA7781F870
:100C10002F2081F83F203AE000211E4AD1730122A3
:100C20001C49CA77002281F82F2081F83F202EE04E
:100C30000021184AD17300221649CA77012281F88F
:100C40002F20002281F83F2021E00021114AD1739A
:100C500000221049CA7781F82F20012281F83F2015
:100C600015E001210B4AD17301220A49CA7781F8A4
:100C70002F2081F83F200AE00021064AD17300228C
:100C80000449CA7781F82F2081F83F2000BF00BFB8
:100C9000704700001401002070B50024002517E003
:100CA00064104FF400600C494861022000F096F88F
:100CB00009488068C0F3802008B144F080044FF4F4
:100CC000006005490861022000F088F8681CC5B280
:100CD000082DE5DB204670BD0010014010B500F086
:100CE000D7FC10BD10B51348006840F00100114951
:100CF000086008464068104908400E4948600846A8
:100D000000680E4908400B4908600846006820F456
:100D1000802008600846406820F4FE0048604FF4D8
:100D20001F008860FFF7DAFF4FF000600449086099
:100D300010BD0000001002400000FFF8FFFFF6FEAB
:100D400008ED00E01248006800F00100F0B14FF635
:100D5000FE700F4908600F48008820B10D480088D8
:100D6000401E0C4908800C48008820B10A480088C1
:100D7000401E0949088009480088401C074908802E
:100D8000084600880A2801DB002008807047000020
:100D90001004004000000020040000200200002099
:100DA00010B5402000F0F2F94FF480500A49486134
:100DB000C02000F0C1F9002404E0002000F0BCF9DC
:100DC000601CC4B2102CF8DB4FF48050024908615B
:100DD000012000F003F810BD0010014008B50BE041
:100DE0000021009104E0BDF80010491C89B2009177
:100DF000BDF800105029F6DB011EA0F1010290B2EF
:100E0000EED108BD2DE9F04105460C466806060EF8
:100E100004F00F074FEA1418402000F0B7F94FF420
:100E200080500D4948610A20FFF7D8FF46F0C00006
:100E300000F082F9384600F07FF9404600F07CF976
:100E40000A20FFF7CBFF4FF48050034908610A20C6
:100E5000FFF7C4FFBDE8F081001001402DE9F0412B
:100E60000446B4F57A7F01DB40F2E734642094FB5A
:100E7000F0F0C6B20A2094FBF0F00A2190FBF1F2E8
:100E800001FB1200C5B20A2094FBF0F100FB1140F7
:100E9000C7B27EB900210846FFF7B4FF25B900218B
:100EA0000120FFF7AFFF0FE00B48415D0120FFF786
:100EB000A9FF09E00848815D0020FFF7A3FF06486D
:100EC000415D0120FFF79EFF0348C15D0220FFF74F
:100ED00099FFBDE8F08100003C1A00082DE9F047B9
:100EE000054600260024142D00DD142500242AE0E8
:100EF00005EB450016490844065D6006070E06F03E
:100F00000F084FEA1619402000F040F94FF48050C6
:100F1000104948610A20FFF761FF47F0C00000F068
:100F20000BF9404600F008F9484600F005F90A20A0
:100F3000FFF754FF4FF48050064908610A20FFF77D
:100F40004DFF601CC4B2032CD2DBBDE8F08700006B
:100F50004E1A0008001001402DE9F04104460D46EC
:100F6000002600273DB10120A0401449098808430C
:100F70001249088006E00120A040104909888143F9
:100F80000E480180042C05DA06260C48007800F093
:100F90000F070CE0082C05DA082608480078C0F393
:100FA000031704E00A2605480088C0F303273946E2
:100FB000304600F00BF9BDE8F0810000E0000020B1
:100FC00070B54FF480505A4948610220FFF706FF80
:100FD000422000F0B1F80220FFF700FF00BF082216
:100FE000D101534800F075FA00BF0520FFF7F6FE67
:100FF000FFF752FE0546FFF74FFE04464FF48050C0
:101000004B4908610A20FFF7E9FE00BF43224FF475
:101010008061474800F05DFA00BF05F0040038B178
:101020004448007820F00100401C4249087005E067
:101030004048007820F001003E49087004F040006C
:1010400038B13C48007820F00200801C3949087013
:1010500005E03848007820F002003649087005F0B5
:10106000400038B13348007820F00400001D3149B9
:10107000087005E02F48007820F004002D49087022
:1010800004F0040038B12B48007820F00800083044
:101090002849087005E02748007820F00800254915
:1010A000087004F0080038B12248007820F01000E1
:1010B00010302049087005E01E48007820F010002C
:1010C0001C49087005F0080038B11A48007820F073
:1010D000200020301749087005E01648007820F0FD
:1010E00020001449087005F0800038B111480078DC
:1010F00020F0400040300F49087005E00D480078AE
:1011000020F040000B49087004F0800038B1094815
:10111000007820F0800080300649087005E005481E
:10112000007820F08000034908700248007870BD04
:10113000001001400600002070B5044600251FE0A5
:101140004FF40060104948610120FFF747FE04F0AA
:10115000010020B14FF480600B49086103E04FF4B7
:1011600080600949486164100120FFF737FE4FF4A1
:101170000060054908610220FFF730FE681CC5B217
:10118000082DDDDB70BD00000010014010B50446E5
:101190004FF48050074948610220FFF71FFE2046A8
:1011A000FFF7CAFF4FF48050024908610220FFF7A1
:1011B00015FE10BD0010014010B50446072C00DDDF
:1011C000072444F08800FFF7E1FF10BD70B5044626
:1011D0000D464420FFF7DAFF4FF48050094948617B
:1011E00004F00F0141F0C000FFF7A6FF2846FFF70B
:1011F000A3FF4FF48050034908610120FFF7EEFD83
:1012000070BD00000010014005480068C0F34010A8
:1012100020B10348001D00680249087070470000B3
:1012200000380140DE000020642900DD642101B99E
:101230000121042800DD7047042826D11A4A1173C1
:10124000117782F82C1082F83C104A1E174B33F8A5
:1012500012205200164B1A604A1E144B33F812200B
:101260005300134A343A93634A1E104B33F812204A
:1012700053000F4A343AD3634A1E0C4B33F8122002
:1012800053000B4A343A13640BE0074A02EB001296
:1012900011734A1E054B33F812205300044A42F8DA
:1012A000203000BFC7E7000014010020120000201A
:1012B000342C014010B5002400BF54E02B4800EB53
:1012C0000410C07B01284CD1284800EB0410407B5F
:1012D00028B90120254901EB0411487304E00020DE
:1012E000224901EB04114873204800EB0410427BB3
:1012F0001E4800EB0410817B2046FEF753FF1B487D
:1013000000EB0410807B012804D10020174901EB79
:1013100004114873154800EB0410407B28B90022E3
:101320000121204600F04CFB1BE0104800EB0410AC
:10133000007B642808D10D4800EB0410027B0121DA
:10134000204600F03DFB0CE000221146204600F054
:1013500037FB064800EB0410427B2146044800F0AE
:1013600018FB601CC4B2042CA8DB10BD14010020C3
:10137000002C014002E008C8121F08C1002AFAD15F
:1013800070477047002001E001C1121F002AFBD105
:101390007047426822F01F020A4342607047000013
:1013A0004268024B1A400A4342607047FFFD3FFF0C
:1013B000416282627047000010B5D1E900231A43F0
:1013C00043680B4C23401A434260D1E902231A437D
:1013D0000B691A438368074C23401A438260C26A30
:1013E00022F470038A8A521E43EA0252C26210BD7E
:1013F000FFFEF0FFFDF7F1FF08B512208DF80000A9
:1014000001208DF8030000208DF801008DF8020006
:10141000684600F0FBF808BD70B5092910DDC46806
:10142000A1F10A0505EB45060725B540AC43A1F13E
:101430000A0505EB450502FA05F52C43C4600BE0EF
:10144000046901EB41060725B540AC4301EB4105BA
:1014500002FA05F52C430461072B0EDA446B5D1E7E
:1014600005EB85061F25B540AC435D1E05EB8505E4
:1014700001FA05F52C43446320E00D2B0EDA046BD2
:10148000DD1F05EB85061F25B540AC43DD1F05EBD1
:10149000850501FA05F52C4304630FE0C46AA3F146
:1014A0000D0505EB85061F25B540AC43A3F10D05E1
:1014B00005EB850501FA05F52C43C46270BD0021DA
:1014C00001600121416100210161C16081604160D1
:1014D0007047F0B503460D46002100200024EEB20F
:1014E00046B3196800BF22E0012686402E40EEB1C7
:1014F000840002F0400696B90F26A640B14302F0E0
:101500000F06A6403143182A03D1012686405E61AA
:101510000CE0082A0AD1012686401E6106E00F264B
:10152000A640B14302F00F06A6403143401C0828F4
:10153000DAD3196005F47F4676B35968002028E0B5
:1015400000F10806012707FA06F62E4006B38400CC
:1015500002F04006AEB90F26A640B14302F00F06D6
:10156000A6403143182A04D100F10806B7405F6154
:101570000EE0082A0CD100F108060127B7401F61D0
:1015800006E00F26A640B14302F00F06A640314305
:10159000401C0828D4D35960F0BD000029B1064A88
:1015A00052680243044B5A6004E0034A5268824383
:1015B000014B5A607047000000000140FFF7AEF891
:1015C000FEF71CFF3220FEF763FFFFF76BF8FEF714
:1015D00065FE0120FEF7C0FD4FF47A7000F024FA9A
:1015E0000020FEF7B9FDFEF725FF0020FFF776FC8F
:1015F00009E00548008830B9142003490880FFF746
:10160000DFFCFFF7BFF9F4E70400002070B500210C
:1016100000230F22C47804B3154C246804F4E0645A
:10162000C4F5E064210AC1F10403CA40447804FA15
:1016300003F184781440214309010E4C0678A1552A
:10164000047804F01F050124AC4005786D11AD004D
:1016500005F1E025C5F8004109E0047804F01F0514
:101660000124AC40044D0678761145F8264070BD43
:101670000CED00E000E400E080E100E0034949688F
:1016800021F440410143014A51607047001002407B
:101690000CB50020019000903348006840F4803081
:1016A0003149086000BF3048006800F40030009005
:1016B0000198401C0190009818B90198B0F5A04F0E
:1016C000F1D12948006800F4003010B101200090E9
:1016D00001E0002000900098012843D123480068D1
:1016E00040F01000214908600846006820F007001B
:1016F00008600846006840F0020008601A48406828
:10170000194948600846406848600846406840F407
:10171000806048600846406820F47C1048600846B5
:10172000406840F4E81048600846006840F0807067
:10173000086000BF0C48006800F000700028F9D075
:101740000948406820F0030007494860084640689F
:1017500040F00200486000BF0348406800F00C0001
:101760000828F9D10CBD0000001002400020024002
:10177000026822F070024B881A430260026822F469
:1017800040720B881A4302608A88C262CA888262E9
:10179000054A904202D0054A904201D10A8902636B
:1017A0000122426170470000002C014000340140DA
:1017B00030B5002301248C40A3B2046ADD43ADB2EE
:1017C0002C400462046A02FA01F5ADB22C430462B3
:1017D00030BD000030B50A4600211178036A8D0043
:1017E0000124AC40A34303624C1000F1180353F8EA
:1017F0002430CC07250F7324AC40A3435488CD0775
:101800002D0FAC4023434D1000F1180444F825304F
:10181000036A8D000324AC40A343548995882C436C
:101820008D00AC4023430362124B984202D0124B0E
:10183000984218D1036A8D000C24AC40A3439489CC
:10184000D5882C438D00AC402343036243684D0090
:101850004FF44074AC40A343D489158A2C434D0007
:10186000AC4023434360148900F1340343F8214022
:1018700030BD0000002C0140003401403B4988424B
:101880000BD13B49C96841F40061394AD160114626
:10189000C96821F40061D16067E0B0F1804F0BD1DD
:1018A0003349096941F00101314A11611146096961
:1018B00021F00101116158E02E4988420BD12C49D9
:1018C000096941F002012A4A11611146096921F0B2
:1018D0000201116149E0284988420BD12449096974
:1018E00041F00401224A11611146096921F0040105
:1018F00011613AE0214988420BD11D49096941F043
:1019000008011B4A11611146096921F008011161A2
:101910002BE01B4988420BD11549096941F01001A0
:10192000134A11611146096921F0100111611CE08F
:10193000144988420BD10E49096941F020010C4A33
:1019400011611146096921F0200111610DE00E4974
:1019500088420AD10649C96841F40051044AD1605D
:101960001146C96821F40051D1607047002C014034
:10197000001002400004004000080040000C00403D
:1019800000100040001400400034014081624261B8
:10199000704730B50023012A00DD01228D000124AB
:1019A000AC40A3B2046ADD43ADB22C400462046AC9
:1019B0008D0002FA05F5ADB22C43046230BD000083
:1019C00070B504460D461646032C00DD70BD3DB9CA
:1019D000124830F814104B221148FFF77AFD1AE034
:1019E000104800EB0410C07B012814D10B4830F8DC
:1019F000141043220A48FFF76CFD36B9074830F847
:101A0000140007491431086005E0044830F8140058
:101A100003491031086000BFD8E700000A00002029
:101A200000080140140100200349088000BF02495A
:101A300009880029FBD17047000000203F065B4F5A
:101A4000666D7D077F6F777C395E79714000FFFF9F
:101A5000FF7904547350047C1C505C7338663E74E8
:101A60005B4F5B38793E731C387804546D043D003D
:101A70005C545C7171006F7D066F5B4F7F663976D9
:101A80000639765B39764F3976667738380000004C
:101A9000B01A000800000020FC00000074130008C9
:101AA000AC1B0008FC0000205C040000841300084C
:101AB000000000000000000000000001000200041F
:101AC000000807000E0016001D0024002B00320045
:101AD0003A00410048004F0056005E0065006C006F
:101AE00073007A0082008900900097009E00A60093
:101AF000AD00B400BB00C200CA00D100D800DF00B6
:101B0000E600EE00F500FC0003010A0112011901D4
:101B1000200127012E0136013D0144014B015201F4
:101B20005A01610168016F0176017E0185018C0116
:101B300093019A01A201A901B001B701BE01C6013A
:101B4000CD01D401DB01E201EA01F101F801FF015D
:101B500006020E0215021C0223022A023202390278
:101B6000400247024E0256025D0264026B0272029C
:101B70007A02810288028F0296029E02A502AC02BE
:101B8000B302BA02C202C902D00200000000000083
:101B90000000000000000000000000000000000045
:0C1BA0000000010203050A0F143264006B
:04000005080000ED02
:00000001FF
