:020000040800F2
:10000000A007002001010008090100080B010008F9
:100010000D0100080F010008110100080000000098
:1000200000000000000000000000000013010008B4
:100030001501000800000000170100081901000860
:100040001B0100081B0100081B0100081B01000820
:100050001B0100081B0100081B0100081B01000810
:100060001B0100081B0100081B010008ED0200082D
:100070001B0100081B0100081B0100081B010008F0
:100080001B0100081B0100081B0100081B010008E0
:100090001B0100081B0100081B0100081B010008D0
:1000A0001B0100081B0100081B0100081B010008C0
:1000B0001B010008611600081B0100081B01000855
:1000C0001B0100081B0100081B0100081B010008A0
:1000D0001B010008651B00081B0100081B0100082C
:1000E0001B0100081B0100081B010008DFF80CD0F1
:1000F00000F018F800480047C91E0008A0070020BB
:100100000648804706480047FEE7FEE7FEE7FEE7B1
:10011000FEE7FEE7FEE7FEE7FEE7FEE70116000862
:10012000ED000008064C074D06E0E06840F00103D2
:1001300094E8070098471034AC42F6D3FFF7DAFF93
:10014000E42500080426000830B58C1810F8012BAF
:1001500012F00F0301D110F8013B120906D110F87B
:10016000012B03E010F8015B01F8015B5B1EF9D184
:1001700001E001F8013B521EFBD1A142E6D3002071
:1001800030BD0000044B9B782BB1044B1880044B0E
:100190001980044B1A707047170000200C000020D3
:1001A0000E0000201000002010B50446012C02D1E2
:1001B00000F0B2FA1BE000220221480702F018F812
:1001C0004FF08040406C20F400404FF08041486484
:1001D0000846006820F00100086043220915044821
:1001E00001F0FEFD4FF4806001491031086010BD40
:1001F000000C014070B506460C46154636B1012E7E
:1002000017D0022E28D0032E4CD138E044B929460D
:10021000082001F04FFB0021042001F04BFB07E018
:100220002946042001F046FB0021082001F042FB92
:1002300059E044B92946092001F03CFB0021052082
:1002400001F038FB07E02946052001F033FB0021CF
:10025000092001F02FFB46E044B929460A2001F0AD
:1002600029FB0021062001F025FB07E02946062096
:1002700001F020FB00210A2001F01CFB33E044B90F
:1002800029460B2001F016FB0021072001F012FB8C
:1002900007E02946072001F00DFB00210B2001F0AB
:1002A00009FB20E00021082001F004FB00210420CC
:1002B00001F000FB0021092001F0FCFA00210520DB
:1002C00001F0F8FA00210A2001F0F4FA00210620DA
:1002D00001F0F0FA00210B2001F0ECFA00210720D8
:1002E00001F0E8FA00BF00BF70BD000010B55C4827
:1002F0000068C0F3400000287ED0022058494860C2
:1003000058480078002877D15748008840F6E441E3
:10031000484340F6FF7190FBF1F054490880524881
:10032000408840F6E441484340F6FF7190FBF1F00D
:100330004F4948824C48808840F6E441484340F6A3
:10034000FF7190FBF1F081B2494841854648C08871
:1003500040F6E441484340F6FF7190FBF1F081B272
:100360004348A0F842104048008940F6E441484321
:1003700040F6FF7190FBF1F081B23D48A0F85A10B1
:100380003C48007820F00400001D3A490870002025
:10039000394908705EE03848007800EB4000344985
:1003A00001EBC000407B01284FD13348007800EBBF
:1003B000400001EBC000408A14281EDA01202E49BB
:1003C000097801EB41012A4A02EBC10108750022BC
:1003D0001146C820FFF7D6FE00202749097801EB17
:1003E0004101234A02EBC101487300220121224846
:1003F000007801F0EFFF28E030E01F48007800EBC4
:1004000040001B4901EBC000408AB0F5166F1CDDAF
:1004100002201949097801EB4101154A02EBC1019B
:10042000087500221146C820FFF7ACFE00201249D3
:10043000097801EB41010E4A02EBC1014873002229
:1004400001210D48007801F0C5FF0B480078401CE1
:10045000094908700848007804289CDB10BD00009A
:10046000000002401D0000209003002088020020B0
:10047000D0020020060000208E02002010B5234884
:10048000806940F00400214988610846806940F095
:10049000080088610846806940F0100088610846BD
:1004A000806940F0200088610822F821184801F096
:1004B00097FC08220121174801F092FC0822302104
:1004C000154801F08DFC43220121134801F088FCFE
:1004D000432210210F4801F083FC432204210F48DE
:1004E00001F07EFC432204210B4801F079FC01203D
:1004F0000949486110200749143108600420074960
:10050000143108600449486110BD00000010024029
:1005100000080140000C014000100140001401409F
:1005200010B51448806940F01000124988614322D8
:100530008914114801F054FC43224FF400610E4825
:1005400001F04EFC43224FF480610B4801F048FC5F
:100550004FF480500849086140100861401008615C
:100560000A2001F0E9F801F0C9F8052001F0D2FAFB
:1005700010BD0000001002400010014000B589B01D
:10058000604801F09BFE4FF4B4605F4908805F480B
:10059000806940F004005D4988610846806940F444
:1005A000006088610846806940F0010088614B2244
:1005B0008915574801F014FC4B224FF40071544840
:1005C00001F00EFC4B224FF48061514801F008FC11
:1005D0004B224FF400614E4801F002FC4A4800886B
:1005E000ADF81C000020ADF81E00ADF81800ADF805
:1005F0001A00ADF8200006A9424801F0D9FD60209C
:10060000ADF806000120ADF808000020ADF80A00A2
:10061000ADF80E000820ADF810000020ADF8120073
:10062000ADF814008DF80400ADF80C0001A93548B0
:1006300001F0F0FD01208DF804000020ADF80C0061
:1006400001A9304801F0E6FD02208DF804000020E9
:10065000ADF80C0001A92B4801F0DCFD03208DF85A
:1006600004000020ADF80C0001A9264801F0D2FDDD
:100670002448006840F001002249086021484430C5
:10068000006840F400401F494431086000221146D0
:100690001C4801F0ADFD002201211A4801F0A8FD1F
:1006A00000220221174801F0A3FD00220321154872
:1006B00001F09EFD174801884322154801F090FB88
:1006C000144841884322124801F08AFB114881886E
:1006D00043220F4801F084FB0E48C18843220C4896
:1006E00001F07EFB0B480088094914310860094875
:1006F000408808600748808808600648C08808600D
:1007000009B000BD002C0140820200200010024010
:10071000000801402000002000B589B02C48806905
:1007200040F008002A4988610846C06940F001008D
:10073000C8614B220915274801F052FB01214802EC
:1007400001F0B2FB47F22F50ADF81C000020ADF8CD
:100750001E00ADF81800ADF81A00ADF8200006A98B
:100760004FF0804001F024FD6020ADF8060001202C
:10077000ADF808000020ADF80A00ADF80E00082022
:10078000ADF810004001ADF812000020ADF81400E3
:1007900002208DF8040043F69820ADF80C0001A962
:1007A0004FF0804001F036FD4FF08040006840F08F
:1007B00001004FF0804108600846406C40F4004062
:1007C000486401220221480701F012FD09B000BD72
:1007D00000100240000C01401FB51B48C06940F0EA
:1007E00002001949C86140F2E730ADF80800002066
:1007F000ADF80A00ADF80400ADF8060001A91348F1
:1008000001F0D6FC01224721104801F0DFFD1D2038
:100810008DF8000001208DF803008DF80100002004
:100820008DF80200684601F01BFC08480C30006897
:1008300040F0010005490C3108600448006840F0B0
:100840000100024908601FBD001002400004004082
:10085000012006498871022104488177032180F82C
:100860003610042180F84E1070470000D00200209E
:100870001C480078C0F38000F0B11B480078C0F33A
:100880008000C8B919480078401C1849087008460B
:100890000078022824DD002008701348007820F03A
:1008A0000400001D104908701148007820F0040071
:1008B000001D0F49087013E000200C49087009481A
:1008C0000078C0F3800058B90748007820F0040091
:1008D000054908700648007820F0040004490870B3
:1008E000704700000700002008000020A10200203F
:1008F000090000201C480078C0F38010F0B11B48AC
:100900000078C0F38010C8B919480078401C184915
:10091000087008460078022824DD0020087013487B
:10092000007820F0400040301049087011480078ED
:1009300020F0400040300F49087013E000200C49BF
:10094000087009480078C0F3801058B9074800784B
:1009500020F04000054908700648007820F040006B
:1009600004490870704700000700002008000020BC
:1009700099020020090000201C480078C0F34000C4
:10098000F0B11B480078C0F34000C8B9194800789E
:10099000401C1849087008460078022824DD002011
:1009A00008701348007820F00200801C104908707D
:1009B0001148007820F00200801C0F49087013E0F5
:1009C00000200C49087009480078C0F3400058B96D
:1009D0000748007820F002000549087006480078B2
:1009E00020F0020004490870704700000700002052
:1009F0000800002095020020090000201C48007813
:100A0000C0F3C000F0B11B480078C0F3C000C8B903
:100A100019480078401C18490870084600780228D8
:100A200024DD002008701348007820F0080008300A
:100A3000104908701148007820F0080008300F496C
:100A4000087013E000200C49087009480078C0F3D2
:100A5000C00058B90748007820F008000549087020
:100A60000648007820F0080004490870704700002C
:100A70000700002008000020A2020020090000203A
:100A800010B500F099F8FFF777FF00F04FF8FFF787
:100A9000EFFEFFF7B3FF00F0D1F8FFF72BFF00F0F8
:100AA00003F800F0F1FA10BD1C480078C0F34010C4
:100AB000F0B11B480078C0F34010C8B9194800785D
:100AC000401C1849087008460078022824DD0020E0
:100AD00008701348007820F020002030104908707A
:100AE0001148007820F0200020300F49087013E0F2
:100AF00000200C49087009480078C0F3401058B92C
:100B00000748007820F02000054908700648007862
:100B100020F0200004490870704700000700002002
:100B2000080000209E020020090000201D480078D7
:100B3000C0F30010F0B11C480078C0F30010C8B931
:100B40001A480078401C19490870084600780228A5
:100B500027DD002008701448007820F010001030C5
:100B6000114908701248007820F010001030104928
:100B7000087016E000200D4908700A480078C0F39C
:100B8000001070B90848007820F01000064908707D
:100B90000748007820F0100005490870002005493A
:100BA000087070470700002008000020960200200F
:100BB00009000020AA0200201C48007800F0010073
:100BC000F0B11B48007800F00100C8B9194800785E
:100BD000401C1849087008460078022824DD0020CF
:100BE00008701348007820F00100401C104908707C
:100BF0001148007820F00100401C0F49087013E0F4
:100C000000200C4908700948007800F0010058B92C
:100C10000748007820F00100054908700648007870
:100C200020F0010004490870704700000700002010
:100C30000800002094020020090000201B480078D2
:100C40000121B1EBD01F1DD119480078C009C8B9E6
:100C500018480078401C1749087008460078022898
:100C600023DD002008701248007820F080008030DA
:100C70000F4908701048007820F0800080300E493D
:100C8000087012E000200B49087008480078C0097D
:100C900058B90748007820F08000054908700648D8
:100CA000007820F080000449087070470700002099
:100CB00008000020970200200900002010B504461B
:100CC00034B1012C15D0022C24D0032C44D132E0B5
:100CD0000121002000F0EEFD0021012000F0EAFDDE
:100CE0000021022000F0E6FD0021032000F0E2FDDB
:100CF00043E00021084600F0DDFD0121084600F038
:100D0000D9FD0021022000F0D5FD0021032000F0D4
:100D1000D1FD32E00021084600F0CCFD0021012089
:100D200000F0C8FD0121022000F0C4FD00210320D5
:100D300000F0C0FD21E00021084600F0BBFD0021CD
:100D4000012000F0B7FD0021022000F0B3FD0121D9
:100D5000032000F0AFFD10E00021084600F0AAFDDE
:100D60000021012000F0A6FD0021022000F0A2FDDC
:100D70000021032000F09EFD00BF00BF10BD000059
:100D800010B50446052C1ED2DFE804F003070B154E
:100D90001C00152000F050FD15E0162000F04CFD61
:100DA00011E00120094908700220FFF787FF0120A8
:100DB00000F042FD07E00320FFF780FF182000F05D
:100DC0003BFD00E000BF00BF10BD0000A6020020F8
:100DD0000146002000BF0DE000EB4002074B03EB93
:100DE000C202D27B22B100EB400203EBC20291604F
:100DF000421CD0B20428EFDB70470000D002002074
:100E000010B500244F48006880094F49097860F305
:100E100000014D4801704B480068C0094A490978F3
:100E200060F341014848017048488068000946491C
:100E3000097860F3820144480170444880684009A1
:100E40004149097860F3C3013F4801704048006898
:100E50003D49097860F304113B4801703948006846
:100E600040093949097860F3451137480170354820
:100E7000006800093449097860F38611324801702E
:100E800030480068C0083049097860F3C7112E481F
:100E9000017000BF53E02C4800786100084100F069
:100EA000030003282BD104EB44002A4901EBC000C6
:100EB000807B002841D1012004EB4401254A02EB4C
:100EC000C1018873002004EB440102EBC1014873A7
:100ED00000220121204601F07DFA00201E4921F860
:100EE000240001EB8401887004EB4400194A02EBF2
:100EF000C000817B00222046FFF77CF91DE004EB57
:100F00004400144901EBC000807B012815D100206A
:100F100004EB44010F4A02EBC101887304EB440166
:100F200002EBC1014873002211462046FFF762F927
:100F300000220121204601F04DFA601CC4B2042CAD
:100F4000A9DB10BD08080140160000200010014078
:100F5000080C0140D00200207603002070B5054641
:100F60000024062D53D2DFE805F052030F1C2A3768
:100F700001203649C8730021344880F8271080F8D2
:100F80003F1080F857104EE000203049C87301210F
:100F90002E4880F82710002180F83F1080F8571065
:100FA00041E000202949C8730021284880F8271013
:100FB000012180F83F10002180F8571033E0002015
:100FC0002249C8730021214880F8271080F83F107B
:100FD000012180F8571026E001201C49C873012127
:100FE0001A4880F8271080F83F1080F8571000202A
:100FF0001649087388600021144880F824100162A3
:1010000080F83C10816380F8541001650BE00020EB
:101010000E49C87300210D4880F8271080F83F1052
:1010200080F8571000BF00BF00240BE004EB440021
:10103000064901EBC000C27B00212046FFF7DAF829
:10104000601CC4B2042CF1DB70BD0000D002002093
:1010500010B5002400BF11E00A4800EB840080783E
:10106000012809D10020074901EB84018870002282
:1010700011462046FFF7BEF8601CC4B2042CEBDB1F
:1010800010BD00007603002010B5FD480078C0F3C5
:101090004010A0B1FB480078012807D00120F94991
:1010A000087008460078FFF76BFE06E00020F5495F
:1010B000087008460078FFF763FE00F041FEF14833
:1010C000007805282AD2DFE800F0032AF5F4F300BF
:1010D000EB480078C00910B100F032FE1EE0E8488D
:1010E0000078C0F38010C8B100F02AFEE64800780E
:1010F000401CE549087008460078052801DD0120FC
:101100000870E14909780F31C8B200F095FBDE485C
:101110000078FFF723FF0C20FFF7D0FD3CE2D84812
:101120000078C0F3001048B3D8480078401CD74975
:10113000087008460078282801DB00F001FED0483E
:101140000078C0F3800048B100F0FAFD0220CD49DC
:10115000087008460078FFF713FE02E1C8480078DF
:10116000C0F3C0000028F8D000F0EAFD0320C54914
:10117000087008460078FFF703FEF2E0C0480078E8
:10118000C0F38010D0B100F0DBFDC1480078401CF6
:10119000BF49087008460078042801DD0120087066
:1011A000BB4909780F31C8B200F046FBB848007857
:1011B000FFF7D4FE0C20FFF781FDD2E0B0480078A5
:1011C00000F00100A0B300F0BBFDB2480078401C65
:1011D000B049087008460078642801DD00200870D6
:1011E000AB48007828B9AB480178002000F012FD28
:1011F00011E0A7480078052808DAA5490978491EB2
:10120000C8B2A449097800F005FD04E0A1480178BE
:10121000042000F0FFFC9F48007800F0CDFA012187
:10122000002000F047FB0021012000F043FB98E084
:10123000FFE793480078C0F34000C0B300F080FDA2
:101240009448007820B193480078401E9149087076
:101250008F48007828B98F480178002000F0DAFC28
:1012600011E08B480078052808DA89490978491E79
:10127000C8B28849097800F0CDFC04E085480178BF
:10128000042000F0C7FC8348007800F095FA0121A3
:10129000002000F00FFB0021012000F00BFB7D4837
:1012A000007800285DD165207A49087059E002E095
:1012B00008E106E156E072480078C0F3800020B3F0
:1012C00000F03EFD74480088401C734908800846C1
:1012D0000088B0F57A7F01DB002008806E48008826
:1012E00000F06AFA6C49098801EB81014FF6FF7240
:1012F00002EA4100FFF76CFD0021084600F0DAFA2F
:101300000121084600F0D6FA2BE05D480078C0F3D2
:10131000C00030B300F014FD5F48008818B94FF4E6
:101320007A705D4908805C48008820B15A4800887E
:10133000401E594908805848008800F03DFA564937
:10134000098801EB81014FF6FF7202EA4100FFF7C5
:101350003FFD0021084600F0ADFA0121084600F0EB
:10136000A9FA19E14648007800287CD04B4800785B
:10137000401C4A4908700846007804281DDB0020FC
:1013800008703F480078C0F38000B8B13C4800784E
:10139000C0F3C00090B142480078401C404908703A
:1013A00008460078252808DB002008700022114636
:1013B000C820FEF7E7FE00F0C3FC81E0304800786B
:1013C000C0F3800098B100F0BBFC36480078401CA8
:1013D0003449087008460078062801DD01200870AD
:1013E000002230480178104600F0A8FD68E024484B
:1013F0000078C0F3C000B0B100F0A2FC294800782A
:1014000020B128480078401E2649087025480078F9
:1014100010B906202349087000222248017810469E
:1014200000F08CFD4CE016480078C0F30010F8B3D3
:101430001D480078401C1C490870084600780228A6
:1014400009DA1A48027817480178012000F076FD81
:1014500004200C49087014480078252830DB00204F
:101460001149087000E028E000F06AFC00221146F3
:10147000C820FEF787FE012002490870084618E0E0
:1014800009000020A4020020AB020020A5020020D9
:101490009A0200209802002014000020A9020020D7
:1014A000A7020020A6020020AA020020A802002015
:1014B00006E00078FFF764FC02E00020374908707E
:1014C0006AE069E03648007800F0010000B300F0FF
:1014D00037FC34480078062809D1334800780228C0
:1014E00005DA31480078401C2F49087008E02E4882
:1014F0000078012804DA2C480078401C2A4908703A
:101500002948027827480178012000F017FD42E0C1
:1015100023480078C0F3400088B100F011FC224855
:10152000007820B120480078401E1F4908701E48EE
:1015300002781C480178012000F000FD2BE01848DB
:101540000078C0F3001030B318480078401C1749E9
:10155000087008460078022808DA0022114801784D
:10156000104600F0EBFC0220114908700F4800788B
:10157000962810DB00200D49087000F0E1FB0022E6
:101580001146C820FEF7FEFD0120094908700846F3
:101590000078FFF7F5FB00BF00BF10BDA9020020D7
:1015A00009000020A6020020A8020020AA020020B4
:1015B000A402002070B50024002517E064104FF449
:1015C00000600C494861022000F0B6F809488068C4
:1015D000C0F3802008B144F080044FF40060054956
:1015E0000861022000F0A8F8681CC5B2082DE5DBF0
:1015F000204670BD0010014010B500F069FD10BD1F
:1016000010B51348006840F0010011490860084611
:101610004068104908400E494860084600680E4975
:1016200008400B4908600846006820F480200860E4
:101630000846406820F4FE0048604FF41F008860B0
:10164000FFF7DAFF4FF000600449086010BD0000AA
:10165000001002400000FFF8FFFFF6FE08ED00E07A
:1016600010B51F48006800F00100002837D04FF681
:10167000FE701B4908601B48008820B1194800888B
:10168000401E184908801848008820B11648008874
:10169000401E154908801548008820B1134800886D
:1016A000401E1249088012480078C0F3801038B1FB
:1016B0001048007820B10F480078401E0D4908708E
:1016C0000D480088401C0C490880084600886428A2
:1016D00003DB0020088000F049FB00F0E3FA10BDB6
:1016E0001004004000000020040000201200002030
:1016F000060000201D0000200200002010B5402040
:1017000000F0F2F94FF480500A494861C02000F01F
:10171000C1F9002404E0002000F0BCF9601CC4B250
:10172000102CF8DB4FF4805002490861012000F0D2
:1017300003F810BD0010014008B50BE00021009136
:1017400004E0BDF80010491C89B20091BDF80010FA
:101750005029F6DB011EA0F1010290B2EED108BDC6
:101760002DE9F04105460C466806060E04F00F0709
:101770004FEA1418402000F0B7F94FF480500D499B
:1017800048610A20FFF7D8FF46F0C00000F082F958
:10179000384600F07FF9404600F07CF90A20FFF758
:1017A000CBFF4FF48050034908610A20FFF7C4FFC4
:1017B000BDE8F081001001402DE9F0410446B4F588
:1017C0007A7F01DB40F2E734642094FBF0F0C6B28C
:1017D0000A2094FBF0F00A2190FBF1F201FB1200C9
:1017E000C5B20A2094FBF0F100FB1140C7B27EB9EC
:1017F00000210846FFF7B4FF25B900210120FFF7BB
:10180000AFFF0FE00B48415D0120FFF7A9FF09E0A2
:101810000848815D0020FFF7A3FF0648415D0120D5
:10182000FFF79EFF0348C15D0220FFF799FFBDE867
:10183000F0810000842500082DE9F04705460026C8
:101840000024192D01DBBDE8F08700242AE005EB18
:10185000450016490844065D6006070E06F00F08AD
:101860004FEA1619402000F03FF94FF4805010491C
:1018700048610A20FFF760FF47F0C00000F00AF956
:10188000404600F007F9484600F004F90A20FFF747
:1018900053FF4FF48050064908610A20FFF74CFFC0
:1018A000601CC4B2032CD2DB00BFCCE79625000835
:1018B000001001402DE9F04104460D4600260027A6
:1018C0003DB10120A040144909880843124908800D
:1018D00006E00120A0401049098881430E4801809C
:1018E000042C05DA06260C48007800F00F070CE0FF
:1018F000082C05DA082608480078C0F3031704E02E
:101900000A2605480088C0F303273946304600F010
:101910000BF9BDE8F08100009202002070B54FF491
:1019200080505A4948610220FFF706FF422000F02C
:10193000B1F80220FFF700FF00BF0822D101534891
:1019400000F04EFA00BF0520FFF7F6FEFFF732FE6B
:101950000546FFF72FFE04464FF480504B490861BF
:101960000A20FFF7E9FE00BF43224FF48061474899
:1019700000F036FA00BF05F0040038B144480078A2
:1019800020F00100401C4249087005E04048007802
:1019900020F001003E49087004F0400038B13C4896
:1019A000007820F00200801C3949087005E03848B2
:1019B000007820F002003649087005F0400038B188
:1019C0003348007820F00400001D3149087005E01C
:1019D0002F48007820F004002D49087004F004001E
:1019E00038B12B48007820F00800083028490870EA
:1019F00005E02748007820F008002549087004F029
:101A0000080038B12248007820F01000103020493A
:101A1000087005E01E48007820F010001C4908708E
:101A200005F0080038B11A48007820F02000203076
:101A30001749087005E01648007820F02000144986
:101A4000087005F0800038B11148007820F040009F
:101A500040300F49087005E00D48007820F0400044
:101A60000B49087004F0800038B10948007820F074
:101A7000800080300649087005E00548007820F0B5
:101A80008000034908700248007870BD00100140D2
:101A90000700002070B5044600251FE04FF40060E9
:101AA000104948610120FFF747FE04F0010020B112
:101AB0004FF480600B49086103E04FF480600949EE
:101AC000486164100120FFF737FE4FF400600549BC
:101AD00008610220FFF730FE681CC5B2082DDDDB6F
:101AE00070BD00000010014010B504464FF4805056
:101AF000074948610220FFF71FFE2046FFF7CAFF93
:101B00004FF48050024908610220FFF715FE10BD16
:101B10000010014010B50446072C00DD072444F0F6
:101B20008800FFF7E1FF10BD70B504460D46442064
:101B3000FFF7DAFF4FF480500949486104F00F01C4
:101B400041F0C000FFF7A6FF2846FFF7A3FF4FF4C0
:101B50008050034908610120FFF7EEFD70BD0000D1
:101B60000010014026480068C0F34010002845D00E
:101B70002348001D0068234908700846007828287B
:101B800005D021480078C0F3C000002836D01E4898
:101B9000007820F0080008301B49087019480178C7
:101BA0001A4802780078401C184B18701848815465
:101BB00018460078092806DC18460078401E1449AB
:101BC000085C29281AD11248407852280AD11048B6
:101BD0008078292806D10C48007820F00200801C6B
:101BE000094908700020094908700949887008707F
:101BF0000548007820F0080003490870704700008D
:101C000000380140850200200600002084020020E8
:101C100086030020642900DD642101B90121042824
:101C200000DD7047042827D11B4A117382F8241065
:101C300082F83C1082F854104A1E184B33F81220D8
:101C40005200174B1A604A1E144B33F812205300EF
:101C5000134A343A93634A1E104B33F81220530050
:101C60000F4A343AD3634A1E0C4B33F81220530008
:101C70000B4A343A13640DE000EB4002064B03EBD1
:101C8000C20211734A1E054B33F812205300044A56
:101C900042F8203000BFC4E7D00200202800002016
:101CA000342C014010B51B48008828B11948008821
:101CB000401E1849088007E01748008820B11648E0
:101CC0000088401E144908801248008878B11348E3
:101CD000007800F0010050B91048007820F00100B1
:101CE000401C0E4908700120FEF75EFA10E009481A
:101CF000008868B90948007800F0010040B1074841
:101D0000007820F00100054908700020FEF74CFA29
:101D100010BD00000C0000200E0000200600002076
:101D200002E008C8121F08C1002AFAD170477047A4
:101D3000002001E001C1121F002AFBD17047000002
:101D400000200549087005490870054908700549D3
:101D5000087005490870704709000020A50200209E
:101D6000A7020020A9020020AA02002010B500242A
:101D700000BF2DE0184830F8240038B304EB4400CD
:101D8000164901EBC000407B00B3134830F8240033
:101D9000401E114921F82400084630F82400A8B953
:101DA000002004EB44010D4A02EBC10148730120FD
:101DB000094901EB8401887000220121204600F0CE
:101DC00009FB00221146C820FEF7DCF9601CC4B2F2
:101DD000042CCFDB10BD000076030020D0020020D1
:101DE000F0B503460D46002100200024EEB246B3B4
:101DF000196800BF22E0012686402E40EEB1840023
:101E000002F0400696B90F26A640B14302F00F0635
:101E1000A6403143182A03D1012686405E610CE0BA
:101E2000082A0AD1012686401E6106E00F26A64038
:101E3000B14302F00F06A6403143401C0828DAD314
:101E4000196005F47F4676B35968002028E000F158
:101E50000806012707FA06F62E4006B3840002F0B2
:101E60004006AEB90F26A640B14302F00F06A640C9
:101E70003143182A04D100F10806B7405F610EE033
:101E8000082A0CD100F108060127B7401F6106E0BF
:101E90000F26A640B14302F00F06A6403143401C76
:101EA0000828D4D35960F0BD29B1064A52680243CC
:101EB000044B5A6004E0034A52688243014B5A6063
:101EC0007047000000000140FEF7C2FCFEF7D6FAA2
:101ED000FEF754FBFEF780FC0120144988700022B5
:101EE0001146C820FEF74EF9FEF71AFB0020FFF757
:101EF000A3FC01200E49C87317E00E48008840B9C2
:101F000014200C490880FFF709FDFEF7B9FDFEF724
:101F100077FF0948008810B932200749088000F08F
:101F20008FFAFFF795F800F0AFFAE6E71700002008
:101F3000D0020020040000201200002070B50546E9
:101F40000E461446072E18D2DFE806F08504182C3A
:101F5000405468001DB90120FFF76EFC0DE034B954
:101F60000720FFF769FC00203C49087005E00820C5
:101F7000FFF762FC0120394908706CE01DB90220AE
:101F8000FFF75AFC0DE034B90920FFF755FC00209B
:101F90003249487005E00A20FFF74EFC01202F4926
:101FA000487058E01DB90320FFF746FC0DE034B936
:101FB0000C20FFF741FC00202849887005E00B2029
:101FC000FFF73AFC01202549887044E01DB9042040
:101FD000FFF732FC0DE034B90C20FFF72DFC002098
:101FE0001E49C87005E00B20FFF726FC01201B49A5
:101FF000C87030E01DB90520FFF71EFC0DE034B9B4
:102000000C20FFF719FC00201449087105E00B2093
:10201000FFF712FC0120114908711CE01DB90620D0
:10202000FFF70AFC16E034B90D20FFF705FC00208D
:102030000A4948710EE0012C06D10E20FFF7FCFB87
:1020400001200649487105E00F20FFF7F5FB02204B
:102050000249487100BF00BF70BD0000170000209A
:1020600070B5002100230F22C47804B3154C2468F6
:1020700004F4E064C4F5E064210AC1F10403CA4039
:10208000447804FA03F184781440214309010E4C8A
:102090000678A155047804F01F050124AC400578AA
:1020A0006D11AD0005F1E025C5F8004109E00478A7
:1020B00004F01F050124AC40044D0678761145F864
:1020C000264070BD0CED00E000E400E080E100E09F
:1020D0000CB50020019000903348006840F4803037
:1020E0003149086000BF3048006800F400300090BB
:1020F0000198401C0190009818B90198B0F5A04FC4
:10210000F1D12948006800F4003010B1012000909E
:1021100001E0002000900098012843D12348006886
:1021200040F01000214908600846006820F00700D0
:1021300008600846006840F0020008601A484068DD
:10214000194948600846406848600846406840F4BD
:10215000806048600846406820F47C10486008466B
:10216000406840F4E81048600846006840F080701D
:10217000086000BF0C48006800F000700028F9D02B
:102180000948406820F00300074948600846406855
:1021900040F00200486000BF0348406800F00C00B7
:1021A0000828F9D10CBD00000010024000200240B8
:1021B000026822F070024B881A430260026822F41F
:1021C00040720B881A4302608A88C262CA8882629F
:1021D000054A904202D0054A904201D10A89026321
:1021E0000122426170470000002C01400034014090
:1021F00030B5002301248C40A3B2046ADD43ADB2A4
:102200002C400462046A02FA01F5ADB22C43046268
:1022100030BD000030B50A4600211178036A8D00F8
:102220000124AC40A34303624C1000F1180353F89F
:102230002430CC07250F7324AC40A3435488CD072A
:102240002D0FAC4023434D1000F1180444F8253005
:10225000036A8D000324AC40A343548995882C4322
:102260008D00AC4023430362124B984202D0124BC4
:10227000984218D1036A8D000C24AC40A343948982
:10228000D5882C438D00AC402343036243684D0046
:102290004FF44074AC40A343D489158A2C434D00BD
:1022A000AC4023434360148900F1340343F82140D8
:1022B00030BD0000002C0140003401403B49884201
:1022C0000BD13B49C96841F40061394AD1601146DC
:1022D000C96821F40061D16067E0B0F1804F0BD193
:1022E0003349096941F00101314A11611146096917
:1022F00021F00101116158E02E4988420BD12C498F
:10230000096941F002012A4A11611146096921F067
:102310000201116149E0284988420BD12449096929
:1023200041F00401224A11611146096921F00401BA
:1023300011613AE0214988420BD11D49096941F0F8
:1023400008011B4A11611146096921F00801116158
:102350002BE01B4988420BD11549096941F0100156
:10236000134A11611146096921F0100111611CE045
:10237000144988420BD10E49096941F020010C4AE9
:1023800011611146096921F0200111610DE00E492A
:1023900088420AD10649C96841F40051044AD16013
:1023A0001146C96821F40051D1607047002C0140EA
:1023B000001002400004004000080040000C0040F3
:1023C000001000400014004000340140816242616E
:1023D0007047000070B504460D461646032C00DD1C
:1023E00070BD3DB9134830F814104B221248FFF766
:1023F000F7FC1CE004EB4400104901EBC000C07B7B
:10240000012814D10B4830F8141043220A48FFF772
:10241000E7FC36B9074830F8140007491431086062
:1024200005E0044830F8140003491031086000BF8B
:10243000D6E700002000002000080140D002002064
:1024400010B500240D480078C0F38000A0B10B48FF
:10245000007820F004000949087009480088B0F5A8
:10246000C86F09DC43224FF400510648FFF7B8FC5F
:102470004FF400500349486110BD000006000020E1
:10248000880200200010014070B50024002500BF24
:102490006EE004EB4400384901EBC000007D0228E7
:1024A0002FD136480078C0F3001050BB3348007875
:1024B00020F010001030314908700CB940F29A2514
:1024C000012C01D140F20935022C01D14FF45E7587
:1024D000032C01D140F2E7352846FFF76DF90020C3
:1024E000274921F8240001EB8401887004EB4400A3
:1024F000214A02EBC000017D01222046FDF77AFE51
:1025000034E004EB44001C4901EBC000007D0128CD
:102510002CD11A480078C0F3401038BB1748007817
:1025200020F0200020301549087004B96F25012CD7
:1025300000D1DE25022C01D140F24D15032C01D132
:102540004FF4DE752846FFF737F900200C4921F8D3
:10255000240001EB8401887004EB4400064A02EB7E
:10256000C000017D01222046FDF744FE601CC4B27C
:10257000042C8EDB70BD0000D0020020060000207D
:10258000760300203F065B4F666D7D077F6F777C8B
:10259000395E79714000FFFFFF7904547350047C69
:1025A0001C505C7338663E745B4F5B38793E731C1D
:1025B000387804546D043D005C545C7171006F7D8B
:1025C000066F5B4F7F6639760639765B39764F3911
:1025D0007666000000501C546C7978377954745C2E
:1025E0001C0000000426000800000020B8020000C3
:1025F00048010008C0270008B8020020E8040000D5
:10260000301D00080113F2322F01000200040008FF
:1026100007000E0016001D2E24002B0032003A0089
:10262000410048004F2E56005E0065006C007300AC
:102630007A00822E8900900097009E00A600AD00CF
:10264000B42EBB00C200CA00D100D800DF00E630C3
:1026500089EE00F500FC0003010A011201190120B6
:102660000127012E0136013D0144014B0152015A5F
:1026700001610168016F0176017E0185018C019382
:10268000019A01A201A901B001B701BE01C601CDA5
:1026900001D401DB01E201EA01F101F801FF0106C9
:1026A000020E0215021C0223022A023202390240E3
:1026B0000247024E0256025D0264026B0272027A07
:1026C00002810288028F0296029E02A502AC02B32A
:1026D00002BA02C202C902D0020CBC9000A600B429
:1026E00000C200D000DF2E0A0013001D00260030BB
:1026F000003A00432E4D00560060006A0073007DD2
:1027000000862E90009A00A300AD00B600C000CA5B
:10271000B09FD300DD00E600F000FA0003010D01D8
:10272000160120012A0133013D01460150015A01E1
:1027300063016D01760180018A0193019D01A6016B
:10274000B001BA01C301CD01D601E001EA01F301F4
:10275000FD01060210021A0223022D023602400277
:102760004A0253025D02660270027A0283028D02FF
:102770009602A002AA02B302BD02C602D002DA0289
:10278000E302ED02F60200030A0313031D0326030E
:1027900030033A0343034D03560360036A03730394
:1027A0007D03860390039A03A303AD03B603C0031E
:1027B000052001020D0B3A010203050A0F143264D1
:04000005080000ED02
:00000001FF
