:020000040800F2
:10000000F007002001010008090100080B010008A9
:100010000D0100080F010008110100080000000098
:1000200000000000000000000000000013010008B4
:100030001501000800000000170100081901000860
:100040001B0100081B0100081B0100081B01000820
:100050001B0100081B0100081B0100081B01000810
:100060001B0100081B0100081B0100088D0300088C
:100070001B0100081B0100081B0100081B010008F0
:100080001B0100081B0100081B0100081B010008E0
:100090001B0100081B0100081B0100081B010008D0
:1000A0001B0100081B0100081B0100081B010008C0
:1000B0001B010008892700081B0100081B0100081C
:1000C0001B0100081B0100081B0100081B010008A0
:1000D0001B010008D12D00081B0100081B010008AE
:1000E0001B0100081B0100081B010008DFF80CD0F1
:1000F00000F018F80048004799380008F007002081
:100100000648804706480047FEE7FEE7FEE7FEE7B1
:10011000FEE7FEE7FEE7FEE7FEE7FEE72927000829
:10012000ED000008064C074D06E0E06840F00103D2
:1001300094E8070098471034AC42F6D3FFF7DAFF93
:10014000A0400008C040000870B58C1810F8015B92
:1001500015F0070301D110F8013B2A1106D110F860
:10016000012B03E010F8016B01F8016B5B1EF9D164
:100170002B0705D40023521E0DD401F8013BFAE7EA
:1001800010F8013BCB1A921C03E013F8015B01F855
:10019000015B521EF9D5A142D8D3002070BD0000EA
:1001A000064B9B784BB1064B188059801A71054B52
:1001B0001880054B1980054B1A70704717000020F6
:1001C0002C0000200C0000200E0000201000002059
:1001D00010B50446012C0ED11B48007800F0010038
:1001E00048B91948007820F00100401C16490870F1
:1001F00000F0AAFC27E034BB1348007800F00100AF
:1002000008B31148007820F001000F49087000225F
:100210000221480703F0CEFC4FF08040406C20F4F0
:1002200000404FF0804148640846006820F001001B
:10023000086043220915054803F0BAFA4FF48060BC
:1002400002491031086010BD06000020000C01407A
:1002500070B505460C461646062D74D2DFE805F04B
:100260000316293C734F44B93146082002F058FC6C
:100270000021042002F054FC07E03146042002F083
:100280004FFC0021082002F04BFC7DE044B93146D0
:10029000092002F045FC0021052002F041FC07E0A6
:1002A0003146052002F03CFC0021092002F038FC18
:1002B0006AE044B931460A2002F032FC00210620EF
:1002C00002F02EFC07E03146062002F029FC002156
:1002D0000A2002F025FC57E044B931460B2002F019
:1002E0001FFC0021072002F01BFC07E0314607201D
:1002F00002F016FC00210B2002F012FC44E084B94D
:100300003146082002F00CFC3146092002F008FCBE
:1003100031460A2002F004FC31460B2002F000FCBA
:100320000FE03146042002F0FBFB3146052002F0CD
:10033000F7FB3146062002F0F3FB3146072002F0BE
:10034000EFFB21E0FFE70021082002F0E9FB00219C
:10035000042002F0E5FB0021092002F0E1FB00216E
:10036000052002F0DDFB00210A2002F0D9FB00216C
:10037000062002F0D5FB00210B2002F0D1FB00216A
:10038000072002F0CDFB00BF00BF70BD10B5DF48F5
:100390000068C0F3400000287ED00220DB4948609E
:1003A000DB48008870BB0020DA49087014E0DA48A6
:1003B000D849097830F81100D6490978C1EBC10154
:1003C000D64A02EB4101D64A127821F81200D148F0
:1003D0000078401CCF490870CE4800780528E6DB3D
:1003E000CF480078401CCE4908700846007807289E
:1003F00008DB00200870CB48007820F00400001DC6
:10040000C8490870C7480078C0F380000028C3D0EE
:10041000C448007820F00400C24908700721BF4892
:1004200003F075F840F6E441484340F6FF7190FB55
:10043000F1F0BD4908800721B8480E3003F067F895
:1004400040F6E441484340F6FF7190FBF1F0B749B4
:1004500048820721B1481C3003F059F840F6E441C6
:10046000484340F6FF7190FBF1F081B2AF488185BF
:100470000721AA482A3003F04AF840F6E4414843ED
:1004800040F6FF7190FBF1F081B2A848A0F8461049
:100490000721A248383000E037E103F038F840F691
:1004A000E441484340F6FF7190FBF1F081B29F4870
:1004B000A0F8601000209E49087021E19C48007857
:1004C00000EB800101EBC000984901EB4000C07BCC
:1004D00001287CD19648007800EB800101EBC00038
:1004E000924901EB4000807B002871D09048007851
:1004F00000EB800101EBC0008C4901EB4000807DE6
:10050000002865D18A48007800EB800101EBC0002B
:10051000864901EB4000407D0028F2D184480078F4
:1005200000EB800101EBC000804901EB4000408AF4
:100530000A2855DA00207E49097801EB810202EB96
:10054000C1017A4A02EB410108767948007800EB54
:10055000800101EBC000114601EB4000C07D401C52
:100560007349097801EB810202EBC1016F4A02EB8A
:100570004101C8756E48007800EB800101EBC000B6
:10058000114601EB4000C07D052828DB00206849AA
:10059000097801EB810202EBC101644A02EB4101DF
:1005A000C87502206249097801EB810202EBC101A2
:1005B0005E4A02EB4101487500215D48007802F077
:1005C00019F800205A49097801EB810201E07DE029
:1005D00066E002EBC101554A02EB4101C8738AE0B3
:1005E0005348007800EB800101EBC0004F4901EB5C
:1005F0004000408AB0F5166F7DDD00204C49097837
:1006000001EB810202EBC101484A02EB4101C875CE
:100610004748007800EB800101EBC000114601EB78
:100620004000007E401C4249097801EB810202EB48
:10063000C1013E4A02EB410108763D48007800EBDB
:10064000800101EBC000114601EB4000007E022852
:1006500051DB00203649097801EB810202EBC10130
:10066000324A02EB4101087601203149097801EB59
:10067000810202EBC1012D4A02EB410148750021C4
:100680002B48007801F0B6FF00202949097801EBDA
:10069000810202EBC101254A02EB4101C8732AE045
:1006A00000202349097801EB810202EBC1011F4AB6
:1006B00002EB4101C8751E49097801EB810202EB8A
:1006C000C1011A4A02EB4101087614E000201849E2
:1006D000097801EB810202EBC101144A02EB4101EE
:1006E000C8751349097801EB810202EBC1010F4A79
:1006F00002EB410108760E480078401C0C49087056
:100700000B4800780428FFF6D9AE10BD0000024067
:100710001E000020B6020020E20300208203002019
:10072000B502002006000020AE02002000030020D9
:10073000B402002000B587B002F030FE5548806951
:1007400040F00400534988610846806940F0100079
:10075000886100220121504803F02AF8002202217A
:100760004D4803F025F8002204214B4803F020F8FF
:1007700000220221494803F01BF8002208214748C3
:1007800003F016F84348806940F4007041498861DD
:100790004FF4004003F074F900BF3E48C06840F4D5
:1007A00000703C49C8600846C06820F40070C8600A
:1007B00000BF00200190881502904FF46020039044
:1007C00000200490022005900520069001A93448DD
:1007D00002F02AFE012305220021314802F044FEE6
:1007E00030480178022305222D4802F03DFE2D48B5
:1007F0004178032305222A4802F036FE29488178F1
:1008000004230522264802F02FFE2648C17805233E
:100810001A46234802F028FE21480830006840F4B8
:1008200080701F49083108601F48806840F001004F
:100830001D4988601A480830006840F001001849D6
:10084000083108600846006840F00800086000BFF2
:10085000134808300068C0F3C0000028F8D11048E1
:100860000830006840F004000D490831086000BFFE
:100870000B4808300068C0F380000028F8D1084811
:100880000830006840F4A00005490831086007B04E
:1008900000BD0000001002400008014000100140AF
:1008A00000240140B00200200000024010B523489F
:1008B000806940F00400214988610846806940F061
:1008C000080088610846806940F010008861084689
:1008D000806940F0200088610822F821184802F061
:1008E00067FF08220121174802F062FF0822302129
:1008F000154802F05DFF43220121134802F058FF22
:10090000432210210F4802F053FF432204210F48D5
:1009100002F04EFF432204210B4802F049FF012060
:10092000094948611020074914310860042007492B
:10093000143108600449486110BD000000100240F5
:1009400000080140000C014000100140001401406B
:1009500010B51448806940F01000124988614322A4
:100960008914114802F024FF43224FF400610E481D
:1009700002F01EFF43224FF480610B4802F018FF83
:100980004FF4805008490861401008614010086128
:100990000A2001F065FF01F045FF052002F0F0F9A3
:1009A00010BD0000001002400010014000B589B0E9
:1009B000604803F065F94FF4B4605F4908805F4810
:1009C000806940F004005D4988610846806940F410
:1009D000006088610846806940F0010088614B2210
:1009E0008915574802F0E4FE4B224FF40071544839
:1009F00002F0DEFE4B224FF48061514802F0D8FE37
:100A00004B224FF400614E4802F0D2FE4A48008863
:100A1000ADF81C000020ADF81E00ADF81800ADF8D0
:100A20001A00ADF8200006A9424803F0A3F86020A0
:100A3000ADF806000120ADF808000020ADF80A006E
:100A4000ADF80E000820ADF810000020ADF812003F
:100A5000ADF814008DF80400ADF80C0001A935487C
:100A600003F0BAF801208DF804000020ADF80C0066
:100A700001A9304803F0B0F802208DF804000020EE
:100A8000ADF80C0001A92B4803F0A6F803208DF85F
:100A900004000020ADF80C0001A9264803F09CF8E2
:100AA0002448006840F00100224908602148443091
:100AB000006840F400401F4944310860002211469C
:100AC0001C4803F077F8002201211A4803F072F85D
:100AD00000220221174803F06DF800220321154877
:100AE00003F068F8174801884322154802F060FEB9
:100AF000144841884322124802F05AFE1148818866
:100B000043220F4802F054FE0E48C18843220C488D
:100B100002F04EFE0B48008809491431086009486C
:100B2000408808600748808808600648C0880860D8
:100B300009B000BD002C0140A802002000100240B6
:100B4000000801404000002000B589B02C488069B1
:100B500040F008002A4988610846C06940F0010059
:100B6000C8614B220915274802F022FE01214802E4
:100B700002F082FE47F22F50ADF81C000020ADF8C5
:100B80001E00ADF81800ADF81A00ADF8200006A957
:100B90004FF0804002F0EEFF6020ADF8060001202B
:100BA000ADF808000020ADF80A00ADF80E000820EE
:100BB000ADF810004001ADF812000020ADF81400AF
:100BC00002208DF8040043F69820ADF80C0001A92E
:100BD0004FF0804003F000F84FF08040006840F094
:100BE00001004FF0804108600846406C40F400402E
:100BF000486401220221480702F0DCFF09B000BD71
:100C000000100240000C01401FB51B48C06940F0B5
:100C100002001949C86140F2E730ADF80800002031
:100C2000ADF80A00ADF80400ADF8060001A91348BC
:100C300002F0A0FF01224721104803F0A9F81D206F
:100C40008DF8000001208DF803008DF801000020D0
:100C50008DF80200684602F0DBFE08480C300068A0
:100C600040F0010005490C3108600448006840F07C
:100C70000100024908601FBD00100240000400404E
:100C80000120064988720221044880F824100321BB
:100C900080F83E10042180F85810704700030020AF
:100CA00010B500244148006880094149097860F383
:100CB00000013F4801703D480068C0093C4909787F
:100CC00060F341013A4801703A48806800093849A8
:100CD000097860F38201364801703648806840091F
:100CE0003349097860F3C301314801703248006824
:100CF0002F49097860F304112D4801702B480068D2
:100D000040092B49097860F34511294801702748AB
:100D1000006800092649097860F3861124480170AB
:100D200022480068C0082249097860F3C7112048AA
:100D3000017000BF1AE01E4800786100084100F011
:100D40000300032809D1012004EB840101EBC40155
:100D50001A4A02EB4101887506E01948007801281B
:100D600002D1601C16490870601CC4B2042CE2DB7E
:100D700002F09AF90F2813D11F2001F093FE0121F0
:100D8000002000F023FB0121084600F01FFB012199
:100D9000022000F01BFB0121032000F017FB03E001
:100DA0000748007800F07EFD10BD000008080140F3
:100DB0001600002000100140080C01400003002034
:100DC000210000201CB5164816490A68026089886F
:100DD0008180FFF755FF002001F064FE0C2000F039
:100DE00045FB4FF47A7003F015F9112000F03EFB3B
:100DF0001A2001F057FE4FF47A7003F00BF90A48FD
:100E0000016800918088ADF80400DDE9000101F07F
:100E100001FE4FF47A7003F0FDF8FFF741FF1CBDAF
:100E2000170000203A0000203400002020480078FD
:100E3000C0F38000F0B11F480078C0F38000C8B94B
:100E40001D480078401C1C4908700846007802289C
:100E50002DDD002008701748007820F00400001DE8
:100E6000144908701548007820F00400001D13494B
:100E700008701CE00020104908700D480078C0F38D
:100E80008000A0B90B48007820F0040009490870E0
:100E90000A48007820F0040008490870002008493A
:100EA00008700848007820F0020006490870704772
:100EB0000800002009000020CA0200200A000020CB
:100EC000D6020020070000201C480078C0F38010E4
:100ED000F0B11B480078C0F38010C8B919480078F9
:100EE000401C1849087008460078022824DD0020BC
:100EF00008701348007820F0400040301049087016
:100F00001148007820F0400040300F49087013E08D
:100F100000200C49087009480078C0F3801058B9C7
:100F20000748007820F0400005490870064800781E
:100F300020F04000044908707047000008000020BD
:100F400009000020BF0200200A000020204800788D
:100F5000C0F34000F0B11F480078C0F34000C8B9AA
:100F60001D480078401C1C4908700846007802287B
:100F70002DDD002008701748007820F00200801C4A
:100F8000144908701548007820F00200801C1349AD
:100F900008701CE00020104908700D480078C0F36C
:100FA0004000A0B90B48007820F002000949087001
:100FB0000A48007820F0020008490870002008491B
:100FC00008700848007820F0010006490870704752
:100FD0000800002009000020BB0200200A000020B9
:100FE000D50200200700002020480078C0F3C00090
:100FF000F0B11F480078C0F3C000C8B91D480078A0
:10100000401C1C4908700846007802282DDD00208D
:1010100008701748007820F008000830144908705C
:101020001548007820F008000830134908701CE0CB
:101030000020104908700D480078C0F3C000A0B926
:101040000B48007820F00800094908700A48007829
:1010500020F0080008490870002008490870084876
:10106000007820F00400064908707047080000204E
:1010700009000020CB0200200A000020D702002037
:101080000700002010B500F0A7F8FFF75FFF00F0A1
:101090005DF8FFF7CBFEFFF7A7FF00F0EBF8FFF7D7
:1010A00013FF00F011F802F06FFF00F00FFD05488C
:1010B000007802F065FA03490978491EC8B200F0C9
:1010C00019F910BD210000201C480078C0F3401021
:1010D000F0B11B480078C0F34010C8B91948007837
:1010E000401C1849087008460078022824DD0020BA
:1010F00008701348007820F0200020301049087054
:101100001148007820F0200020300F49087013E0CB
:1011100000200C49087009480078C0F3401058B905
:101120000748007820F0200005490870064800783C
:1011300020F02000044908707047000008000020DB
:1011400009000020C70200200A0000201D48007886
:10115000C0F30010F0B11C480078C0F30010C8B90B
:101160001A480078401C194908700846007802287F
:1011700027DD002008701448007820F0100010309F
:10118000114908701248007820F010001030104902
:10119000087016E000200D4908700A480078C0F376
:1011A000001070B90848007820F010000649087057
:1011B0000748007820F01000054908700020054914
:1011C000087070470800002009000020BC020020C1
:1011D0000A000020D30200202048007800F001001F
:1011E000F0B11F48007800F00100C8B91D48007830
:1011F000401C1C4908700846007802282DDD00209C
:1012000008701748007820F00100401C144908704D
:101210001548007820F00100401C134908701CE0BC
:101220000020104908700D48007800F00100A0B9B6
:101230000B48007820F00100094908700A4800783E
:1012400020F001000849087000200849087008488B
:10125000007820F0800006490870704708000020E0
:1012600009000020BA0200200A000020D402002059
:10127000060000201B4800780121B1EBD01F1DD1D2
:1012800019480078C009C8B918480078401C1749A7
:10129000087008460078022823DD002008701248F4
:1012A000007820F0800080300F49087010480078E6
:1012B00020F0800080300E49087012E000200B49B9
:1012C000087008480078C00958B90748007820F02D
:1012D0008000054908700648007820F08000044925
:1012E000087070470800002009000020BD0200209F
:1012F0000A00002010B50446204601F0B7FE002881
:1013000058D02F480078012854DC01F097FE0028BF
:1013100050D1032C00DD10BD2A480088401C29490B
:10132000088008460088232805D104F11001C8B2BE
:1013300001F0B8FB41E02348008846283DD1002059
:101340002049088004EB840000EBC4001E4901EB37
:101350004000807D012803D1192001F0A3FB2CE07F
:1013600004EB840000EBC400174901EB4000807DD2
:10137000022803D11F2001F095FB1EE004EB84003E
:1013800000EBC400104901EB4000407D012803D16F
:101390001D2001F087FB10E004EB840000EBC4008B
:1013A000094901EB4000407D022806D11E2001F0D2
:1013B00079FB02E000200349088000BFABE7000092
:1013C000CD020020320000200003002070B5054649
:1013D0000C46042D00DD70BD012C00DD012435B16B
:1013E000012D13D0022D20D0032D3CD12CE044B18F
:1013F0000021082001F094FB0121042001F090FB62
:1014000003E00021042001F08BFB2CE044B100211B
:10141000092001F085FB0121052001F081FB03E09B
:101420000021052001F07CFB1DE044B100210A20D1
:1014300001F076FB0121062001F072FB03E00021A0
:10144000062001F06DFB0EE044B100210B2001F0FD
:1014500067FB0121072001F063FB03E00021072067
:1014600001F05EFB00BF00BF00BFB4E710B504464B
:10147000122C12D2DFE804F009121B2C11111111E9
:10148000111111113D6E7F90B1D20121002001F0A8
:1014900047FB0021012001F043FBF0E0002108465A
:1014A00001F03EFB0121084601F03AFBE7E0002194
:1014B000084601F035FB0021012001F031FB01213C
:1014C000022001F02DFB0021032001F029FBD6E0D2
:1014D0000021084601F024FB0021012001F020FB3F
:1014E0000021022001F01CFB0121032001F018FB68
:1014F000C5E00121002001F013FB0121084601F0A5
:101500000FFB0121022001F00BFB0121032001F060
:1015100007FB0121082001F003FB0121092001F054
:10152000FFFA01210A2001F0FBFA01210B2001F052
:10153000F7FA0121042001F0F3FA0121052001F05E
:10154000EFFA0121062001F0EBFA0121072001F05A
:10155000E7FA94E00021084601F0E2FA00210120B8
:1015600001F0DEFA0021022001F0DAFA0021032066
:1015700001F0D6FA83E00021082001F0D1FA002121
:10158000092001F0CDFA00210A2001F0C9FA00215A
:101590000B2001F0C5FA72E00021084601F0C0FA04
:1015A0000021012001F0BCFA0021022001F0B8FA6C
:1015B0000021032001F0B4FA0021082001F0B0FA64
:1015C0000021092001F0ACFA00210A2001F0A8FA5C
:1015D00000210B2001F0A4FA51E00021084601F09F
:1015E0009FFA0021012001F09BFA0021022001F066
:1015F00097FA0021032001F093FA0021082001F05E
:101600008FFA0021092001F08BFA00210A2001F055
:1016100087FA00210B2001F083FA30E00021084610
:1016200001F07EFA0021012001F07AFA0021022067
:1016300001F076FA0021032001F072FA002108205F
:1016400001F06EFA0021092001F06AFA00210A2057
:1016500001F066FA00210B2001F062FA002104205B
:1016600001F05EFA0021052001F05AFA002106205F
:1016700001F056FA0021072001F052FA00BF00BF26
:1016800010BD70B504460D4634B1012C09D0022CB2
:101690000CD0032C14D10EE02946082001F040FAAA
:1016A0000EE02946092001F03BFA09E029460A200C
:1016B00001F036FA04E029460B2001F031FA00BFB0
:1016C00000BF70BD10B50446052C30D2DFE804F031
:1016D000030D17242E000F20FFF7C8FE15490978C7
:1016E0000F31C8B201F0DEF921E01020FFF7BEFE95
:1016F000104909780F31C8B201F0D4F917E0012080
:101700000D4908700E20FFF7B1FE0220FFF7AEFE74
:10171000012001F0C7F90AE00E20FFF7A7FE032021
:10172000FFF7A4FE182001F0BDF900E000BF00BFE4
:1017300010BD000021000020CF02002010B501469E
:10174000002000BF14E000EB800202EBC0020A4B55
:1017500003EB4202127C4AB100EB800303EBC003AF
:10176000054C04EB43039981044B9981421CD0B290
:101770000428E8DB10BD00000003002068030020FF
:1017800010B500244148006880094149097860F398
:1017900000013F4801703D480068C0093C49097894
:1017A00060F341013A4801703A48806800093849BD
:1017B000097860F382013648017036488068400934
:1017C0003349097860F3C301314801703248006839
:1017D0002F49097860F304112D4801702B480068E7
:1017E00040092B49097860F34511294801702748C1
:1017F000006800092649097860F3861124480170C1
:1018000022480068C0082249097860F3C7112048BF
:10181000017000BF37E01E4800786100084100F009
:10182000030003282DD104EB840000EBC4001B4906
:1018300001EB4000807D20BB022004EB840101EB22
:10184000C401164A02EB4101887504EB840000EBE9
:10185000C40002EB4000817D01222046FEF7F8FC27
:101860000021204600F0C6FE03226421C820FEF7B6
:1018700097FC0B480078401EA04202D11F2001F0C7
:1018800011F9601CC4B2042CC5DB10BD080801406E
:101890001600002000100140080C01400003002049
:1018A0002100002070B504460025012C00DA012437
:1018B000052C24DA601E00EB800101EBC000814999
:1018C00001EB4000807D48B9601E00EB800101EB18
:1018D000C0007C4901EB4000407D80B104F10F0164
:1018E000C8B201F0DFF8002076490874002175487D
:1018F00080F82A1080F8441080F85E1070BD062C25
:101900007ED2DFE804F0CF03172C425701206D4947
:10191000087400216B4880F82A1080F8441080F881
:101920005E1001206849887204F10F01C8B201F00D
:10193000B9F8C3E00020634908740121614880F8C8
:101940002A10002180F8441080F85E1002205E49C1
:10195000887204F10F01C8B201F0A4F8AEE00020D3
:10196000584908740021574880F82A10012180F84E
:101970004410002180F85E1003205349887204F15E
:101980000F01C8B201F08EF898E000204D490874AC
:1019900000214C4880F82A1080F84410012180F87A
:1019A0005E1004204849887204F10F01C8B201F0AA
:1019B00079F883E0002567E005EB850000EBC500C2
:1019C000404901EB4000807D48B9012005EB8501CD
:1019D00001EBC5013B4A02EB4101087408E000201D
:1019E00005EB850101EBC501364A02EB41010874A4
:1019F00005EB850000EBC500324901EB400000E03B
:101A000050E0807D02280ED11F2001F04BF800200D
:101A10002C49087400212B4880F82A1080F84410C3
:101A200080F85E106AE705EB850000EBC5002549EC
:101A300001EB4000407D28B305EB850000EBC500BD
:101A400001EB4000407D022803D11E2001F02AF85E
:101A50000CE005EB850000EBC5001A4901EB4000E6
:101A6000407D012802D11D2001F01CF800201549FD
:101A700008740021134880F82A1080F8441080F878
:101A80005E103BE7681CC5B2042D95DB01F00CFB32
:101A90000F2803D11F2001F005F802E0142001F007
:101AA00001F80BE00020074908740021054880F880
:101AB0002A1080F8441080F85E1000BF00BF00BFFD
:101AC0001CE70000000300206803002010B501F0AF
:101AD000B5FA00B110BDFE480078C0F34010C0B1A7
:101AE00001F058FB01F040FB00B1F3E7F948007842
:101AF000012807D00120F749087008460078FFF751
:101B0000E1FD06E00020F349087008460078FFF781
:101B1000D9FDF0480078052875D2DFE800F003A26F
:101B2000F0EFEE00EA480078C00930B101F032FB76
:101B3000E948007800F03EFC92E0E5480078C0F308
:101B40008010F0B101F026FBE3480078401CE24928
:101B5000087008460078052801DD0120087001F0B2
:101B6000CFFA30B1DC480078052802D10120DA49EB
:101B70000870D9480078FFF795FE0D20FFF776FC36
:101B80006EE0D348007800F00100B0B101F002FB34
:101B900001F0EAFA00B19DE701F0D0FA00285FD029
:101BA000CD48007805285BDA01F03AFB044600F0E6
:101BB000F1FE0020FFF75AFC52E0C5480078C0F360
:101BC0004000A8B101F0E6FA01F0CEFA00B181E7D9
:101BD00001F0B4FA40B3C0480078052840DA01F0BB
:101BE0001FFB044600F0D6FE0020FFF73FFC37E065
:101BF000B7480078C0F38000B8B101F0CBFA01F02B
:101C0000B3FA08B166E74CE201F098FA60B1B24865
:101C10000078052824DA01F01FFB84B2204601F089
:101C2000E5FC0120FFF722FC1AE0A9480078C0F388
:101C3000C000A8B101F0AEFA01F096FA00B149E790
:101C400001F07CFA60B1A4480078052808DA01F0B8
:101C500003FB84B2204601F0C9FC0120FFF706FC1B
:101C600026E39B480078C0F3001048B39B480078F7
:101C7000401C9A49087008460078282801DB01F0CA
:101C800089FA93480078C0F3800048B101F082FAE5
:101C900002209049087008460078FFF713FD00E223
:101CA0008B480078C0F3C0000028F8D001F072FA29
:101CB00003208849087008460078FFF703FDF0E12B
:101CC00083480078C0F38010D0B101F063FA8248F5
:101CD0000078401C8049087008460078042801DD1F
:101CE000012008707C480078FFF7DCFD0D20FFF72D
:101CF000BDFB0E20FFF7BAFBD3E16FE26DE2D1E14D
:101D00007348007800F00100C0B301F017FA002812
:101D1000C5D0714800780428C1DC71480078401CA7
:101D20006F4908706C490978491EC8B201F09EF9E4
:101D300000B1CFE66B480078C00918B16848007858
:101D40000F28ACDB67480078C00918B90020644947
:101D5000087002E00A206249087001F061FA6249E5
:101D6000087060480078C00948B1084600785A28D1
:101D70000EDC084600780A30087009E01CE05A487A
:101D80000078642804DA58480078401C56490870E6
:101D900051490978491EC8B25349097801F070F8D1
:101DA0005148007800F0F6FD4E48007820F08000A1
:101DB00080304C49087074E145480078C0F3400019
:101DC000D8B301F0BBF9002896D043480078042826
:101DD00092DC46480078401C444908703E49097826
:101DE000491EC8B201F042F900B173E640480078DC
:101DF00000F0010018B13D4800780F28DBDB3C48BB
:101E0000007800F0010018B900203849087002E09D
:101E10000A203649087001F003FA33490870344843
:101E2000007800F0010048B1084600780A280DDB70
:101E3000084600780A38087008E01BE02A48007855
:101E400020B129480078401E2749087022490978A6
:101E5000491EC8B22449097801F012F822480078D6
:101E600000F098FD2248007820F00100401C204935
:101E7000087016E116480078C0F3800000286FD083
:101E800001F05CF9002896D013480078042892DC11
:101E900018480078401C174908700F490978491EF6
:101EA000C8B201F0E3F800B114E611480078C0F3BD
:101EB000400018B10F4800780F28DADB0C48007892
:101EC000C0F34000C0B900200A49087017E00000C4
:101ED0000A000020CD02002021000020CE020020B8
:101EE000D402002006000020BE020020D5020020FF
:101EF00007000020D60200200A20EF49087001F0F8
:101F0000ABF9EE490880EE480078C0F3400040B3DA
:101F10000846008840F2DE31884209DDE748008843
:101F2000B0F57A7F04DA4FF47A70E44908803AE039
:101F3000E248008840F2E731884205DADF4800884D
:101F40000A30DE4908802EE0DC48008842F2A261B7
:101F5000884228DAD94800886430D849088022E0CD
:101F600031E0FFE7D548008840F2E731884203D1ED
:101F7000401CD249088016E0D048008840F2E73182
:101F8000884205DACD480088401CCC4908800AE028
:101F9000CA48008842F20671884204DAC7480088BD
:101FA0000A30C6490880C5480088FFF7C7FBC34808
:101FB000008801F01BFBC248007820F00200801C62
:101FC000BF4908706DE0BF480078C0F3C000D8B3C7
:101FD00001F0B4F8C0B3BC480078042861DCBB4809
:101FE0000078401CB9490870B7490978491EC8B241
:101FF00001F03CF800B16DE5B1480078C0F3800015
:1020000018B1B24800780F284BDBAD480078C0F318
:10201000800018B90020AD49087002E00A20AB49E1
:10202000087001F019F9A5490880A5480078C0F3A7
:102030008000A0B108460088B0F57A7F05DB08462D
:102040000088643808801DE02BE09C4800880A283E
:1020500018DD9A4800880A389849088012E09748A5
:102060000088B0F57A7F05DD944800880A389349E6
:10207000088007E09148008820B190480088401E01
:102080008E4908808D480088FFF758FB8B480088F0
:1020900001F0ACFA8A48007820F00400001D88495D
:1020A000087005E18748007800287DD088480078CE
:1020B000401C8749087008460078022823DB00206E
:1020C000087080480078C0F38000E8B17D4800784F
:1020D000C0F3C000C0B17F480078401C7D49087043
:1020E000084600784B2877DB002008700022114654
:1020F000C820FEF755F8784878490A680260898850
:10210000818001F047F867E06E480078C0F38000F6
:1021100098B101F03FF872480078401C704908708F
:1021200008460078062801DD0120087000226C486E
:102130000178104601F0DAFB4EE062480078C0F307
:10214000C000B0B101F026F86548007820B16448BD
:102150000078401E624908706148007810B9062076
:102160005F49087000225E480178104601F0BEFB0E
:1021700032E054480078C0F3001048B35948007862
:10218000401C5849087008460078022809DA564869
:10219000027853480178012001F0A8FB042053493C
:1021A00008705048007800E013E0252814DB002078
:1021B0004C49087000F0EEFF00221146C820FDF7E0
:1021C000EFFF01204949087008460078FFF77AFAC6
:1021D00002E000203E4908706AE069E03948007872
:1021E00000F0010000B300F0D5FF3D48007806285C
:1021F00009D13D480078022805DA3B480078401CA8
:102200003949087008E038480078012804DA36486F
:102210000078401C3449087033480278304801780F
:10222000012001F063FB42E026480078C0F3400043
:1022300088B100F0AFFF2C48007820B12A48007820
:10224000401E294908702848027825480178012055
:1022500001F04CFB2BE01B480078C0F3001030B3BA
:1022600020480078401C1F49087008460078022862
:1022700008DA00221A480178104601F037FB0220E4
:102280001A49087017480078962810DB0020154975
:10229000087000F07FFF00221146C820FDF780FF84
:1022A00001201249087008460078FFF70BFA00BFBA
:1022B00000BF00BF0EE40000D6020020C2020020D2
:1022C000070000200A00002021000020D702002083
:1022D000D2020020D0020020170000203A00002087
:1022E000CF020020D3020020D1020020CD02002026
:1022F00010B5002400BF20E0002004EB840101EBB6
:10230000C4010F4A02EB4101C880002104EB8400A4
:1023100000EBC40002EB400001720020094921F8E3
:102320002400094908800021204600F063F90021BB
:102330002046FFF7A6F9601CC4B2042CDCDB10BDFC
:1023400000030020C80300202800002010B500244E
:1023500000BF27E004EB840000EBC400134901EB4D
:102360004000007A01281BD1002104EB840000EB1F
:10237000C4000E4A02EB40000172002211462046C2
:10238000FDF766FF0A4931F8240001F02FF900F04B
:10239000EBFE28B9002211464FF47A70FDF700FFDA
:1023A000601CC4B2042CD5DB10BD0000000300206B
:1023B000C803002070B5064600250024012E00DA6F
:1023C00070BD701EC4B200F0CFFE28B900F098FEB8
:1023D00010B9002082490870042C7DDA804800780A
:1023E000042879DC04EB840000EBC4007D4901EB98
:1023F0004000407C012850D104EB840000EBC40075
:1024000001EB4000C07BE8BB04EB840000EBC400A0
:1024100001EB4000807BA8B3002004EB840101EBBA
:10242000C401704A02EB4101487404EB840000EBE4
:10243000C400114601EB4000808904EB840101EBEC
:10244000C40102EB4101C880002105EB850000EBCF
:10245000C50002EB400001720121204600F0CAF8DD
:1024600000221146C820FDF79BFE012200212046D4
:10247000FDF7EEFE5A48067000205B4921F8240063
:102480005A4900E009E008800021084600F048FBB6
:102490000021012000F044FBA0E004EB840000EBED
:1024A000C400504901EB4000C07B0128F4D100205A
:1024B00004EB840101EBC4014A4A02EB4101C880EC
:1024C000002104EB840000EBC40002EB4000017229
:1024D000204600F08FF800E005E00022114620467B
:1024E000FDF7B6FE7AE0042C78DB3D48007818B1A1
:1024F0003B480078042871DD00F002FE00286DD111
:1025000000F032FE002867D1002562E005EB85006F
:1025100000EBC500334901EB4000407C012856D157
:1025200005EB850000EBC50001EB4000C07BE8BB7C
:1025300004EB840000EBC40001EB4000807BA8B3F7
:102540002B48007820F00800083029490870002046
:1025500005EB850101EBC501224A02EB41014874FC
:1025600005EB850000EBC500114601EB40008089BA
:1025700005EB850101EBC50102EB4101C88000219B
:1025800005EB850000EBC50002EB40000172002264
:102590001146C820FDF704FE0121284600F02AF864
:1025A000012200212846FDF753FE00E00FE00C4811
:1025B000067000200C4921F825000C4908800021F4
:1025C000084600F0ADFA0021012000F0A9FA681CCD
:1025D000C5B2042D9ADB01E0FFF78AFE00BFEFE6EB
:1025E0002A00002000030020C8030020280000204B
:1025F0000700002070B504460D46032C00DD70BDB9
:102600002DB300221146204601F0DCFB01222146B9
:102610001E4801F0C0FB002004EB840101EBC40163
:102620001B4A02EB4101C87504EB840101EBC401B4
:1026300002EB4101087600F0D1FC012004EB84019B
:1026400001EBC401124A02EB4101C8731BE00020F8
:1026500004EB840101EBC4010D4A02EB4101C87592
:1026600004EB840101EBC40102EB4101087604EBA9
:10267000840101EBC40102EB4101C8730022012176
:10268000204601F09FFB00BFB9E70000002C01408D
:102690000003002070B50024002517E064104FF4FB
:1026A00000600C494861022000F0DAF809488068AF
:1026B000C0F3802008B144F080044FF40060054965
:1026C0000861022000F0CCF8681CC5B2082DE5DBDB
:1026D000204670BD0010014010B507480078C0F3D7
:1026E000400040B10448007820F002000249087020
:1026F00002A000F08BFC10BD060000200D0A323055
:1027000032362E30392E32332C536F667420566594
:102710007273696F6E2056302E30330D0A00000040
:1027200010B501F0B7F910BD10B51348006840F0BE
:1027300001001149086008464068104908400E49E8
:102740004860084600680E4908400B490860084682
:10275000006820F4802008600846406820F4FE00ED
:1027600048604FF41F008860FFF7DAFF4FF0006009
:102770000449086010BD0000001002400000FFF88E
:10278000FFFFF6FE08ED00E010B51F48006800F0FE
:102790000100002837D04FF6FE701B4908601B4827
:1027A000008820B119480088401E18490880184840
:1027B000008820B116480088401E15490880154839
:1027C000008820B113480088401E12490880124832
:1027D0000078C0F3801038B11048008820B10F484D
:1027E0000088401E0D4908800D480088401C0C4997
:1027F000088008460088642803DB0020088000F079
:1028000059FD00F07FFB10BD1004004000000020C7
:102810000400002012000020060000201E000020FE
:102820000200002010B5402000F094FA4FF48050D0
:102830000A494861C02000F063FA002404E0002047
:1028400000F05EFA601CC4B2102CF8DB4FF480502C
:1028500002490861012000F003F810BD001001409A
:1028600008B50BE00021009104E0BDF80010491C00
:1028700089B20091BDF800105029F6DB011EA0F1CD
:10288000010290B2EED108BD2DE9F05F06460C467C
:102890001746012F00DD0127022E01DDBDE8F09F64
:1028A000302C05DB392C03DCA4F13000C5B214E078
:1028B000412C05DB462C03DCA4F13700C5B20CE04B
:1028C000612C05DB662C03DCA4F15700C5B204E0E3
:1028D0002D2C01D1102500E011251648405D40EA5D
:1028E000C71000F0FF0870064FEA106908F00F0AE1
:1028F0004FEA181B402000F02DFA4FF480500E498B
:1029000048610A20FFF7ACFF49F0C00000F0F8F979
:10291000504600F0F5F9584600F0F2F90A20FFF7AA
:102920009FFF4FF48050044908610A20FFF798FF89
:1029300000BFB3E728400008001001402DE9F04136
:1029400005460C466806060E04F00F074FEA1418F9
:10295000402000F0FFF94FF480500D4948610A20F3
:10296000FFF77EFF46F0C00000F0CAF9384600F0DD
:10297000C7F9404600F0C4F90A20FFF771FF4FF491
:102980008050034908610A20FFF76AFFBDE8F08123
:10299000001001402DE9F0410446B4F57A7F01DBD7
:1029A00040F2E734642094FBF0F0C6B20A2094FBB6
:1029B000F0F00A2190FBF1F201FB1200C5B20A20EF
:1029C00094FBF0F100FB1140C7B27EB9002108462C
:1029D000FFF7B4FF25B900210120FFF7AFFF0FE09B
:1029E0000B48415D0120FFF7A9FF09E00848815D20
:1029F0000020FFF7A3FF0648415D0120FFF79EFF7F
:102A00000348C15D0220FFF799FFBDE8F081000097
:102A10002840000813B59DF80000092805DD0022B4
:102A200020211046FFF730FF0CE09DF80000303009
:102A3000C0B28DF800009DF801209DF80010002024
:102A4000FFF722FF9DF80200092805DD0022202162
:102A50000120FFF719FF0CE09DF802003030C0B2F2
:102A60008DF802009DF803209DF802100120FFF769
:102A70000BFF9DF80400092805DD0022202102201B
:102A8000FFF702FF0CE09DF804003030C0B28DF873
:102A900004009DF805209DF804100220FFF7F4FEC5
:102AA0001CBD00002DE9F047054600260024212D1D
:102AB00001DBBDE8F08700242AE005EB450016495C
:102AC0000844065D6006070E06F00F084FEA161967
:102AD000402000F03FF94FF48050104948610A202F
:102AE000FFF7BEFE47F0C00000F00AF9404600F0D4
:102AF00007F9484600F004F90A20FFF7B1FE4FF449
:102B00008050064908610A20FFF7AAFE601CC4B283
:102B1000032CD2DB00BFCCE73A4000080010014094
:102B20002DE9F04104460D46002600273DB1012065
:102B3000A0401449098808431249088006E0012092
:102B4000A0401049098881430E480180042C05DA11
:102B500006260C48007800F00F070CE0082C05DA78
:102B6000082608480078C0F3031704E00A26054841
:102B70000088C0F303273946304600F00BF9BDE862
:102B8000F0810000B802002070B54FF480505A491F
:102B900048610220FFF764FE422000F0B1F80220F5
:102BA000FFF75EFE00BF0822D101534800F000FE8F
:102BB00000BF0520FFF754FEFFF76CFD0546FFF749
:102BC00069FD04464FF480504B4908610A20FFF725
:102BD00047FE00BF43224FF48061474800F0E8FD04
:102BE00000BF05F0040038B14448007820F001002F
:102BF000401C4249087005E04048007820F0010080
:102C00003E49087004F0400038B13C48007820F09C
:102C10000200801C3949087005E03848007820F02F
:102C200002003649087005F0400038B1334800789A
:102C300020F00400001D3149087005E02F4800789D
:102C400020F004002D49087004F0040038B12B482E
:102C5000007820F0080008302849087005E027486F
:102C6000007820F008002549087004F0080038B109
:102C70002248007820F0100010302049087005E04C
:102C80001E48007820F010001C49087005F008006C
:102C900038B11A48007820F0200020301749087019
:102CA00005E01648007820F020001449087005F06F
:102CB000800038B11148007820F0400040300F49C2
:102CC000087005E00D48007820F040000B490870BE
:102CD00004F0800038B10948007820F0800080308E
:102CE0000649087005E00548007820F08000034997
:102CF00008700248007870BD0010014008000020F4
:102D000070B5044600251FE04FF40060104948618B
:102D10000120FFF7A5FD04F0010020B14FF4806011
:102D20000B49086103E04FF4806009494861641071
:102D30000120FFF795FD4FF400600549086102206E
:102D4000FFF78EFD681CC5B2082DDDDB70BD0000ED
:102D50000010014010B504464FF480500749486107
:102D60000220FFF77DFD2046FFF7CAFF4FF4805099
:102D7000024908610220FFF773FD10BD00100140F9
:102D800010B50446072C00DD072444F08800FFF747
:102D9000E1FF10BD70B504460D464420FFF7DAFF91
:102DA0004FF480500949486104F00F0141F0C00020
:102DB000FFF7A6FF2846FFF7A3FF4FF48050034913
:102DC00008610120FFF74CFD70BD000000100140BC
:102DD00026480068C0F34010002845D02348001D55
:102DE00000682349087008460078282805D0214843
:102DF0000078C0F3C000002836D01E48007820F0CC
:102E0000080008301B490870194801781A480278F0
:102E10000078401C184B18701848815418460078E8
:102E2000092806DC18460078401E1449085C292849
:102E30001AD11248407852280AD11048807829289F
:102E400006D10C48007820F00200801C0949087067
:102E50000020094908700949887008700548007801
:102E600020F0080003490870704700000038014056
:102E7000AB02002006000020AA020020D803002098
:102E8000642900DD6421042800DD704704281FD177
:102E9000184A917382F8281082F8421082F85C1068
:102EA000154A32F81120154B1A60134A32F81130C6
:102EB000124A343A9363104A32F811300F4A343AC6
:102EC000D3630D4A32F811300C4A343A13640FE0E0
:102ED00000EB800202EBC002064B03EB420291734F
:102EE000054A32F81130054A42F82030044A9173FD
:102EF00000BFCAE700030020DC010020342C0140A1
:102F00006803002010B518480088B0B11648008842
:102F1000401E154908800120FDF75AF91248008823
:102F200008BB0020FDF754F910480078D8B10F48CD
:102F30000078401E0D49087015E00D48008890B1DA
:102F40000B480088401E0A4908800846008850B98E
:102F50000648007838B107480088034908800548CA
:102F600040880349088010BD0C000020100000209C
:102F70000E0000202C00002014480078C0F38010C0
:102F800018B31248007820F0400010490870002063
:102F90000F4908800F48006820F4A0000D49086020
:102FA0000846006820F0010008600846006820F428
:102FB000807008600848806820F002000649886038
:102FC0000846806820F001008860704706000020F5
:102FD0001E000020082401400000024010B50948EE
:102FE0000078C0F3801040B90648007820F0400017
:102FF000403004490870FDF79DFB322002490880EB
:1030000010BD0000060000201E000020014A0249F9
:1030100000F03EB995370008E402002002E008C83D
:10302000121F08C1002AFAD170477047002001E042
:1030300001C1121F002AFBD1704700000A48807DA1
:1030400001280FD1084890F8300001280AD106481D
:1030500090F84A00012805D1034890F8640001283F
:1030600000D170470020FCE70003002010B50146A6
:103070000022032901DD012010BD01EB810000EBDE
:10308000C100084B03EB4000807D01EB810303EBA3
:10309000C103044C04EB43035B7D40EA4300C2B22E
:1030A0001046E9E700030020002009498A7D91F8D5
:1030B000301042EA4102064991F84A1042EA810280
:1030C000034991F8641042EAC101C8B27047000098
:1030D00000030020002009494A7D91F82F1042EAA0
:1030E0004102064991F8491042EA8102034991F8E8
:1030F000631042EAC101C8B270470000000300201B
:1031000000B50D48807D022811D00B4890F83000A2
:1031100002280CD0084890F84A00022807D0064838
:1031200090F86400022802D0FFF7D4FF08B1012014
:1031300000BD0020FCE7000000030020002009493A
:103140000A7C91F82A1042EA4102064991F844109B
:1031500042EA8102034991F85E1042EAC101C8B215
:10316000704700000003002000200949CA7B91F845
:10317000291042EA4102064991F8431042EA8102CD
:10318000034991F85D1042EAC101C8B270470000DE
:1031900000030020002017490870174908701749DC
:1031A00008701749087017490870174908701748C0
:1031B000007820F08000154908700020144908703C
:1031C0001448007820F001001249087000201249CC
:1031D00008701048007820F002000E4908700020A6
:1031E0000E4908700B48007820F004000949087067
:1031F000704700000A000020CE020020D00200200C
:10320000D2020020D3020020D402002006000020B9
:10321000D502002007000020D6020020D70200209F
:10322000002100BF12E001EB810000EBC100094A60
:1032300002EB4000007C38B101EB810000EBC100E3
:1032400002EB4000807B7047481CC1B20429EADBD6
:103250000020F8E700030020002100BF12E001EB8E
:10326000810000EBC100094A02EB4000007C38B14C
:1032700001EB810000EBC10002EB40008089704748
:10328000481CC1B20429EADB0020F8E70003002053
:103290002DE9F04116460F460446002503E0394665
:1032A000B047641C6D1C20780028F8D12846BDE882
:1032B000F081000010B50024FFF756FF50B13448EC
:1032C000008842F20671884204DA31480088401CC6
:1032D0002F490880002457E004EB840000EBC40071
:1032E0002C4901EB4000C07B68B12B4830F824002A
:1032F00042F20671884206DA274830F82400401C62
:10330000254921F8240004EB840000EBC400214986
:1033100001EB4000C088A8B304EB840000EBC400BC
:1033200001EB4000C07B68B304EB840000EBC400F9
:1033300001EB4000C088401E04EB840101EBC40196
:10334000144A02EB4101C88004EB840000EBC40086
:10335000114601EB4000C088A0B9012104EB8400B4
:1033600000EBC40002EB4000017200212046FFF791
:1033700041F9002004EB840101EBC401054A02EB92
:103380004101C873601CC4B2042CA5DB10BD000051
:103390002800002000030020C803002000B58DB0E5
:1033A0001D48406940F001001B4948611B4800F07E
:1033B000A9F91B4802901B480390002004900520A7
:1033C0000590002006908020079040000890800023
:1033D000099020200A9000020B9000200C9002A976
:1033E0000E4800F0A9F90B208DF8040000208DF89C
:1033F00005008DF8060001208DF8070001A800F0F7
:1034000007FB06480838806840F002000349083985
:1034100088600DB000BD00000010024008000240AE
:103420004C240140E203002010B5D1E900231A43E7
:1034300043680B4C23401A434260D1E902231A43EC
:103440000B691A438368074C23401A438260C26A9F
:1034500022F470038A8A521E43EA0252C26210BDED
:10346000FFFEF0FFFDF7F1FF70B5092910DDC4681C
:10347000A1F10A0505EB45060725B540AC43A1F1CE
:103480000A0505EB450502FA05F52C43C4600BE07F
:10349000046901EB41060725B540AC4301EB41054A
:1034A00002FA05F52C430461072B0EDA446B5D1E0E
:1034B00005EB85061F25B540AC435D1E05EB850574
:1034C00001FA05F52C43446320E00D2B0EDA046B62
:1034D000DD1F05EB85061F25B540AC43DD1F05EB61
:1034E000850501FA05F52C4304630FE0C46AA3F1D6
:1034F0000D0505EB85061F25B540AC43A3F10D0571
:1035000005EB850501FA05F52C43C46270BD70B565
:1035100002460B46002400210025032B01DA00207F
:1035200070BD002419E0002112E032F81160481C3F
:1035300032F81000864209DD32F81150481C32F88A
:10354000100022F81100481C22F81050481CC1B28B
:10355000581E8842E9DC601CC4B29C42E3DB0025B3
:10356000012405E032F81400284485B2601CC4B27E
:10357000981EA042F6DA95FBF0F080B2D0E700008A
:1035800010B50446012C00DA10BD042C0EDDFFF747
:10359000EBFD58B111480078042807DDFFF79AFDCC
:1035A00020B90F48008800F021F814E0601E00EBFD
:1035B000800101EBC0000B4901EB4000C07B50B122
:1035C000611EC8B2FFF752FD28B9611E064A32F8E3
:1035D000210000F00BF800BFD6E700002A00002011
:1035E0002800002000030020C80300201CB504466A
:1035F0004CB963204249087000204870887001204F
:10360000C8700C7170E0092C09DC63203C4908701B
:103610000020487088700120C8700C7164E0632C31
:1036200012DC632036490870002048700A2094FBA1
:10363000F0F088700120C8700A2094FBF0F100FBC4
:1036400011402F4908714FE0B4F57A7F25DA6420E4
:1036500094FBF0F02A490870002048700846007872
:1036600000EBC00101EB0010A4EB800084B20A2043
:1036700094FBF0F0224988700120C87008468078D9
:1036800000EB8000A4EB400084B20A2094FBF0F130
:1036900000FB11401A49087126E042F20F70844283
:1036A00022DC0A2094FBF0F084B2642094FBF0F05A
:1036B00013490870002048700846007800EBC001EC
:1036C00001EB0010A4EB800084B20A2094FBF0F020
:1036D0000B4988700020C8700846807800EB800095
:1036E000A4EB400084B20C71054801680091808809
:1036F000ADF80400DDE90001FFF78CF91CBD000006
:103700002200002001684FF6FE7211400160002186
:10371000016041608160C1600649411A0839052293
:10372000B1FBF2F20F219140024A52681143014A63
:10373000516070470000024010B50022134C0B6826
:10374000A34203D0124C0B68A34202D14FF4405362
:103750004B62026847F6F0739A430C6A8B68234306
:103760000C6923434C6923438C692343CC6923436D
:103770004C6A23438C6A23431A430260CB6843603C
:103780000B6883604B68C36010BD00002854004084
:1037900028580040C2B2054B1A6000BF034A121FEE
:1037A0001268C2F3C012002AF8D0704704380140F2
:1037B000F0B503460D46002100200024EEB246B3CA
:1037C000196800BF22E0012686402E40EEB1840039
:1037D00002F0400696B90F26A640B14302F00F064C
:1037E000A6403143182A03D1012686405E610CE0D1
:1037F000082A0AD1012686401E6106E00F26A6404F
:10380000B14302F00F06A6403143401C0828DAD32A
:10381000196005F47F4676B35968002028E000F16E
:103820000806012707FA06F62E4006B3840002F0C8
:103830004006AEB90F26A640B14302F00F06A640DF
:103840003143182A04D100F10806B7405F610EE049
:10385000082A0CD100F108060127B7401F6106E0D5
:103860000F26A640B14302F00F06A6403143401C8C
:103870000828D4D35960F0BD29B1064A52680243E2
:10388000044B5A6004E0034A52688243014B5A6079
:103890007047000000000140FDF708F8FDF786F8CA
:1038A000FDF7B2F901200F49887000221146C820A7
:1038B000FCF776FCFDF74CF8FDF784FA11E00A48B6
:1038C000008840B9142008490880FFF75DF9FDF72A
:1038D000D9FBFDF755FFFEF739FD00F09FFAFEF723
:1038E000FBFEECE7170000200400002070B5054641
:1038F0000E461446072E18D2DFE806F08504182C71
:10390000405468001DB90120FFF7CCF80DE034B930
:103910000720FFF7C7F800203C49087005E00820A1
:10392000FFF7C0F80120394908706CE01DB902208A
:10393000FFF7B8F80DE034B90920FFF7B3F800201D
:103940003249487005E00A20FFF7ACF801202F4902
:10395000487058E01DB90320FFF7A4F80DE034B912
:103960000C20FFF79FF800202849887005E00B2005
:10397000FFF798F801202549887044E01DB904201C
:10398000FFF790F80DE034B90C20FFF78BF800201A
:103990001E49C87005E00B20FFF784F801201B4981
:1039A000C87030E01DB90520FFF77CF80DE034B990
:1039B0000C20FFF777F800201449087105E00B2070
:1039C000FFF770F80120114908711CE01DB90620AD
:1039D000FFF768F816E034B90D20FFF763F8002010
:1039E0000A4948710EE0012C06D10E20FFF75AF863
:1039F00001200649487105E00F20FFF753F8022027
:103A00000249487100BF00BF70BD000017000020D0
:103A100070B5002100230F22C47804B3154C24682C
:103A200004F4E064C4F5E064210AC1F10403CA406F
:103A3000447804FA03F184781440214309010E4CC0
:103A40000678A155047804F01F050124AC400578E0
:103A50006D11AD0005F1E025C5F8004109E00478DD
:103A600004F01F050124AC40044D0678761145F89A
:103A7000264070BD0CED00E000E400E080E100E0D5
:103A80000349496821F440410143014A51607047AC
:103A9000001002400CB500200190009033480068EF
:103AA00040F480303149086000BF3048006800F4BD
:103AB000003000900198401C0190009818B90198BE
:103AC000B0F5A04FF1D12948006800F4003010B1E2
:103AD0000120009001E0002000900098012843D1CF
:103AE0002348006840F0100021490860084600683B
:103AF00020F0070008600846006840F002000860F7
:103B00001A484068194948600846406848600846B5
:103B1000406840F4806048600846406820F47C10AB
:103B200048600846406840F4E8104860084600686D
:103B300040F08070086000BF0C48006800F0007022
:103B40000028F9D00948406820F003000749486080
:103B50000846406840F00200486000BF03484068E3
:103B600000F00C000828F9D10CBD00000010024044
:103B700000200240026822F070024B881A43026063
:103B8000026822F440720B881A4302608A88C2627B
:103B9000CA888262054A904202D0054A904201D109
:103BA0000A8902630122426170470000002C014033
:103BB0000034014030B5002301248C40A3B2046AD4
:103BC000DD43ADB22C400462046A02FA01F5ADB2E5
:103BD0002C43046230BD000030B50A460021117844
:103BE000036A8D000124AC40A34303624C1000F132
:103BF000180353F82430CC07250F7324AC40A3439B
:103C00005488CD072D0FAC4023434D1000F118040C
:103C100044F82530036A8D000324AC40A343548943
:103C200095882C438D00AC4023430362124B98428D
:103C300002D0124B984218D1036A8D000C24AC407C
:103C4000A3439489D5882C438D00AC402343036261
:103C500043684D004FF44074AC40A343D489158AA7
:103C60002C434D00AC4023434360148900F13403DE
:103C700043F8214030BD0000002C014000340140D9
:103C80003B4988420BD13B49C96841F40061394A3C
:103C9000D1601146C96821F40061D16067E0B0F1DC
:103CA000804F0BD13349096941F00101314A11615B
:103CB0001146096921F00101116158E02E4988423D
:103CC0000BD12C49096941F002012A4A11611146C0
:103CD000096921F00201116149E0284988420BD1AC
:103CE0002449096941F00401224A11611146096918
:103CF00021F0040111613AE0214988420BD11D49AC
:103D0000096941F008011B4A11611146096921F056
:103D1000080111612BE01B4988420BD11549096943
:103D200041F01001134A11611146096921F0100197
:103D300011611CE0144988420BD10E49096941F018
:103D400020010C4A11611146096921F0200111611D
:103D50000DE00E4988420AD10649C96841F4005174
:103D6000044AD1601146C96821F40051D1607047FE
:103D7000002C0140001002400004004000080040F8
:103D8000000C0040001000400014004000340140CE
:103D900081624261704730B50023012A00DD0122B3
:103DA0008D000124AC40A3B2046ADD43ADB22C40C7
:103DB0000462046A8D0002FA05F5ADB22C43046278
:103DC00030BD000070B504460D461646032C00DDDC
:103DD00070BD3DB90F4830F814104B220E48FFF764
:103DE000E7FC14E00B4830F8141043220A48FFF7B0
:103DF000DFFC36B9074830F8140007491431086071
:103E000005E0044830F8140003491031086000BF91
:103E1000DEE70000400000200008014010B500244B
:103E200000BF89E004EB840000EBC400524901EBC1
:103E30004000407D01283AD104EB840000EBC4002F
:103E400001EB4000007D88BB012004EB840101EB05
:103E5000C401494A02EB41010875002004EB8401CA
:103E600001EBC40102EB4101C880002104EB840096
:103E700000EBC40002EB400001721D20FEF712FEB1
:103E800000212046FEF7B6FB04EB840000EBC400E3
:103E9000394A02EB4000417D01222046FCF7D8F967
:103EA00003226421C820FCF77BF943E0FFE704EB21
:103EB000840000EBC400304901EB4000407D022843
:103EC00038D104EB840000EBC40001EB4000007D1E
:103ED00080BB012004EB840101EBC401264A02EB04
:103EE00041010875002004EB840101EBC40102EBE1
:103EF0004101C880002104EB840000EBC40002EB08
:103F0000400001721E20FEF7CDFD00212046FEF785
:103F100071FB04EB840000EBC400174A02EB400085
:103F2000417D01222046FCF793F903226421C82039
:103F3000FCF736F9601CC4B2042CFFF673AF0F48CF
:103F40000078042812DDFFF7C5F878B10C48007836
:103F5000C0F3C00050B10A48007820F008000849BA
:103F60000870002007490870FEF7C2F9FFF7FCF857
:103F700008B9FFF701F810BD000300202100002060
:103F8000070000202A000020002000BF3DE000EBD9
:103F9000800101EBC0011E4A02EB4101097C49B3DB
:103FA00000EB800101EBC00102EB4101897D09BBFF
:103FB00000EB800101EBC00102EB4101497DC9B971
:103FC00000EB800101EBC00102EB4101C97B89B923
:103FD00000EB800101EBC00102EB4101897B91B153
:103FE000012100EB800202EBC002094B03EB42020D
:103FF000517408E0002100EB800202EBC002044B88
:1040000003EB42025174411CC8B20428BFDB704765
:10401000000300200349088000BF024909880029E5
:10402000FBD17047000000203F065B4F666D7D07A7
:104030007F6F777C395E79714000FFFFFF79045410
:104040007350047C1C505C7338663E745B4F5B3865
:10405000793E731C387804546D043D005C545C71E7
:1040600071006F7D066F5B4F7F6639760639765B30
:1040700039764F397666773838501C546C797837F2
:104080007954745C1C4040403E79D0795C0671796B
:104090005B385E06385E5B385E4F385E6600000057
:1040A000C040000800000020E802000048010008AD
:1040B00028430008E8020020080500002C30000812
:1040C0000112E23202130119146A030A12011202E8
:1040D000120422081207120E1216121D12241A2B95
:1040E00044123A12411248124F1256125E126512D1
:1040F0006C1273127A1282128912901297129E1207
:10410000A612AD12B412BB12C212CA12D112D81228
:10411000DF12E612EE12F512FC208303010A0112EF
:10412000011901200127012E0136013D0144014BF7
:104130000152015A01610168016F0176017E01851A
:10414000018C0193019A01A201A901B001B701BE3E
:1041500001C601CD01D401DB01E201EA01F101F860
:1041600001FF0106020E0215021C0223022A02327E
:10417000023902400247024E0256025D0264026B9F
:104180000272027A02810288028F0296029E02A5C2
:1041900002AC02B302BA02C202C902D002120A1A67
:1041A00013C812261A30C612431A4DC412601A6A76
:1041B000C2127D1A86C0129A1AA3BE12B61AC0BCC9
:1041C00012D31ADDBA12F01AFAB81C0D0116B61C79
:1041D0002A0133B41C460150B21C63016DB01C802F
:1041E000018AAE1C9D01A6AC1CBA01C3AA1CD60153
:1041F000E0A81CF301FDA61C10021AA41C2D023617
:10420000A21C4A0253A01C6602709E1C83028D9C55
:104210001CA002AA9A1CBD02C6981009DA02E30289
:10422000ED02F602202A030A0313031D03260330BE
:10423000033A0343034D03560360036A0373037D8C
:1042400003860390039A03A303AD03B603C00312CE
:104250004812551261126E127B128712941AA1B87D
:1042600012BA1AC7B612E012ED12F9182406011399
:10427000011F012C013901450152015F016B0178D9
:1042800001850191019E01AB01B701C401D101DE9D
:10429000A81CF70104A61C1D022AA4182A430250D8
:1042A000025C026902760282028F029C02A802B5B9
:1042B00002C202CE02DB02E802F40201030E031A7C
:1042C000032703340340961C5A036694A0478003D7
:1042D0008C039903A603B203BF03CC03D803E50301
:1042E000F203FE030B041804240431043E044A04C0
:1042F0005704640470047D048A049604A304B00483
:10430000BC04C904D604E204EF04FC040905150545
:1043100022052F05052501020D0B600A0102030588
:084320000A0F143264000000D2
:04000005080000ED02
:00000001FF
