:020000040800F2
:100000009807002001010008090100080B01000801
:100010000D0100080F010008110100080000000098
:1000200000000000000000000000000013010008B4
:100030001501000800000000170100081901000860
:100040001B0100081B0100081B0100081B01000820
:100050001B0100081B0100081B0100081B01000810
:100060001B0100081B0100081B0100081903000800
:100070001B0100081B0100081B0100081B010008F0
:100080001B0100081B0100081B0100081B010008E0
:100090001B0100081B0100081B0100081B010008D0
:1000A0001B0100081B0100081B0100081B010008C0
:1000B0001B010008D91400081B0100081B010008DF
:1000C0001B0100081B0100081B0100081B010008A0
:1000D0001B010008DD1900081B0100081B010008B6
:1000E0001B0100081B0100081B010008DFF80CD0F1
:1000F00000F018F800480047FD200008980700208D
:100100000648804706480047FEE7FEE7FEE7FEE7B1
:10011000FEE7FEE7FEE7FEE7FEE7FEE779140008EC
:10012000ED000008064C074D06E0E06840F00103D2
:1001300094E8070098471034AC42F6D3FFF7DAFF93
:100140002C2700084C27000830B58C1810F8012B1C
:1001500012F00F0301D110F8013B120906D110F87B
:10016000012B03E010F8015B01F8015B5B1EF9D184
:1001700001E001F8013B521EFBD1A142E6D3002071
:1001800030BD0000034B1880034B1980034B1A70DD
:10019000704700000C0000200E000020100000201E
:1001A00010B50446012C02D100F088FB1BE00022B0
:1001B0000221480702F0AAF84FF08040406C20F47A
:1001C00000404FF0804148640846006820F001007C
:1001D000086043220915044801F01CFF4FF48060B9
:1001E00001491031086010BD000C014070B5064691
:1001F0000C46154636B1012E17D0022E28D0032EFC
:100200004CD138E044B92946082001F08FFA00218A
:10021000042001F08BFA07E02946042001F086FA59
:100220000021082001F082FA59E044B9294609204A
:1002300001F07CFA0021052001F078FA07E0294658
:10024000052001F073FA0021092001F06FFA46E061
:1002500044B929460A2001F069FA0021062001F07C
:1002600065FA07E02946062001F060FA00210A201D
:1002700001F05CFA33E044B929460B2001F056FA4C
:100280000021072001F052FA07E02946072001F07B
:100290004DFA00210B2001F049FA20E0002108204E
:1002A00001F044FA0021042001F040FA0021092065
:1002B00001F03CFA0021052001F038FA00210A2063
:1002C00001F034FA0021062001F030FA00210B2061
:1002D00001F02CFA0021072001F028FA00BF00BF2E
:1002E00070BD000000200B494A7B91F8251042EABE
:1002F000410149B9074991F83D10890021B90549E3
:1003000091F85510C90009B1012100E0002108460B
:1003100070470000CC02002010B55C480068C0F3B4
:10032000400000287ED00220584948605848007894
:10033000002877D15748008840F6E441484340F60A
:10034000FF7190FBF1F0544908805248408840F614
:10035000E441484340F6FF7190FBF1F04F49488279
:100360004C48808840F6E441484340F6FF7190FBDA
:10037000F1F081B2494841854648C08840F6E441E1
:10038000484340F6FF7190FBF1F081B24348A0F87A
:1003900042104048008940F6E441484340F6FF716E
:1003A00090FBF1F081B23D48A0F85A103C4800782B
:1003B00020F00400001D3A490870002039490870F7
:1003C0005EE03848007800EB4000344901EBC000A3
:1003D000407B01284FD13348007800EB400001EB0F
:1003E000C000408A14281EDA01202E49097801EB4A
:1003F00041012A4A02EBC101087500221146C820BA
:10040000FFF7C0FE00202749097801EB4101234A8C
:1004100002EBC1014873002201212248007802F05A
:100420007DF828E030E01F48007800EB40001B49D1
:1004300001EBC000408AB0F5166F1CDD022019499F
:10044000097801EB4101154A02EBC1010875002250
:100450001146C820FFF796FE00201249097801EBEB
:1004600041010E4A02EBC1014873002201210D48EF
:10047000007802F053F80B480078401C09490870D6
:100480000848007804289CDB10BD000000000240F2
:100490001D0000208C03002086020020CC020020DA
:1004A000060000208C02002000B587B001F0B0FCEF
:1004B0005548806940F004005349886108468069C6
:1004C00040F01000886100220121504801F0A2FD97
:1004D000002202214D4801F09DFD002204214B48DD
:1004E00001F098FD00220221494801F093FD00220D
:1004F0000821474801F08EFD4348806940F40070B0
:10050000414988614FF4004001F066FE00BF3E485B
:10051000C06840F400703C49C8600846C06820F4D8
:100520000070C86000BF00200190881502904FF451
:100530006020039000200490022005900520069082
:1005400001A9344801F0AAFC012305220021314809
:1005500001F0C4FC30480178022305222D4801F047
:10056000BDFC2D484178032305222A4801F0B6FC42
:100570002948817804230522264801F0AFFC26484B
:10058000C17805231A46234801F0A8FC2148083009
:10059000006840F480701F49083108601F48806877
:1005A00040F001001D4988601A480830006840F09A
:1005B00001001849083108600846006840F008004A
:1005C000086000BF134808300068C0F3C00000286E
:1005D000F8D110480830006840F004000D49083197
:1005E000086000BF0B4808300068C0F38000002896
:1005F000F8D108480830006840F4A00005490831E7
:10060000086007B000BD0000001002400008014073
:100610000010014000240140880200200000024038
:1006200010B52348806940F00400214988610846DC
:10063000806940F0080088610846806940F0100039
:1006400088610846806940F0200088610822F8210E
:10065000184801F0DFFC08220121174801F0DAFCFC
:1006600008223021154801F0D5FC4322012113480E
:1006700001F0D0FC432210210F4801F0CBFC4322B3
:1006800004210F4801F0C6FC432204210B4801F06D
:10069000C1FC012009494861102007491431086054
:1006A00004200749143108600449486110BD000066
:1006B0000010024000080140000C01400010014001
:1006C0000014014010B51448806940F01000124930
:1006D000886143228914114801F09CFC43224FF4A5
:1006E00000610E4801F096FC43224FF480610B48F4
:1006F00001F090FC4FF480500849086140100861F7
:10070000401008610A2000F053FF00F033FF05207D
:1007100001F03CF910BD0000001002400010014043
:1007200000B589B0604801F057FE4FF4B4605F49EE
:1007300008805F48806940F004005D498861084690
:10074000806940F4006088610846806940F00100DB
:1007500088614B228915574801F05CFC4B224FF40D
:100760000071544801F056FC4B224FF4806151480F
:1007700001F050FC4B224FF400614E4801F04AFC5E
:100780004A480088ADF81C000020ADF81E00ADF806
:100790001800ADF81A00ADF8200006A9424801F093
:1007A00095FD6020ADF806000120ADF8080000209E
:1007B000ADF80A00ADF80E000820ADF810000020DA
:1007C000ADF81200ADF814008DF80400ADF80C007F
:1007D00001A9354801F0ACFD01208DF8040000208E
:1007E000ADF80C0001A9304801F0A2FD02208DF8FF
:1007F00004000020ADF80C0001A92B4801F098FD81
:1008000003208DF804000020ADF80C0001A9264853
:1008100001F08EFD2448006840F001002249086084
:1008200021484430006840F400401F4944310860CA
:10083000002211461C4801F069FD002201211A48DE
:1008400001F064FD00220221174801F05FFD002243
:100850000321154801F05AFD174801884322154825
:1008600001F0D8FB144841884322124801F0D2FB22
:100870001148818843220F4801F0CCFB0E48C18803
:1008800043220C4801F0C6FB0B480088094914318B
:100890000860094840880860074880880860064862
:1008A000C088086009B000BD002C01408002002013
:1008B00000100240000801401E00002000B589B071
:1008C0002C48806940F008002A4988610846C069C0
:1008D00040F00100C8614B220915274801F09AFB3E
:1008E0000121480201F0FAFB47F22F50ADF81C003D
:1008F0000020ADF81E00ADF81800ADF81A00ADF8F4
:10090000200006A94FF0804001F0E0FC6020ADF827
:1009100006000120ADF808000020ADF80A00ADF88F
:100920000E000820ADF810004001ADF812000020C4
:10093000ADF8140002208DF8040043F69820ADF8BD
:100940000C0001A94FF0804001F0F2FC4FF0804014
:10095000006840F001004FF0804108600846406C9C
:1009600040F40040486401220221480701F0CEFC17
:1009700009B000BD00100240000C01401FB51B482B
:10098000C06940F002001949C86140F2E730ADF893
:1009900008000020ADF80A00ADF80400ADF806002C
:1009A00001A9134801F092FC01224721104801F0EF
:1009B0009BFD1D208DF8000001208DF803008DF8AF
:1009C000010000208DF80200684601F0CDFB0848C8
:1009D0000C30006840F0010005490C310860044803
:1009E000006840F00100024908601FBD001002408D
:1009F00000040040012006498871022104488177E3
:100A0000032180F83610042180F84E107047000052
:100A1000CC02002010B530480078C0F380000028D8
:100A20004AD02E480078C0F38000002844D12C48DA
:100A30000078401C2A49087008460078022849DDE1
:100A4000002008702548007820F00400001D23498C
:100A500008702448007820F00400001D2149087027
:100A6000FFF740FC38BB2048008818B94FF47A7073
:100A70001D4908801C48008820B11B480088401E82
:100A8000194908801848008800F0D2FD16490988E5
:100A900001EB81014FF6FF7202EA410000F07EFB9C
:100AA0000021084600F042FE0121084600F03EFE0B
:100AB00003200E4908700DE000200949087006481F
:100AC0000078C0F3800028B90448007820F00400C2
:100AD0000249087010BD0000070000200800002037
:100AE0009F0200200900002014000020A102002025
:100AF00010B52C480078C0F38010002842D02A4856
:100B00000078C0F3801000283CD128480078401CB1
:100B10002649087008460078022841DD0020087048
:100B20002148007820F0400040301F4908702048DC
:100B3000007820F0400040301D490870FFF7D2FBDC
:100B4000F8B91C480078401C1A490870084600781B
:100B5000052801DD01200870164909780F31C8B257
:100B600000F0A6FD1348007800F0DEFB00210846E7
:100B700000F0DCFD0021012000F0D8FD01200E492D
:100B800008700DE000200949087006480078C0F39D
:100B9000801028B90448007820F04000024908700D
:100BA00010BD000007000020080000209702002070
:100BB0000900002098020020A102002010B538484A
:100BC0000078C0F3400000285BD036480078C0F3BE
:100BD0004000002855D134480078401C3249087044
:100BE0000846007802285ADD002008702D48007859
:100BF00020F00200801C2B4908702C48007820F05F
:100C00000200801C29490870FFF76CFB002846D1C0
:100C10002748007820B126480078401E24490870F3
:100C20002348007810B964202149087021480078D1
:100C300028B91F480178002000F028FF11E01D4866
:100C40000078052808DA1B490978491EC8B21849F6
:100C5000097800F01BFF04E015480178042000F03B
:100C600015FF1348007800F0E3FC0121002000F09C
:100C70005DFD0021012000F059FD02200E490870A1
:100C80000DE000200849087005480078C0F34000D6
:100C900028B90448007820F002000249087010BD0D
:100CA0000700002008000020930200200900002017
:100CB0009602002098020020A102002010B52E48C4
:100CC0000078C0F3C000002847D02C480078C0F35B
:100CD000C000002841D12A480078401C28490870EB
:100CE00008460078022846DD002008702348007876
:100CF00020F008000830214908702248007820F0D0
:100D0000080008301F490870FFF7ECFA20BB1E48A6
:100D10000088401C1C49088008460088B0F57A7F8E
:100D200001DB002008801848008800F081FC16498B
:100D3000098801EB81014FF6FF7202EA410000F0E1
:100D40002DFA0021084600F0F1FC0121084600F0D0
:100D5000EDFC03200D4908700DE0002008490870E3
:100D600005480078C0F3C00028B90448007820F096
:100D700008000249087010BD07000020080000208C
:100D8000A00200200900002014000020A102002081
:100D900010B500F031F9FFF711FF00F0C3F8FFF7CD
:100DA00039FEFFF78BFF00F0A5F9FFF7A1FE00F079
:100DB00001F810BD10B554480078C0F34010002869
:100DC0007DD052480078C0F34010002877D15048B9
:100DD0000078401C4E4908700846007802286FDDF4
:100DE000002008704948007820F020002030474952
:100DF00008704848007820F02000203045490870ED
:100E000045480078401C444908700846007801288D
:100E100002D002283BD11DE04048007818B91020CC
:100E200000F046FC0DE03D480078052806DA3B4915
:100E300009780F31C8B200F03BFC02E0142000F04A
:100E400037FC0021084600F071FC0021012000F071
:100E50006DFC48E03148007805280BDA2F49097805
:100E6000491E01EB41012E4A02EBC101087B00F053
:100E7000DFFB03E02A49087B00F0DAFB01210020B8
:100E800000F054FC0021012000F050FC2BE0002079
:100E90002149087021480078052812DA1F48007897
:100EA000401E00EB40001E4901EBC00080680A2193
:100EB000B0FBF1F084B2204600F0BAFB0AE013E088
:100EC00020E0174880680A21B0FBF1F084B2204688
:100ED00000F0AEFB0021084600F028FC0121084686
:100EE00000F024FC00BF0DE000200949087006480E
:100EF0000078C0F3401028B90448007820F02000A2
:100F00000249087010BD0000070000200800002002
:100F10009C02002009000020A1020020980200206D
:100F2000CC02002010B52D480078C0F30010002836
:100F30003ED02B480078C0F30010002838D1294853
:100F40000078401C2749087008460078022843DDD5
:100F5000002008702248007820F01000103020494E
:100F600008702148007820F0100010301E490870E9
:100F7000FFF7B8F980BB00201C49087008460178CB
:100F8000042000F083FD1948007800F051FB002098
:100F90001749088000F002F90021084600F0C6FB5E
:100FA0000021012000F0C2FB00201249087013E06C
:100FB00000200C49087009480078C0F3001058B9A7
:100FC0000748007820F010000549087006480078AE
:100FD00020F010000449087010BD00000700002038
:100FE0000800002094020020090000209602002042
:100FF00014000020A102002010B53748007800F04E
:101000000100002858D03548007800F00100002881
:1010100052D133480078401C3149087008460078A6
:10102000022857DD002008702C48007820F00100CD
:10103000401C2A4908702B48007820F00100401C11
:1010400028490870FFF74EF9002843D12648007858
:10105000401C2549087008460078642801DD0120FD
:1010600008702248007828B91F480178002000F055
:101070000DFD11E01D480078052808DA1B490978A4
:10108000491EC8B21849097800F000FD04E016486E
:101090000178042000F0FAFC1348007800F0C8FA48
:1010A0000121002000F042FB0021012000F03EFB66
:1010B00002200F4908700DE0002009490870064819
:1010C000007800F0010028B90448007820F0010001
:1010D0000249087010BD0000070000200800002031
:1010E00092020020090000209602002098020020B1
:1010F000A102002010B5234800780121B1EBD01FD8
:1011000032D121480078C00970BB20480078401CCB
:101110001E49087008460078022832DD0020087059
:101120001948007820F0800080301749087018486E
:10113000007820F08000803015490870052000F00C
:1011400025FC1448007818B901201249087002E003
:1011500000201049087032200F49088000F008FE76
:1011600078B900F0DBFC0CE0002008490870054865
:101170000078C00928B90448007820F080000249AE
:10118000087010BD07000020080000209502002014
:1011900009000020990200201200002001460020D2
:1011A00000BF0DE000EB4002074B03EBC202D27B15
:1011B00022B100EB400203EBC2029160421CD0B2AC
:1011C0000428EFDB70470000CC02002010B500249B
:1011D0004F48006880094F49097860F300014D4885
:1011E00001704B480068C0094A49097860F3410121
:1011F000484801704848806800094649097860F30A
:101200008201444801704448806840094149097896
:1012100060F3C3013F480170404800683D490978C8
:1012200060F304113B4801703948006840093949AE
:10123000097860F3451137480170354800680009A6
:101240003449097860F386113248017030480068EB
:10125000C0083049097860F3C7112E48017000BFFB
:1012600053E02C4800786100084100F00300032897
:101270002BD104EB44002A4901EBC000807B0028FD
:1012800041D1012004EB4401254A02EBC1018873DE
:10129000002004EB440102EBC1014873002201214C
:1012A000204601F03BF900201E4921F8240001EB03
:1012B0008401887004EB4400194A02EBC000817B72
:1012C00000222046FEF792FF1DE004EB4400144983
:1012D00001EBC000807B012815D1002004EB440104
:1012E0000F4A02EBC101887304EB440102EBC10118
:1012F0004873002211462046FEF778FF00220121A4
:10130000204601F00BF9601CC4B2042CA9DB10BD0F
:10131000080801401600002000100140080C0140A0
:10132000CC02002072030020062853D2DFE800F030
:1013300052030F1C2A3701212D4AD17300222C4958
:1013400081F8272081F83F2081F857204EE00021C6
:10135000274AD1730122264981F82720002281F8EB
:101360003F2081F8572041E00021214AD17300221B
:101370001F4981F82720012281F83F20002281F8AF
:10138000572033E000211A4AD1730022184981F80E
:10139000272081F83F20012281F8572026E00121F3
:1013A000134AD1730122124981F8272081F83F2086
:1013B00081F8572000210E4A1173916000220C49D8
:1013C00081F824200A6281F83C208A6381F8542045
:1013D0000A650BE00021064AD1730022044981F816
:1013E000272081F83F2081F8572000BF00BF7047B9
:1013F000CC02002010B5002400BF11E00A4800EB29
:1014000084008078012809D10020074901EB84017C
:101410008870002211462046FEF7E8FE601CC4B228
:10142000042CEBDB10BD00007203002070B500241B
:10143000002517E064104FF400600C494861022059
:1014400000F0B6F809488068C0F3802008B144F085
:1014500080044FF4006005490861022000F0A8F8FC
:10146000681CC5B2082DE5DB204670BD00100140A8
:1014700010B500F0BBFE10BD10B51348006840F079
:1014800001001149086008464068104908400E49AB
:101490004860084600680E4908400B490860084645
:1014A000006820F4802008600846406820F4FE00B0
:1014B00048604FF41F008860FFF7DAFF4FF00060CC
:1014C0000449086010BD0000001002400000FFF851
:1014D000FFFFF6FE08ED00E010B51F48006800F0C1
:1014E0000100002837D04FF6FE701B4908601B48EA
:1014F000008820B119480088401E18490880184803
:10150000008820B116480088401E154908801548FB
:10151000008820B113480088401E124908801248F4
:101520000078C0F3801038B11048007820B10F481F
:101530000078401E0D4908700D480088401C0C4979
:10154000088008460088642803DB0020088000F03B
:1015500025FC00F07FFB10BD1004004000000020BF
:101560000400002012000020060000201D000020C2
:101570000200002010B5402000F0F2F94FF4805036
:101580000A494861C02000F0C1F9002404E00020AD
:1015900000F0BCF9601CC4B2102CF8DB4FF4805092
:1015A00002490861012000F003F810BD001001405D
:1015B00008B50BE00021009104E0BDF80010491CC3
:1015C00089B20091BDF800105029F6DB011EA0F190
:1015D000010290B2EED108BD2DE9F04105460C465E
:1015E0006806060E04F00F074FEA1418402000F0BA
:1015F000B7F94FF480500D4948610A20FFF7D8FF32
:1016000046F0C00000F082F9384600F07FF940460D
:1016100000F07CF90A20FFF7CBFF4FF4805003491C
:1016200008610A20FFF7C4FFBDE8F0810010014007
:101630002DE9F0410446B4F57A7F01DB40F2E7344E
:10164000642094FBF0F0C6B20A2094FBF0F00A216B
:1016500090FBF1F201FB1200C5B20A2094FBF0F1FD
:1016600000FB1140C7B27EB900210846FFF7B4FF66
:1016700025B900210120FFF7AFFF0FE00B48415DC6
:101680000120FFF7A9FF09E00848815D0020FFF76E
:10169000A3FF0648415D0120FFF79EFF0348C15D9F
:1016A0000220FFF799FFBDE8F0810000CC2600087A
:1016B0002DE9F047054600260024192D01DBBDE881
:1016C000F08700242AE005EB450016490844065D32
:1016D0006006070E06F00F084FEA1619402000F0CA
:1016E0003FF94FF48050104948610A20FFF760FF2E
:1016F00047F0C00000F00AF9404600F007F94846FC
:1017000000F004F90A20FFF753FF4FF48050064918
:1017100008610A20FFF74CFF601CC4B2032CD2DB27
:1017200000BFCCE7DE260008001001402DE9F041A3
:1017300004460D46002600273DB10120A040144973
:10174000098808431249088006E00120A04010499A
:10175000098881430E480180042C05DA06260C48CE
:10176000007800F00F070CE0082C05DA082608487E
:101770000078C0F3031704E00A2605480088C0F388
:1017800003273946304600F00BF9BDE8F081000030
:101790009002002070B54FF480505A4948610220F1
:1017A000FFF706FF422000F0B1F80220FFF700FF2C
:1017B00000BF0822D101534800F02CFC00BF0520D7
:1017C000FFF7F6FEFFF732FE0546FFF72FFE044651
:1017D0004FF480504B4908610A20FFF7E9FE00BF33
:1017E00043224FF48061474800F014FC00BF05F02D
:1017F000040038B14448007820F00100401C424900
:10180000087005E04048007820F001003E4908706B
:1018100004F0400038B13C48007820F00200801C01
:101820003949087005E03848007820F00200364950
:10183000087005F0400038B13348007820F004000B
:10184000001D3149087005E02F48007820F00400A1
:101850002D49087004F0040038B12B48007820F0BE
:10186000080008302849087005E02748007820F073
:1018700008002549087004F0080038B122480078B3
:1018800020F0100010302049087005E01E48007854
:1018900020F010001C49087005F0080038B11A4803
:1018A000007820F0200020301749087005E0164825
:1018B000007820F020001449087005F0800038B14D
:1018C0001148007820F0400040300F49087005E0D2
:1018D0000D48007820F040000B49087004F08000AB
:1018E00038B10948007820F080008030064908703F
:1018F00005E00548007820F08000034908700248A0
:10190000007870BD001001400700002070B504464B
:1019100000251FE04FF40060104948610120FFF7E7
:1019200047FE04F0010020B14FF480600B490861CC
:1019300003E04FF480600949486164100120FFF71B
:1019400037FE4FF40060054908610220FFF730FEC2
:10195000681CC5B2082DDDDB70BD00000010014021
:1019600010B504464FF48050074948610220FFF744
:101970001FFE2046FFF7CAFF4FF48050024908615E
:101980000220FFF715FE10BD0010014010B50446FF
:10199000072C00DD072444F08800FFF7E1FF10BDAD
:1019A00070B504460D464420FFF7DAFF4FF480502F
:1019B0000949486104F00F0141F0C000FFF7A6FF9C
:1019C0002846FFF7A3FF4FF4805003490861012028
:1019D000FFF7EEFD70BD00000010014026480068D2
:1019E000C0F34010002845D02348001D006823495B
:1019F000087008460078282805D021480078C0F3F0
:101A0000C000002836D01E48007820F008000830BA
:101A10001B490870194801781A4802780078401C60
:101A2000184B18701848815418460078092806DCAD
:101A300018460078401E1449085C29281AD112481B
:101A4000407852280AD110488078292806D10C48BD
:101A5000007820F00200801C094908700020094924
:101A600008700949887008700548007820F008005F
:101A700003490870704700000038014083020020CD
:101A8000060000208202002082030020642900DD7D
:101A9000642101B90121042800DD7047042827D101
:101AA0001B4A117382F8241082F83C1082F85410FB
:101AB0004A1E184B33F812205200174B1A604A1E68
:101AC000144B33F812205300134A343A93634A1EDE
:101AD000104B33F8122053000F4A343AD3634A1E96
:101AE0000C4B33F8122053000B4A343A13640DE0C8
:101AF00000EB4002064B03EBC20211734A1E054B7A
:101B000033F812205300044A42F8203000BFC4E7E3
:101B1000CC02002026000020342C014010B5002407
:101B200000BF82E004EB4400464901EBC000C07BEB
:101B3000012878D104EB440001EBC000407B38B9A8
:101B4000012004EB44013F4A02EBC101487306E067
:101B5000002004EB44013B4A02EBC101487304EB53
:101B60004400384B03EBC000427B04EB440003EB22
:101B7000C000817B2046FEF739FB04EB440031496D
:101B800001EBC000807B012806D1002004EB44015A
:101B90002C4A02EBC101487304EB4400294901EBD4
:101BA000C000407B70B900220121204600F0B6FC45
:101BB0000020254921F8240001EB8401887000F001
:101BC00087F830E004EB44001E4901EBC000007BC5
:101BD000642809D104EB440001EBC000027B012121
:101BE000204600F09BFC0EE000221146204600F04B
:101BF00095FC04EB4400134901EBC000427B2146F5
:101C0000124800F074FC04EB44000E4901EBC000E4
:101C100000890D4921F824000D480078C0F3801098
:101C200008B900F083F8601CC4B2042CFFF67AAF48
:101C3000FEF758FB20B100221146C820FEF7A2FA99
:101C400010BD0000CC02002072030020002C0140D7
:101C50000600002010B51B48008828B119480088EC
:101C6000401E1849088007E01748008820B1164830
:101C70000088401E144908801248008878B1134833
:101C8000007800F0010050B91048007820F0010001
:101C9000401C0E4908700120FEF782FA10E0094846
:101CA000008868B90948007800F0010040B1074891
:101CB000007820F00100054908700020FEF770FA56
:101CC00010BD00000C0000200E00002006000020C7
:101CD0001248007820F04000104908700020104998
:101CE00008701048006820F4A0000E4908600846FB
:101CF000006820F0010008600846006820F4807049
:101D000008600948806820F002000749886008469A
:101D1000806820F001008860704700000600002005
:101D20001D000020082401400000024010B50648B4
:101D3000007820F04000403003490870FEF7B4FB03
:101D400032200249087010BD060000201D0000204E
:101D500002E008C8121F08C1002AFAD17047704774
:101D6000002001E001C1121F002AFBD170470000D2
:101D70000948007D58B9084890F82C0038B9064841
:101D800090F8440018B9044890F85C0008B10120AC
:101D900070470020FCE70000CC02002010B50024B2
:101DA00000BF2DE0184830F8240038B304EB44009D
:101DB000164901EBC000407B00B3134830F8240003
:101DC000401E114921F82400084630F82400A8B923
:101DD000002004EB44010D4A02EBC10148730120CD
:101DE000094901EB8401887000220121204600F09E
:101DF00095FB00221146C820FEF7C4F9601CC4B24E
:101E0000042CCFDB10BD000072030020CC020020A8
:101E100000B58DB01D48406940F001001B49486184
:101E20001B4800F0AFF81B4802901B4803900020AD
:101E30000490052005900020069080200790400027
:101E400008908000099020200A9000020B9000204A
:101E50000C9002A90E4800F0AFF80B208DF804009A
:101E600000208DF805008DF8060001208DF8070090
:101E700001A800F079F906480838806840F00200AF
:101E80000349083988600DB000BD00000010024011
:101E9000080002404C2401408C03002010B5D1E919
:101EA00000231A4343680B4C23401A434260D1E994
:101EB00002231A430B691A438368074C23401A43D1
:101EC0008260C26A22F470038A8A521E43EA025276
:101ED000C26210BDFFFEF0FFFDF7F1FF70B50929EA
:101EE00010DDC468A1F10A0505EB45060725B540DC
:101EF000AC43A1F10A0505EB450502FA05F52C43B3
:101F0000C4600BE0046901EB41060725B540AC4312
:101F100001EB410502FA05F52C430461072B0EDAAB
:101F2000446B5D1E05EB85061F25B540AC435D1E69
:101F300005EB850501FA05F52C43446320E00D2BE4
:101F40000EDA046BDD1F05EB85061F25B540AC439B
:101F5000DD1F05EB850501FA05F52C4304630FE051
:101F6000C46AA3F10D0505EB85061F25B540AC43FA
:101F7000A3F10D0505EB850501FA05F52C43C462B7
:101F800070BD000001684FF6FE7211400160002133
:101F9000016041608160C1600649411A083905222B
:101FA000B1FBF2F20F219140024A52681143014AFB
:101FB000516070470000024010B50022134C0B68BE
:101FC000A34203D0124C0B68A34202D14FF44053FA
:101FD0004B62026847F6F0739A430C6A8B6823439E
:101FE0000C6923434C6923438C692343CC69234305
:101FF0004C6A23438C6A23431A430260CB684360D4
:102000000B6883604B68C36010BD0000285400401B
:1020100028580040F0B503460D460021002000245A
:10202000EEB246B3196800BF22E0012686402E407A
:10203000EEB1840002F0400696B90F26A640B143E7
:1020400002F00F06A6403143182A03D1012686402C
:102050005E610CE0082A0AD1012686401E6106E076
:102060000F26A640B14302F00F06A6403143401CA4
:102070000828DAD3196005F47F4676B35968002042
:1020800028E000F10806012707FA06F62E4006B3FD
:10209000840002F04006AEB90F26A640B14302F01C
:1020A0000F06A6403143182A04D100F10806B740B4
:1020B0005F610EE0082A0CD100F108060127B74045
:1020C0001F6106E00F26A640B14302F00F06A640AE
:1020D0003143401C0828D4D35960F0BD29B1064AC9
:1020E00052680243044B5A6004E0034A5268824338
:1020F000014B5A607047000000000140FEF77AFC77
:10210000FEF78EFAFEF70CFBFEF738FC00221146B4
:10211000C820FEF737F8FEF7D5FA0020FFF7C8FA17
:1021200001200E49C87317E00D48008840B91420FB
:102130000B490880FFF72EFBFEF72AFEFFF746F853
:102140000848008810B932200649088000F01CFABF
:10215000FFF750F900F03CFAE6E70000CC0200205F
:10216000040000201200002070B5002100230F227F
:10217000C47804B3154C246804F4E064C4F5E06446
:10218000210AC1F10403CA40447804FA03F18478B7
:102190001440214309010E4C0678A155047804F03F
:1021A0001F050124AC4005786D11AD0005F1E02557
:1021B000C5F8004109E0047804F01F050124AC4093
:1021C000044D0678761145F8264070BD0CED00E010
:1021D00000E400E080E100E00349496821F4404167
:1021E0000143014A51607047001002400CB50020C5
:1021F000019000903348006840F480303149086015
:1022000000BF3048006800F4003000900198401C86
:102210000190009818B90198B0F5A04FF1D1294864
:10222000006800F4003010B10120009001E00020AF
:1022300000900098012843D12348006840F0100026
:10224000214908600846006820F007000860084639
:10225000006840F0020008601A4840681949486068
:102260000846406848600846406840F4806048601E
:102270000846406820F47C1048600846406840F4F6
:10228000E81048600846006840F08070086000BFB1
:102290000C48006800F000700028F9D00948406838
:1022A00020F00300074948600846406840F00200FB
:1022B000486000BF0348406800F00C000828F9D1CE
:1022C0000CBD00000010024000200240026822F015
:1022D00070024B881A430260026822F440720B8835
:1022E0001A4302608A88C262CA888262054A9042A2
:1022F00002D0054A904201D10A890263012242615B
:1023000070470000002C01400034014030B500232C
:1023100001248C40A3B2046ADD43ADB22C400462B8
:10232000046A02FA01F5ADB22C43046230BD00002C
:1023300030B50A4600211178036A8D000124AC40B3
:10234000A34303624C1000F1180353F82430CC0768
:10235000250F7324AC40A3435488CD072D0FAC4008
:1023600023434D1000F1180444F82530036A8D0012
:102370000324AC40A343548995882C438D00AC4082
:1023800023430362124B984202D0124B984218D159
:10239000036A8D000C24AC40A3439489D5882C4358
:1023A0008D00AC402343036243684D004FF44074FA
:1023B000AC40A343D489158A2C434D00AC40234341
:1023C0004360148900F1340343F8214030BD00001C
:1023D000002C0140003401403B4988420BD13B496D
:1023E000C96841F40061394AD1601146C96821F4D5
:1023F0000061D16067E0B0F1804F0BD133490969CA
:1024000041F00101314A11611146096921F00101D0
:10241000116158E02E4988420BD12C49096941F0DD
:1024200002012A4A11611146096921F00201116174
:1024300049E0284988420BD12449096941F0040147
:10244000224A11611146096921F0040111613AE043
:10245000214988420BD11D49096941F008011B4AF5
:1024600011611146096921F0080111612BE01B4936
:1024700088420BD11549096941F01001134A1161D5
:102480001146096921F0100111611CE014498842CC
:102490000BD10E49096941F020010C4A1161114626
:1024A000096921F0200111610DE00E4988420AD12D
:1024B0000649C96841F40051044AD1601146C9680F
:1024C00021F40051D1607047002C014000100240FF
:1024D0000004004000080040000C004000100040D4
:1024E000001400400034014081624261704730B501
:1024F0000023012A00DD01228D000124AC40A3B29B
:10250000046ADD43ADB22C400462046A8D0002FA15
:1025100005F5ADB22C43046230BD000070B5044631
:102520000D461646032C00DD70BD3DB9134830F84A
:1025300014104B221248FFF76DFD1CE004EB440021
:10254000104901EBC000C07B012814D10B4830F8C2
:10255000141043220A48FFF75DFD36B9074830F8EA
:10256000140007491431086005E0044830F81400ED
:1025700003491031086000BFD6E700001E000020AC
:1025800000080140CC02002010B500240D4800785E
:10259000C0F38000A0B10B48007820F00400094986
:1025A000087009480088B0F5C86F09DC43224FF471
:1025B00000510648FFF72EFD4FF4005003494861D3
:1025C00010BD00000600002086020020001001401F
:1025D00070B50024002500BF6EE004EB44003849CC
:1025E00001EBC000007D02282FD136480078C0F3EF
:1025F000001050BB3348007820F0100010303149F3
:1026000008700CB940F29A25012C01D140F209352D
:10261000022C01D14FF45E75032C01D140F2E73555
:102620002846FFF705F80020274921F8240001EB90
:102630008401887004EB4400214A02EBC000017D54
:1026400001222046FDF7D2FD34E004EB44001C4992
:1026500001EBC000007D01282CD11A480078C0F39E
:10266000401038BB1748007820F020002030154972
:10267000087004B96F25012C00D1DE25022C01D190
:1026800040F24D15032C01D14FF4DE752846FEF7BC
:10269000CFFF00200C4921F8240001EB8401887051
:1026A00004EB4400064A02EBC000017D01222046F3
:1026B000FDF79CFD601CC4B2042C8EDB70BD0000D5
:1026C000CC02002006000020720300203F065B4F72
:1026D000666D7D077F6F777C395E79714000FFFF03
:1026E000FF7904547350047C1C505C7338663E744C
:1026F0005B4F5B38793E731C387804546D043D00A1
:102700005C545C7171006F7D066F5B4F7F6639763C
:102710000639765B39764F397666773838501C54EF
:102720006C7978377954745C1C0000004C270008E1
:1027300000000020B4020000480100080829000839
:10274000B4020020E4040000601D00080113D2322E
:102750002F0100020004000807000E0016001D2EC5
:1027600024002B0032003A00410048004F2E560052
:102770005E0065006C0073007A00822E8900900074
:1027800097009E00A600AD00B42EBB00C200CA0098
:10279000D100D800DF00E63089EE00F500FC000330
:1027A000010A0112011901200127012E0136013D04
:1027B0000144014B0152015A01610168016F017628
:1027C000017E0185018C0193019A01A201A901B04A
:1027D00001B701BE01C601CD01D401DB01E201EA6E
:1027E00001F101F801FF0106020E0215021C02238D
:1027F000022A0232023902400247024E0256025DAC
:102800000264026B0272027A02810288028F0296CF
:10281000029E02A502AC02B302BA02C202C902D0F1
:10282000020CBC9000A600B400C200D000DF2E0A4B
:102830000013001D00260030003A00432E4D0056C4
:102840000060006A0073007D00862E90009A00A34D
:1028500000AD00B600C000CAB09FD300DD00E600A6
:10286000F000FA0003010D01160120012A013301D5
:102870003D01460150015A0163016D01760180015D
:102880008A0193019D01A601B001BA01C301CD01E6
:10289000D601E001EA01F301FD01060210021A026D
:1028A00023022D02360240024A0253025D026602F2
:1028B00070027A0283028D029602A002AA02B3027B
:1028C000BD02C602D002DA02E302ED02F602000304
:1028D0000A0313031D03260330033A0343034D0386
:1028E000560360036A0373037D03860390039A0310
:1028F000A303AD03B603C003051D01020D0B4A017E
:082900000203050A0F14326402
:04000005080000ED02
:00000001FF
