:020000040800F2
:10000000B807002001010008090100080B010008E1
:100010000D0100080F010008110100080000000098
:1000200000000000000000000000000013010008B4
:100030001501000800000000170100081901000860
:100040001B0100081B0100081B0100081B01000820
:100050001B0100081B0100081B0100081B01000810
:100060001B0100081B0100081B0100080903000810
:100070001B0100081B0100081B0100081B010008F0
:100080001B0100081B0100081B0100081B010008E0
:100090001B0100081B0100081B0100081B010008D0
:1000A0001B0100081B0100081B0100081B010008C0
:1000B0001B0100086D1A00081B0100081B01000845
:1000C0001B0100081B0100081B0100081B010008A0
:1000D0001B010008B52000081B0100081B010008D7
:1000E0001B0100081B0100081B010008DFF80CD0F1
:1000F00000F018F8004800479D260008B8070020C7
:100100000648804706480047FEE7FEE7FEE7FEE7B1
:10011000FEE7FEE7FEE7FEE7FEE7FEE70D1A000852
:10012000ED000008064C074D06E0E06840F00103D2
:1001300094E8070098471034AC42F6D3FFF7DAFF93
:10014000CC2D0008EC2D000870B58C1810F8015B60
:1001500015F0070301D110F8013B2A1106D110F860
:10016000012B03E010F8016B01F8016B5B1EF9D164
:100170002B0705D40023521E0DD401F8013BFAE7EA
:1001800010F8013BCB1A921C03E013F8015B01F855
:10019000015B521EF9D5A142D8D3002070BD0000EA
:1001A000044B9B782BB1044B1880044B1980044BF3
:1001B0001A707047170000200C0000200E0000206D
:1001C0001000002010B50446012C02D100F0B0FA56
:1001D0001BE000220221480702F0EAFB4FF08040BA
:1001E000406C20F400404FF08041486408460068AD
:1001F00020F00100086043220915044802F0DAF9F2
:100200004FF4806001491031086010BD000C0140BE
:1002100070B506460C46154636B1012E17D0022E93
:1002200028D0032E4CD138E044B92946082001F0EB
:10023000E9FD0021042001F0E5FD07E02946042046
:1002400001F0E0FD0021082001F0DCFD59E044B997
:100250002946092001F0D6FD0021052001F0D2FD3C
:1002600007E02946052001F0CDFD0021092001F01D
:10027000C9FD46E044B929460A2001F0C3FD00212A
:10028000062001F0BFFD07E02946062001F0BAFD77
:1002900000210A2001F0B6FD33E044B929460B20C5
:1002A00001F0B0FD0021072001F0ACFD07E0294678
:1002B000072001F0A7FD00210B2001F0A3FD20E0A5
:1002C0000021082001F09EFD0021042001F09AFD8C
:1002D0000021092001F096FD0021052001F092FD8A
:1002E00000210A2001F08EFD0021062001F08AFD88
:1002F00000210B2001F086FD0021072001F082FD86
:1003000000BF00BF70BD000010B55B480068C0F3BF
:10031000400000287DD002205749486057480078A7
:10032000002876D15648008840F6E441484340F61C
:10033000FF7190FBF1F0534908805148408840F626
:10034000E441484340F6FF7190FBF1F04E490882CA
:100350004B48808840F6E441484340F6FF7190FBEB
:10036000F1F081B2484881844548C08840F6E441B4
:10037000484340F6FF7190FBF1F081B2424801879B
:100380003F48008940F6E441484340F6FF7190FB46
:10039000F1F081B23C48A0F84C103C48007820F0C5
:1003A0000400001D394908700020394908705EE0DA
:1003B0003748007800EB8000334901EB8000C07AB9
:1003C00001284FD13248007800EB800001EB80001B
:1003D000008A14281EDA01202D49097801EB8101D9
:1003E000294A02EB8101887400221146C820FFF7D8
:1003F000D7FE00202649097801EB8101224A02EB51
:100400008101C872002201212148007802F0C2FB5C
:1004100028E030E01E48007800EB80001A4901EB2C
:100420008000008AB0F5166F1CDD0220184909789B
:1004300001EB8101144A02EB81018874002211460C
:10044000C820FFF7ADFE00201149097801EB8101BA
:100450000D4A02EB8101C872002201210C4800788C
:1004600002F098FB0A480078401C094908700848C7
:10047000007804289CDB10BD000002401D00002015
:10048000AC0300209A020020E802002006000020B1
:10049000A002002010B52348806940F004002149E3
:1004A00088610846806940F00800886108468069D4
:1004B00040F0100088610846806940F020008861A3
:1004C0000822F821184802F075F80822012117487F
:1004D00002F070F808223021154802F06BF8432230
:1004E0000121134802F066F8432210210F4802F060
:1004F00061F8432204210F4802F05CF843220421F2
:100500000B4802F057F801200949486110200749BB
:100510001431086004200749143108600449486117
:1005200010BD00000010024000080140000C014016
:10053000001001400014014010B51448806940F0DB
:1005400010001249886143228914114802F032F8E0
:1005500043224FF400610E4802F02CF843224FF47E
:1005600080610B4802F026F84FF48050084908617A
:1005700040100861401008610A2001F0E3FA01F020
:10058000C3FA052001F06EFD10BD0000001002400E
:100590000010014000B589B0604802F06FFA4FF4D6
:1005A000B4605F4908805F48806940F004005D499D
:1005B00088610846806940F4006088610846806967
:1005C00040F0010088614B228915574801F0F2FF85
:1005D0004B224FF40071544801F0ECFF4B224FF4D2
:1005E0008061514801F0E6FF4B224FF400614E4814
:1005F00001F0E0FF4A480088ADF81C000020ADF88B
:100600001E00ADF81800ADF81A00ADF8200006A9DC
:10061000424802F0ADF96020ADF806000120ADF8C7
:1006200008000020ADF80A00ADF80E000820ADF873
:1006300010000020ADF81200ADF814008DF8040091
:10064000ADF80C0001A9354802F0C4F901208DF87D
:1006500004000020ADF80C0001A9304802F0BAF9FE
:1006600002208DF804000020ADF80C0001A92B48F1
:1006700002F0B0F903208DF804000020ADF80C0062
:1006800001A9264802F0A6F92448006840F00100BC
:100690002249086021484430006840F400401F4966
:1006A00044310860002211461C4802F081F9002202
:1006B00001211A4802F07CF900220221174802F0B9
:1006C00077F900220321154802F072F917480188D2
:1006D0004322154801F06EFF144841884322124816
:1006E00001F068FF1148818843220F4801F062FF42
:1006F0000E48C18843220C4801F05CFF0B4800887B
:100700000949143108600948408808600748808812
:1007100008600648C088086009B000BD002C014090
:100720009402002000100240000801403200002026
:1007300000B589B02C48806940F008002A498861DA
:100740000846C06940F00100C8614B2209152748DE
:1007500001F030FF0121480201F090FF47F22F50D5
:10076000ADF81C000020ADF81E00ADF81800ADF883
:100770001A00ADF8200006A94FF0804002F0F8F80A
:100780006020ADF806000120ADF808000020ADF8AB
:100790000A00ADF80E000820ADF810004001ADF8D9
:1007A00012000020ADF8140002208DF8040043F67A
:1007B0009820ADF80C0001A94FF0804002F00AF932
:1007C0004FF08040006840F001004FF08041086029
:1007D0000846406C40F4004048640122022148076A
:1007E00002F0E6F809B000BD00100240000C014024
:1007F0001FB51B48C06940F002001949C86140F2AA
:10080000E730ADF808000020ADF80A00ADF80400AC
:10081000ADF8060001A9134802F0AAF80122472109
:10082000104802F0B3F91D208DF8000001208DF86A
:1008300003008DF8010000208DF80200684601F0E9
:10084000EFFF08480C30006840F0010005490C310A
:1008500008600448006840F00100024908601FBDBC
:100860000010024000040040012006498871022166
:1008700004488176032180F82E10042180F842106C
:1008800070470000E80200201CB5FFF7EDFF0020D4
:1008900001F07AFA0C2000F079FA4FF47A7002F045
:1008A0004FFA112000F072FA1A2001F06DFA4FF49D
:1008B0007A7002F045FA0948016800918088ADF825
:1008C0000400DDE9000101F017FA4FF47A7002F03C
:1008D00037FA152001F058FA1CBD00002600002050
:1008E00020480078C0F38000F0B11F480078C0F3C2
:1008F0008000C8B91D480078401C1C490870084693
:10090000007802282DDD002008701748007820F0BC
:100910000400001D144908701548007820F00400F8
:10092000001D134908701CE00020104908700D4894
:100930000078C0F38000A0B90B48007820F00400D4
:10094000094908700A48007820F004000849087036
:100950000020084908700848007820F00200064985
:10096000087070470800002009000020B60200202F
:100970000A000020C2020020070000201C48007866
:10098000C0F38010F0B11B480078C0F38010C8B9E4
:1009900019480078401C1849087008460078022859
:1009A00024DD002008701348007820F0400040301B
:1009B000104908701148007820F0400040300F497D
:1009C000087013E000200C49087009480078C0F353
:1009D000801058B90748007820F040000549087099
:1009E0000648007820F04000044908707047000075
:1009F0000800002009000020AB0200200A000020AF
:100A000020480078C0F34000F0B11F480078C0F3E0
:100A10004000C8B91D480078401C1C4908700846B1
:100A2000007802282DDD002008701748007820F09B
:100A30000200801C144908701548007820F002005C
:100A4000801C134908701CE00020104908700D48F4
:100A50000078C0F34000A0B90B48007820F00200F5
:100A6000094908700A48007820F002000849087017
:100A70000020084908700848007820F00100064965
:100A8000087070470800002009000020A70200201D
:100A90000A000020C1020020070000202048007842
:100AA000C0F3C000F0B11F480078C0F3C000C8B95F
:100AB0001D480078401C1C49087008460078022830
:100AC0002DDD002008701748007820F0080008305D
:100AD000144908701548007820F0080008301349C0
:100AE00008701CE00020104908700D480078C0F321
:100AF000C000A0B90B48007820F008000949087030
:100B00000A48007820F008000849087000200849C9
:100B100008700848007820F0040006490870704703
:100B20000800002009000020B70200200A00002071
:100B3000C30200200700002010B500F099F8FFF76D
:100B40005FFF00F04FF8FFF7CBFEFFF7A7FF00F0C5
:100B5000DDF8FFF713FF00F003F800F075FB10BDA0
:100B60001C480078C0F34010F0B11B480078C0F377
:100B70004010C8B919480078401C18490870084648
:100B80000078022824DD002008701348007820F047
:100B900020002030104908701148007820F0200013
:100BA00020300F49087013E000200C4908700948F4
:100BB0000078C0F3401058B90748007820F02000B2
:100BC000054908700648007820F0200004490870A4
:100BD000704700000800002009000020B302002038
:100BE0000A0000201D480078C0F30010F0B11C4836
:100BF0000078C0F30010C8B91A480078401C1949A1
:100C0000087008460078022827DD00200870144884
:100C1000007820F010001030114908701248007858
:100C200020F0100010301049087016E000200D4927
:100C300008700A480078C0F3001070B908480078BE
:100C400020F01000064908700748007820F01000D6
:100C50000549087000200549087070470800002009
:100C600009000020A80200200A000020BF02002086
:100C70002048007800F00100F0B11F48007800F033
:100C80000100C8B91D480078401C1C49087008467E
:100C9000007802282DDD002008701748007820F029
:100CA0000100401C144908701548007820F001002C
:100CB000401C134908701CE00020104908700D48C2
:100CC000007800F00100A0B90B48007820F0010086
:100CD000094908700A48007820F0010008490870A6
:100CE0000020084908700848007820F08000064974
:100CF000087070470800002009000020A6020020AC
:100D00000A000020C0020020060000201B480078D6
:100D10000121B1EBD01F1DD119480078C009C8B915
:100D200018480078401C17490870084600780228C7
:100D300023DD002008701248007820F08000803009
:100D40000F4908701048007820F0800080300E496C
:100D5000087012E000200B49087008480078C009AC
:100D600058B90748007820F0800005490870064807
:100D7000007820F0800004490870704708000020C7
:100D800009000020A90200200A00002010B5044636
:100D9000122C12D2DFE804F009121B2C11111111D0
:100DA000111111113D6E7F90B1D20121002001F08F
:100DB00029F80021012001F025F8F0E00021084683
:100DC00001F020F80121084601F01CF8E7E00021BD
:100DD000084601F017F80021012001F013F8012165
:100DE000022001F00FF80021032001F00BF8D6E0FB
:100DF0000021084601F006F80021012001F002F868
:100E00000021022000F0FEFF0121032000F0FAFF84
:100E1000C5E00121002000F0F5FF0121084600F0A7
:100E2000F1FF0121022000F0EDFF0121032000F07D
:100E3000E9FF0121082000F0E5FF0121092000F071
:100E4000E1FF01210A2000F0DDFF01210B2000F06D
:100E5000D9FF0121042000F0D5FF0121052000F079
:100E6000D1FF0121062000F0CDFF0121072000F075
:100E7000C9FF94E00021084600F0C4FF00210120D2
:100E800000F0C0FF0021022000F0BCFF0021032081
:100E900000F0B8FF83E00021082000F0B3FF00213C
:100EA000092000F0AFFF00210A2000F0ABFF002175
:100EB0000B2000F0A7FF72E00021084600F0A2FF1F
:100EC0000021012000F09EFF0021022000F09AFF87
:100ED0000021032000F096FF0021082000F092FF7F
:100EE0000021092000F08EFF00210A2000F08AFF77
:100EF00000210B2000F086FF51E00021084600F0A1
:100F000081FF0021012000F07DFF0021022000F080
:100F100079FF0021032000F075FF0021082000F078
:100F200071FF0021092000F06DFF00210A2000F070
:100F300069FF00210B2000F065FF30E0002108462A
:100F400000F060FF0021012000F05CFF0021022082
:100F500000F058FF0021032000F054FF002108207A
:100F600000F050FF0021092000F04CFF00210A2072
:100F700000F048FF00210B2000F044FF0021042076
:100F800000F040FF0021052000F03CFF002106207A
:100F900000F038FF0021072000F034FF00BF00BF41
:100FA00010BD000010B50446052C2AD2DFE804F07D
:100FB000030A111E28000F20FFF7E8FE152000F09D
:100FC000E3FE1EE01020FFF7E1FE162000F0DCFE3D
:100FD00017E001200C4908700E20FFF7D7FE022011
:100FE000FFF7D4FE012000F0CFFE0AE00E20FFF74D
:100FF000CDFE0320FFF7CAFE182000F0C5FE00E07A
:1010000000BF00BF10BD0000BB02002010B50146AC
:10101000002000BF10E000EB8002094B03EB8202CE
:10102000527B3AB100EB8003054C04EB830319813A
:10103000044B1981421CD0B20428ECDB10BD000027
:10104000E80200203803002070B504460025012C7A
:1010500000DA0124052C2BDA601E00EB80006A49BF
:1010600001EB8000007B18B3601E00EB800001EBF9
:101070008000007B012803D1192000F085FE0BE0E1
:10108000601E00EB8000604901EB8000007B0228BD
:1010900002D11F2000F078FE00205B494873002138
:1010A000594880F8211080F8351080F8491070BD3B
:1010B000062C7DD2DFE804F09803172C425701205C
:1010C000514948730021504880F8211080F83510AC
:1010D00080F8491001204D49887104F10F01C8B210
:1010E00000F052FE8CE00020474948730121464839
:1010F00080F82110002180F8351080F84910022076
:101100004249887104F10F01C8B200F03DFE77E05A
:1011100000203D49487300213B4880F821100121FF
:1011200080F83510002180F8491003203749887174
:1011300004F10F01C8B200F027FE61E0002032493F
:1011400048730021304880F8211080F835100121C3
:1011500080F8491004202D49887104F10F01C8B2AC
:1011600000F012FE4CE0002530E005EB850026493A
:1011700001EB8000007B38B9012005EB8501224A94
:1011800002EB8101487306E0002005EB85011E4A51
:1011900002EB8101487305EB85001B4901EB8000E0
:1011A000007B022810D11F2000F0EEFD002000E09F
:1011B0001AE0154948730021134880F8211080F87F
:1011C000351080F8491072E7681CC5B2042DCCDBDD
:1011D00001F062F80F2803D1192000F0D5FD02E0DC
:1011E000142000F0D1FD0BE00020074948730021D6
:1011F000054880F8211080F8351080F8491000BFAC
:1012000000BF00BF53E70000E802002038030020C1
:1012100010B5002400BF11E00A4800EB840080787C
:10122000012809D10020074901EB840188700022C0
:1012300011462046FEF7ECFF601CC4B2042CEBDB29
:1012400010BD00009203002010B501F051F800B16C
:1012500010BDF7480078C0F34010C0B1F5480078E1
:10126000012809D00120F349087001F09BF8F148EA
:101270000078FFF797FE08E00020EE49087001F0C3
:1012800091F8EC480078FFF78DFE01F045F8E94849
:10129000007805286FD2DFE800F00387F7F6F50045
:1012A000E3480078C00910B101F036F87BE0E0486F
:1012B0000078C0F38010B8B101F02EF8DE48007855
:1012C000401CDD49087008460078052801DD012032
:1012D0000870D9480078FFF7B7FE0D20FFF756FDDC
:1012E0000E20FFF753FD5EE0D148007800F00100CA
:1012F00090B101F011F800F0E5FF002853D0CE487E
:10130000007805284FDA01F05FF8044600F0B4FCDD
:101310000020FFF73BFD46E0C5480078C0F34000E1
:1013200088B100F0F9FF00F0CDFF18B3C248007893
:10133000052838DA01F048F8044600F09DFC00204A
:10134000FFF724FD2FE0BA480078C0F3800098B181
:1013500000F0E2FF00F0B6FF60B1B7480078052862
:1013600021DA01F049F884B2204601F097F8012013
:10137000FFF70CFD17E00AE2AD480078C0F3C000AB
:1013800088B100F0C9FF00F09DFF60B1AA48007865
:10139000052808DA01F030F884B2204601F07EF822
:1013A0000120FFF7F3FCF3E2A1480078C0F300103E
:1013B00068B3A2480078401CA0490870084600782D
:1013C000282801DB00F0A8FF99480078C0F38000CE
:1013D00058B100F0A1FF00F0E5FF02209549087028
:1013E00008460078FFF7DEFDD1E191480078C0F3B0
:1013F000C0000028F8D000F08FFF00F0D3FF0320DA
:101400008C49087008460078FFF7CCFDBFE188489A
:101410000078C0F38010B8B100F07EFF88480078F3
:10142000401C8749087008460078042801DD012027
:10143000087083480078FFF707FE0D20FFF7A6FC31
:101440000E20FFF7A3FCA2E17948007800F001002C
:1014500078B300F037FF0028C6D07A480078401CE7
:101460007849087078480078C00918B108460078B3
:101470000F28B9DB74480078C00930B900207149E1
:10148000087005E01AE218E282E10A206D4908704E
:1014900000F09AFF6D4908706B480078C00948B1A8
:1014A000084600785A280EDA084600780A30087094
:1014B00009E01CE065480078642804DA6348007895
:1014C000401C6249087062498979491EC8B25F4967
:1014D000097800F047FE5D48007800F0CDFB5A48DF
:1014E000007820F080008030574908704FE1504864
:1014F0000078C0F3400078B300F0E4FE002885D007
:1015000054480078401C534908705348007800F054
:10151000010018B1084600780F2894DB4E48007887
:1015200000F0010018B900204A49087002E00A20C2
:101530004849087000F048FF444908704648007860
:1015400000F0010048B1084600780A280DDD084681
:1015500000780A38087008E01BE03C48007820B1A9
:101560003A480078401E3949087039498979491E3E
:10157000C8B23649097800F0F5FD3448007800F02B
:101580007BFB3548007820F00100401C3249087090
:10159000FDE027480078C0F38000002879D000F0F3
:1015A00091FE0028A2D02D480078401C2B490870DD
:1015B00029480078C0F3400018B1084600780F2889
:1015C00094DB25480078C0F3400018B90020234977
:1015D000087002E00A202149087000F00DFF204940
:1015E00008801D480078C0F34000D8B30846008842
:1015F00040F2E731884203D1401C1949088054E089
:101600001748008840F2E731884205DA144800881C
:101610000A301349088048E01148008842F2A2616C
:10162000884242DA0E48008864300D4908803CE068
:101630000A000020B90200201F000020BA0200208A
:10164000AC020020C002002006000020AA020020F8
:1016500038030020C102002007000020C202002041
:10166000AE020020FFE7CC48008840F2E731884214
:1016700003D1401CC849088017E0C748008840F2E1
:10168000E731884206DAC4480088401CC249088015
:101690000BE01AE0C048008842F20671884204DA82
:1016A000BD4800880A30BC490880BB480088FFF765
:1016B000ADFCB948008800F0F1FEB848007820F091
:1016C0000200801CB549087061E0B5480078C0F39D
:1016D000C00078B300F0F6FD60B3B2480078401C5B
:1016E000B0490870AD480078C0F3800018B10846D2
:1016F00000780F284BDBA9480078C0F3800018B9A8
:101700000020A849087002E00A20A649087000F0ED
:1017100073FEA1490880A1480078C0F38000A0B101
:1017200008460088B0F57A7F05DB084600886438F3
:1017300008801DE02BE0984800880A2818DD9648AC
:1017400000880A389449088012E093480088B0F570
:101750007A7F05DD904800880A388F49088007E0C5
:101760008D48008820B18C480088401E8A49088036
:1017700089480088FFF74AFC8748008800F08EFE01
:101780008648007820F00400001D84490870FFE0BE
:101790008348007800287CD083480078401C824928
:1017A00008700846007802281DDB002008707C487D
:1017B0000078C0F38000B8B179480078C0F3C00069
:1017C00090B17A480078401C784908700846007843
:1017D0004B2871DB0020087000221146C820FEF75C
:1017E000DFFC00F099FD67E06D480078C0F38000F1
:1017F00098B100F091FD6E480078401C6C4908706B
:1018000008460078062801DD01200870002268489B
:101810000178104600F072FF4EE061480078C0F396
:10182000C000B0B100F078FD6148007820B1604898
:101830000078401E5E4908705D48007810B90620A7
:101840005B49087000225A480178104600F056FFA4
:1018500032E053480078C0F3001048B35548007890
:10186000401C5449087008460078022809DA52489A
:1018700002784F480178012000F040FF04204F49D2
:1018800008704C480078252816DB0020494908706C
:1018900000E00EE000F040FD00221146C820FEF7F7
:1018A0007FFC01204549087008460078FFF77AFB65
:1018B00002E000203C4908706AE069E0384800789E
:1018C00000F0010000B300F027FD39480078062839
:1018D00009D139480078022805DA37480078401CD9
:1018E0003549087008E034480078012804DA3248A5
:1018F0000078401C304908702F4802782C48017845
:10190000012000F0FBFE42E025480078C0F34000D3
:1019100088B100F001FD2848007820B12648007801
:10192000401E25490870244802782148017801208A
:1019300000F0E4FE2BE01A480078C0F3001030B34A
:101940001C480078401C1B49087008460078022893
:1019500008DA002216480178104600F0CFFE022077
:101960001649087013480078962810DB00201149AA
:10197000087000F0D1FC00221146C820FEF710FCD0
:1019800001200E49087008460078FFF70BFB00BFE6
:1019900000BF00BF5CE40000AE0200200700002092
:1019A0000A000020C3020020BE020020BC0200206A
:1019B000BB020020BF020020BD020020B9020020AF
:1019C00070B50024002517E064104FF400600C4946
:1019D0004861022000F0B6F809488068C0F3802012
:1019E00008B144F080044FF400600549086102200A
:1019F00000F0A8F8681CC5B2082DE5DB204670BDD4
:101A00000010014010B500F043FF10BD10B51348A1
:101A1000006840F00100114908600846406810491C
:101A200008400E494860084600680E4908400B49C6
:101A300008600846006820F4802008600846406876
:101A400020F4FE0048604FF41F008860FFF7DAFFC3
:101A50004FF000600449086010BD00000010024013
:101A60000000FFF8FFFFF6FE08ED00E010B51F488C
:101A7000006800F00100002837D04FF6FE701B49C7
:101A800008601B48008820B119480088401E18498A
:101A900008801848008820B116480088401E154963
:101AA00008801548008820B113480088401E12495C
:101AB000088012480078C0F3801038B110480078D0
:101AC00020B10F480078401E0D4908700D4800886D
:101AD000401C0C49088008460088642803DB00206D
:101AE000088000F0A1FC00F089FB10BD100400404C
:101AF000000000200400002012000020060000204A
:101B00001D0000200200002010B5402000F094FAD3
:101B10004FF480500A494861C02000F063FA002465
:101B200004E0002000F05EFA601CC4B2102CF8DB68
:101B30004FF4805002490861012000F003F810BD05
:101B40000010014008B50BE00021009104E0BDF851
:101B50000010491C89B20091BDF800105029F6DB35
:101B6000011EA0F1010290B2EED108BD2DE9F05F97
:101B700006460C461746012F00DD0127022E01DD27
:101B8000BDE8F09F302C05DB392C03DCA4F13000DC
:101B9000C5B214E0412C05DB462C03DCA4F1370070
:101BA000C5B20CE0612C05DB662C03DCA4F1570008
:101BB000C5B204E02D2C01D1102500E011251648F6
:101BC000405D40EAC71000F0FF0870064FEA106958
:101BD00008F00F0A4FEA181B402000F02DFA4FF4CE
:101BE00080500E4948610A20FFF7ACFF49F0C00061
:101BF00000F0F8F9504600F0F5F9584600F0F2F917
:101C00000A20FFF79FFF4FF48050044908610A2023
:101C1000FFF798FF00BFB3E7542D00080010014004
:101C20002DE9F04105460C466806060E04F00F0744
:101C30004FEA1418402000F0FFF94FF480500D498E
:101C400048610A20FFF77EFF46F0C00000F0CAF9A5
:101C5000384600F0C7F9404600F0C4F90A20FFF703
:101C600071FF4FF48050034908610A20FFF76AFFB3
:101C7000BDE8F081001001402DE9F0410446B4F5C3
:101C80007A7F01DB40F2E734642094FBF0F0C6B2C7
:101C90000A2094FBF0F00A2190FBF1F201FB120004
:101CA000C5B20A2094FBF0F100FB1140C7B27EB927
:101CB00000210846FFF7B4FF25B900210120FFF7F6
:101CC000AFFF0FE00B48415D0120FFF7A9FF09E0DE
:101CD0000848815D0020FFF7A3FF0648415D012011
:101CE000FFF79EFF0348C15D0220FFF799FFBDE8A3
:101CF000F0810000542D000813B59DF8000009285C
:101D000005DD002220211046FFF730FF0CE09DF892
:101D100000003030C0B28DF800009DF801209DF821
:101D200000100020FFF722FF9DF80200092805DDC2
:101D3000002220210120FFF719FF0CE09DF802008E
:101D40003030C0B28DF802009DF803209DF80210DB
:101D50000120FFF70BFF9DF80400092805DD002294
:101D600020210220FFF702FF0CE09DF80400303034
:101D7000C0B28DF804009DF805209DF804100220E3
:101D8000FFF7F4FE1CBD00002DE9F04705460026D4
:101D90000024212D01DBBDE8F08700242AE005EBBB
:101DA000450016490844065D6006070E06F00F0858
:101DB0004FEA1619402000F03FF94FF480501049C7
:101DC00048610A20FFF7BEFE47F0C00000F00AF9A4
:101DD000404600F007F9484600F004F90A20FFF7F2
:101DE000B1FE4FF48050064908610A20FFF7AAFEB1
:101DF000601CC4B2032CD2DB00BFCCE7662D000808
:101E0000001001402DE9F04104460D460026002750
:101E10003DB10120A04014490988084312490880B7
:101E200006E00120A0401049098881430E48018046
:101E3000042C05DA06260C48007800F00F070CE0A9
:101E4000082C05DA082608480078C0F3031704E0D8
:101E50000A2605480088C0F303273946304600F0BB
:101E60000BF9BDE8F0810000A402002070B54FF42A
:101E700080505A4948610220FFF764FE422000F07A
:101E8000B1F80220FFF75EFE00BF0822D1015348DF
:101E900000F090FB00BF0520FFF754FEFFF790FD18
:101EA0000546FFF78DFD04464FF480504B4908610D
:101EB0000A20FFF747FE00BF43224FF480614748E6
:101EC00000F078FB00BF05F0040038B1444800780A
:101ED00020F00100401C4249087005E040480078AD
:101EE00020F001003E49087004F0400038B13C4841
:101EF000007820F00200801C3949087005E038485D
:101F0000007820F002003649087005F0400038B132
:101F10003348007820F00400001D3149087005E0C6
:101F20002F48007820F004002D49087004F00400C8
:101F300038B12B48007820F0080008302849087094
:101F400005E02748007820F008002549087004F0D3
:101F5000080038B12248007820F0100010302049E5
:101F6000087005E01E48007820F010001C49087039
:101F700005F0080038B11A48007820F02000203021
:101F80001749087005E01648007820F02000144931
:101F9000087005F0800038B11148007820F040004A
:101FA00040300F49087005E00D48007820F04000EF
:101FB0000B49087004F0800038B10948007820F01F
:101FC000800080300649087005E00548007820F060
:101FD0008000034908700248007870BD001001407D
:101FE0000800002070B5044600251FE04FF4006093
:101FF000104948610120FFF7A5FD04F0010020B160
:102000004FF480600B49086103E04FF48060094998
:10201000486164100120FFF795FD4FF40060054909
:1020200008610220FFF78EFD681CC5B2082DDDDBBC
:1020300070BD00000010014010B504464FF4805000
:10204000074948610220FFF77DFD2046FFF7CAFFE0
:102050004FF48050024908610220FFF773FD10BD64
:102060000010014010B50446072C00DD072444F0A1
:102070008800FFF7E1FF10BD70B504460D4644200F
:10208000FFF7DAFF4FF480500949486104F00F016F
:1020900041F0C000FFF7A6FF2846FFF7A3FF4FF46B
:1020A0008050034908610120FFF74CFD70BD00001E
:1020B0000010014026480068C0F34010002845D0B9
:1020C0002348001D00682349087008460078282826
:1020D00005D021480078C0F3C000002836D01E4843
:1020E000007820F0080008301B4908701948017872
:1020F0001A4802780078401C184B18701848815410
:1021000018460078092806DC18460078401E144955
:10211000085C29281AD11248407852280AD1104860
:102120008078292806D10C48007820F00200801C15
:102130000949087000200949087009498870087029
:102140000548007820F00800034908707047000037
:10215000003801409702002006000020960200206F
:10216000A2030020642900DD642101B901210428B3
:1021700000DD7047042826D11C4A9172917782F8BD
:10218000321082F846104A1E194B33F812205200C2
:10219000184B1A604A1E164B33F812205300154A8A
:1021A000343A93634A1E124B33F812205300114AFB
:1021B000343AD3634A1E0E4B33F8122053000D4AB3
:1021C000343A13640FE000EB8002084B03EB820209
:1021D00091724A1E064B33F812205300054A42F80A
:1021E0002030054A917200BFC3E70000E8020020DA
:1021F0003A000020342C01403803002010B51B4861
:10220000008828B119480088401E1849088007E056
:102210001748008820B116480088401E14490880DD
:102220001248008878B11348007800F0010050B9D6
:102230001048007820F00100401C0E490870012071
:10224000FDF7C0FF10E00948008868B90948007828
:1022500000F0010040B10748007820F00100054976
:1022600008700020FDF7AEFF10BD00000C0000203C
:102270000E0000200600002002E008C8121F08C15E
:10228000002AFAD170477047002001E001C1121FF7
:10229000002AFBD170470000002009490A7B91F811
:1022A000201042EA4102064991F8341042EA8102C4
:1022B000034991F8481042EAC101C8B270470000D2
:1022C000E8020020002009494A7B91F8211042EAE7
:1022D0004102064991F8351042EA8102034991F81A
:1022E000491042EAC101C8B270470000E80200206C
:1022F00000200849CA7AC97F42EA4102054991F89B
:10230000331042EA8102034991F8471042EAC101C1
:10231000C8B27047E802002000201749087017492A
:10232000087017490870174908701749087017494D
:1023300008701748007820F08000154908700020C8
:10234000144908701448007820F001001249087000
:102350000020124908701048007820F002000E4951
:10236000087000200E4908700B48007820F0040027
:1023700009490870704700000A000020BA020020D6
:10238000BC020020BE020020BF020020C0020020CC
:1023900006000020C102002007000020C202002029
:1023A000C3020020002000BF08E0002100EB8002F3
:1023B000044B03EB82025173411CC8B20428F4DBC6
:1023C00070470000E8020020002100BF0EE001EB92
:1023D0008100084A02EB8000407B28B101EB8100BC
:1023E00002EB8000807A7047481CC1B20429EEDB02
:1023F0000020F8E7E8020020002100BF0EE001EB1A
:102400008100084A02EB8000407B28B101EB81008B
:1024100002EB800000897047481CC1B20429EEDB42
:102420000020F8E7E802002010B5002400BF2DE0EE
:10243000184830F8240038B304EB8400164901EB47
:102440008000C07A00B3134830F82400401E1149C0
:1024500021F82400084630F82400A8B9002004EB35
:1024600084010D4A02EB8101C8720120094901EB88
:102470008401887000220121204600F08BFB00229D
:102480001146C820FDF78CFE601CC4B2042CCFDBC3
:1024900010BD000092030020E80200201CB5044695
:1024A0004CB96320424908700020487088700120B0
:1024B000C8700C7170E0092C09DC63203C4908707D
:1024C0000020487088700120C8700C7164E0632C93
:1024D00012DC632036490870002048700A2094FB03
:1024E000F0F088700120C8700A2094FBF0F100FB26
:1024F00011402F4908714FE0B4F57A7F25DA642046
:1025000094FBF0F02A4908700020487008460078D3
:1025100000EBC00101EB0010A4EB800084B20A20A4
:1025200094FBF0F0224988700120C870084680783A
:1025300000EB8000A4EB400084B20A2094FBF0F191
:1025400000FB11401A49087126E042F20F708442E4
:1025500022DC0A2094FBF0F084B2642094FBF0F0BB
:1025600013490870002048700846007800EBC0014D
:1025700001EB0010A4EB800084B20A2094FBF0F081
:102580000B4988700020C8700846807800EB8000F6
:10259000A4EB400084B20C7105480168009180886A
:1025A000ADF80400DDE90001FFF7A6FB1CBD00004B
:1025B00020000020F0B503460D4600210020002435
:1025C000EEB246B3196800BF22E0012686402E40D5
:1025D000EEB1840002F0400696B90F26A640B14342
:1025E00002F00F06A6403143182A03D10126864087
:1025F0005E610CE0082A0AD1012686401E6106E0D1
:102600000F26A640B14302F00F06A6403143401CFE
:102610000828DAD3196005F47F4676B3596800209C
:1026200028E000F10806012707FA06F62E4006B357
:10263000840002F04006AEB90F26A640B14302F076
:102640000F06A6403143182A04D100F10806B7400E
:102650005F610EE0082A0CD100F108060127B7409F
:102660001F6106E00F26A640B14302F00F06A64008
:102670003143401C0828D4D35960F0BD29B1064A23
:1026800052680243044B5A6004E0034A5268824392
:10269000014B5A607047000000000140FDF7FAFE50
:1026A000FDF778FFFEF7A4F8012011498870002299
:1026B0001146C820FDF774FDFDF73EFFFEF7E4F874
:1026C00015E00C48008830B914200A490880FFF74B
:1026D000CDFBFEF731FA0848008810B932200649D0
:1026E000088000F08DFAFEF793FD00F0ABFAE8E702
:1026F00017000020040000201200002070B50546DD
:102700000E461446072E18D2DFE806F08504182C72
:10271000405468001DB90120FFF736FB0DE034B9C5
:102720000720FFF731FB00203C49087005E0082036
:10273000FFF72AFB0120394908706CE01DB902201F
:10274000FFF722FB0DE034B90920FFF71DFB002045
:102750003249487005E00A20FFF716FB01202F4997
:10276000487058E01DB90320FFF70EFB0DE034B9A7
:102770000C20FFF709FB00202849887005E00B209A
:10278000FFF702FB01202549887044E01DB90420B1
:10279000FFF7FAFA0DE034B90C20FFF7F5FA002044
:1027A0001E49C87005E00B20FFF7EEFA01201B4917
:1027B000C87030E01DB90520FFF7E6FA0DE034B926
:1027C0000C20FFF7E1FA00201449087105E00B2006
:1027D000FFF7DAFA0120114908711CE01DB9062043
:1027E000FFF7D2FA16E034B90D20FFF7CDFA00203A
:1027F0000A4948710EE0012C06D10E20FFF7C4FAF9
:1028000001200649487105E00F20FFF7BDFA0220BC
:102810000249487100BF00BF70BD000017000020D2
:1028200070B5002100230F22C47804B3154C24682E
:1028300004F4E064C4F5E064210AC1F10403CA4071
:10284000447804FA03F184781440214309010E4CC2
:102850000678A155047804F01F050124AC400578E2
:102860006D11AD0005F1E025C5F8004109E00478DF
:1028700004F01F050124AC40044D0678761145F89C
:10288000264070BD0CED00E000E400E080E100E0D7
:102890000CB50020019000903348006840F480306F
:1028A0003149086000BF3048006800F400300090F3
:1028B0000198401C0190009818B90198B0F5A04FFC
:1028C000F1D12948006800F4003010B101200090D7
:1028D00001E0002000900098012843D123480068BF
:1028E00040F01000214908600846006820F0070009
:1028F00008600846006840F0020008601A48406816
:10290000194948600846406848600846406840F4F5
:10291000806048600846406820F47C1048600846A3
:10292000406840F4E81048600846006840F0807055
:10293000086000BF0C48006800F000700028F9D063
:102940000948406820F0030007494860084640688D
:1029500040F00200486000BF0348406800F00C00EF
:102960000828F9D10CBD00000010024000200240F0
:10297000026822F070024B881A430260026822F457
:1029800040720B881A4302608A88C262CA888262D7
:10299000054A904202D0054A904201D10A89026359
:1029A0000122426170470000002C014000340140C8
:1029B00030B5002301248C40A3B2046ADD43ADB2DC
:1029C0002C400462046A02FA01F5ADB22C430462A1
:1029D00030BD000030B50A4600211178036A8D0031
:1029E0000124AC40A34303624C1000F1180353F8D8
:1029F0002430CC07250F7324AC40A3435488CD0763
:102A00002D0FAC4023434D1000F1180444F825303D
:102A1000036A8D000324AC40A343548995882C435A
:102A20008D00AC4023430362124B984202D0124BFC
:102A3000984218D1036A8D000C24AC40A3439489BA
:102A4000D5882C438D00AC402343036243684D007E
:102A50004FF44074AC40A343D489158A2C434D00F5
:102A6000AC4023434360148900F1340343F8214010
:102A700030BD0000002C0140003401403B49884239
:102A80000BD13B49C96841F40061394AD160114614
:102A9000C96821F40061D16067E0B0F1804F0BD1CB
:102AA0003349096941F00101314A1161114609694F
:102AB00021F00101116158E02E4988420BD12C49C7
:102AC000096941F002012A4A11611146096921F0A0
:102AD0000201116149E0284988420BD12449096962
:102AE00041F00401224A11611146096921F00401F3
:102AF00011613AE0214988420BD11D49096941F031
:102B000008011B4A11611146096921F00801116190
:102B10002BE01B4988420BD11549096941F010018E
:102B2000134A11611146096921F0100111611CE07D
:102B3000144988420BD10E49096941F020010C4A21
:102B400011611146096921F0200111610DE00E4962
:102B500088420AD10649C96841F40051044AD1604B
:102B60001146C96821F40051D1607047002C014022
:102B7000001002400004004000080040000C00402B
:102B800000100040001400400034014081624261A6
:102B90007047000070B504460D461646032C00DD54
:102BA00070BD3DB9134830F814104B221248FFF79E
:102BB00001FD1CE004EB8400104901EB8000407B28
:102BC000012814D10B4830F8141043220A48FFF7AB
:102BD000F1FC36B9074830F8140007491431086091
:102BE00005E0044830F8140003491031086000BFC4
:102BF000D6E700003200002000080140E802002073
:102C000010B50D480078C0F38000A0B10A480078E4
:102C100020F004000849087008480088B0F5C86F23
:102C200009DC43224FF400510548FFF7C3FC4FF481
:102C300000500349486110BD060000209A020020A0
:102C40000010014070B50024002500BF6EE004EBC9
:102C50008400384901EB8000807C02282FD136485F
:102C60000078C0F3001050BB3348007820F010000B
:102C70001030314908700CB940F29A25012C01D16D
:102C800040F20935022C01D14FF45E75032C01D1BD
:102C900040F2E7352846FEF7EFFF0020274921F8EC
:102CA000240001EB8401887004EB8400214A02EBCC
:102CB0008000817C01222046FDF7AAFA34E004EB73
:102CC00084001C4901EB8000807C01282CD11A482B
:102CD0000078C0F3401038BB1748007820F020007F
:102CE00020301549087004B96F25012C00D1DE256C
:102CF000022C01D140F24D15032C01D14FF4DE75A9
:102D00002846FEF7B9FF00200C4921F8240001EB0A
:102D10008401887004EB8400064A02EB8000817C09
:102D200001222046FDF774FA601CC4B2042C8EDB2D
:102D300070BD0000E8020020060000209203002081
:102D40000349088000BF024909880029FBD1704768
:102D5000000000203F065B4F666D7D077F6F777C2C
:102D6000395E79714000FFFFFF7904547350047C91
:102D70001C505C7338663E745B4F5B38793E731C45
:102D8000387804546D043D005C545C7171006F7DB3
:102D9000066F5B4F7F6639760639765B39764F3939
:102DA0007666773838501C546C7978377954745C6F
:102DB0001C4040403E79D0795C0671795B385E06F4
:102DC000385E5B385E4F385E66000000EC2D000810
:102DD00000000020D002000048010008AC2F0008CD
:102DE000D0020020E804000088220008011202142A
:102DF000329A010A120112021204130807120E126B
:102E000016121D12241A2B34123A12411248124F74
:102E10001256125E1265126C1273127A12821289A5
:102E200012901297129E12A612AD12B412BB12C2C9
:102E300012CA12D112D812DF12E612EE12F512FCEB
:102E4000208303010A0112011901200127012E012B
:102E500036013D0144014B0152015A0161016801F3
:102E60006F0176017E0185018C0193019A01A20117
:102E7000A901B001B701BE01C601CD01D401DB013A
:102E8000E201EA01F101F801FF0106020E0215025A
:102E90001C0223022A0232023902400247024E0279
:102EA00056025D0264026B0272027A02810288029B
:102EB0008F0296029E02A502AC02B302BA02C202BF
:102EC000C902D0021A90A01AB49C1AD09801BA1262
:102ED0000A1213121D12261230123A1243124D1208
:102EE000561260126A1273127D1A86E2129A12A3A7
:102EF00012AD12B612C012CA12D312DD12E612F0CF
:102F000012FA106B03010D01160120012A01330191
:102F10003D01460150015A0163016D0176018001B6
:102F20008A0193019D01A601B001BA01C301CD013F
:102F3000D601E001EA01F301FD01060210021A02C6
:102F400023022D02360240024A0253025D0266024B
:102F500070027A0283028D029602A002AA02B302D4
:102F6000BD02C602D002DA02E302ED02F602A02A96
:102F7000030A0313031D03260330033A0343034DDF
:102F800003560360036A0373037D03860390039A69
:102F900003A303AD03B603C003052501020D0B20F7
:0C2FA0000A010203050A0F14326400004D
:04000005080000ED02
:00000001FF
