:020000040800F2
:10000000A006002001010008090100080B010008FA
:100010000D0100080F010008110100080000000098
:1000200000000000000000000000000013010008B4
:100030001501000800000000170100081901000860
:100040001B0100081B0100081B0100081B01000820
:100050001B0100081B0100081B0100081B01000810
:100060001B0100081B0100081B0100081B01000800
:100070001B0100081B0100081B0100081B010008F0
:100080001B0100081B010008A10100081B0100085A
:100090001B0100081B0100081B0100081B010008D0
:1000A0001B0100081B0100081B0100081B010008C0
:1000B0001B010008810E00081B0100081B0100083D
:1000C0001B0100081B0100081B0100081B010008A0
:1000D0001B010008A51300081B0100081B010008F4
:1000E0001B0100081B0100081B010008DFF80CD0F1
:1000F00000F018F800480047451A0008A006002044
:100100000648804706480047FEE7FEE7FEE7FEE7B1
:10011000FEE7FEE7FEE7FEE7FEE7FEE7210E00084A
:10012000ED000008064C074D06E0E06840F00103D2
:1001300094E8070098471034AC42F6D3FFF7DAFF93
:100140000C2000082C20000870B58C1810F8015BFA
:1001500015F0070301D110F8013B2A1106D110F860
:10016000012B03E010F8016B01F8016B5B1EF9D164
:100170002B0705D40023521E0DD401F8013BFAE7EA
:1001800010F8013BCB1A921C03E013F8015B01F855
:10019000015B521EF9D5A142D8D3002070BD0000EA
:1001A0006FF0010001490860704700000024014021
:1001B000034B1880034B1980034B1A7070470000E3
:1001C0000A0000200C0000200E00002010B504469C
:1001D000012C02D100F080FA1BE000220221480726
:1001E00001F032FD4FF08040406C20F400404FF0B1
:1001F000804148640846006820F0010008604322FE
:100200000915044801F0AAFB4FF480600149103140
:10021000086010BD000C014070B506460C4615463E
:1002200036B1012E17D0022E28D0032E4CD138E043
:1002300044B92946082000F05DFF0021042000F0A9
:1002400059FF07E02946042000F054FF0021082050
:1002500000F050FF59E044B92946092000F04AFF58
:100260000021052000F046FF07E02946052000F0A8
:1002700041FF0021092000F03DFF46E044B9294636
:100280000A2000F037FF0021062000F033FF07E0CE
:100290002946062000F02EFF00210A2000F02AFF48
:1002A00033E044B929460B2000F024FF0021072049
:1002B00000F020FF07E02946072000F01BFF002187
:1002C0000B2000F017FF20E00021082000F012FFB3
:1002D0000021042000F00EFF0021092000F00AFF99
:1002E0000021052000F006FF00210A2000F002FF97
:1002F0000021062000F0FEFE00210B2000F0FAFE97
:100300000021072000F0F6FE00BF00BF70BD000016
:100310000B48407B01280ED0094890F821000128A5
:1003200009D0074890F83500012804D0044890F817
:100330004900012801D1012070470020FCE700009E
:10034000F401002000B587B001F098F955488069A4
:1003500040F00400534988610846806940F010006D
:10036000886100220121504801F0F8FA00220221A0
:100370004D4801F0F3FA002204214B4801F0EEFA57
:1003800000220221494801F0E9FA002208214748E9
:1003900001F0E4FA4348806940F400704149886103
:1003A0004FF4004001F0B6FB00BF3E48C06840F487
:1003B00000703C49C8600846C06820F40070C860FE
:1003C00000BF00200190881502904FF46020039038
:1003D00000200490022005900520069001A93448D1
:1003E00001F0C8F9012305220021314801F0E2F9AA
:1003F00030480178022305222D4801F0DBF92D4811
:100400004178032305222A4801F0D4F9294881784C
:1004100004230522264801F0CDF92648C17805239A
:100420001A46234801F0C6F921480830006840F414
:1004300080701F49083108601F48806840F0010043
:100440001D4988601A480830006840F001001849CA
:10045000083108600846006840F00800086000BFE6
:10046000134808300068C0F3C0000028F8D11048D5
:100470000830006840F004000D490831086000BFF2
:100480000B4808300068C0F380000028F8D1084805
:100490000830006840F4A00005490831086007B042
:1004A00000BD0000001002400008014000100140A3
:1004B00000240140B6010020000002400548806988
:1004C00040F00800034988610846806940F0100048
:1004D000886170470010024010B51448806940F0F0
:1004E00010001249886143228914114801F036FA3C
:1004F00043224FF400610E4801F030FA43224FF4DA
:1005000080610B4801F02AFA4FF4805008490861D5
:1005100040100861401008610A2000F02DFD00F035
:100520000DFD052000F016FF10BD00000010024078
:100530000010014010B588B00446614801F0EAFBA4
:10054000604890FBF4F0604908806048806940F0A2
:1005500004005E4988610846806940F40060886153
:100560000846806940F0010088614B22891558488F
:1005700001F0F4F94B224FF40071554801F0EEF907
:100580004B224FF48061524801F0E8F94B224FF4BE
:1005900000614F4801F0E2F94B480088ADF81800BF
:1005A0000020ADF81A00ADF81400ADF81600ADF853
:1005B0001C0005A9424801F027FB6020ADF80200AD
:1005C0000120ADF804000020ADF80600ADF80A00E7
:1005D0000820ADF80C000020ADF80E00ADF81000BA
:1005E0008DF80000ADF808006946354801F03EFB83
:1005F00001208DF800000020ADF808006946304861
:1006000001F034FB02208DF800000020ADF8080056
:1006100069462B4801F02AFB03208DF800000020DA
:10062000ADF808006946264801F020FB2448006820
:1006300040F001002249086021484430006840F43D
:1006400000401F4944310860002211461C4801F057
:10065000FBFA002201211A4801F0F6FA00220221D9
:10066000174801F0F1FA00220321154801F0ECFAD5
:10067000184801884322164801F070F9154841884E
:100680004322134801F06AF9124881884322104836
:1006900001F064F90F48C18843220D4801F05EF96A
:1006A0000C4800880A49143108600A4840880860EC
:1006B0000848808808600748C088086008B010BDF6
:1006C000002C014040190100AE0100200010024042
:1006D000000801401400002000B589B02C48806952
:1006E00040F008002A4988610846C06940F00100CE
:1006F000C8614B220915274801F030F90121480251
:1007000001F090F947F22F50ADF81C000020ADF831
:100710001E00ADF81800ADF81A00ADF8200006A9CB
:100720004FF0804001F070FA6020ADF80600012023
:10073000ADF808000020ADF80A00ADF80E00082062
:10074000ADF810004001ADF812000020ADF8140023
:1007500002208DF8040043F69820ADF80C0001A9A2
:100760004FF0804001F082FA4FF08040006840F086
:1007700001004FF0804108600846406C40F40040A2
:10078000486401220221480701F05EFA09B000BD69
:1007900000100240000C01401FB51B48C06940F02A
:1007A00002001949C86140F2E730ADF808000020A6
:1007B000ADF80A00ADF80400ADF8060001A9134831
:1007C00001F022FA01224721104801F02BFB1D20E5
:1007D0008DF8000001208DF803008DF80100002045
:1007E0008DF80200684601F05DF908480C30006899
:1007F00040F0010005490C3108600448006840F0F1
:100800000100024908601FBD0010024000040040C2
:10081000012006498871022104488176032180F86D
:100820002E10042180F8421070470000F4010020CF
:1008300010B51E480078C0F3800038B31C4800781B
:10084000C0F3800010BB1B480078401C1949087099
:1008500008460078022827DD002008701448007838
:1008600020F00400001D12490870FFF751FDD8B9AF
:1008700011480088401C104908800021084600F0FB
:1008800039FC0121084600F035FC0DE00020094943
:10089000087006480078C0F3800028B90448007842
:1008A00020F004000249087010BD0000070000207D
:1008B00008000020CD0100201200002010B52248C1
:1008C0000078C0F3801078B320480078C0F380101F
:1008D00050BB1F480078401C1D490870084600782E
:1008E000022830DD002008701848007820F0400011
:1008F000403016490870FFF70BFD20BB1548007803
:10090000401C1449087008460078052801DD0120C4
:100910000870104909780F31C8B200F0ADFB0D48DE
:10092000007800F0FFF90EE0FFE7002008490870AA
:1009300005480078C0F3801028B90448007820F0FA
:1009400040000249087010BD070000200800002088
:10095000C5010020C601002010B52E480078C0F364
:100960004000002847D02C480078C0F34000002801
:1009700041D12A480078401C284908700846007870
:10098000022846DD002008702348007820F002008D
:10099000801C214908702248407B002839D120481A
:1009A00090F8210030BB1E4890F8350010BB1C4861
:1009B00090F84900F0B91B48007820B11948007838
:1009C000401E184908701748007810B9642015496E
:1009D000087014480178042000F03CFD11480078AC
:1009E00000F00AFB0121002000F084FB002101201F
:1009F00000F080FB0DE000200849087005480078F1
:100A0000C0F3400028B90448007820F002000249F1
:100A1000087010BD0700002008000020C101002060
:100A2000F4010020C401002010B521480078C0F373
:100A3000C00068B31F480078C0F3C00040BB1E4828
:100A40000078401C1C4908700846007802282DDDFB
:100A5000002008701748007820F008000830154979
:100A60000870FFF755FC08BB14480088401E134966
:100A700008800846008810B940F2E730088000215D
:100A8000084600F037FB0121084600F033FB0DE07B
:100A900000200949087006480078C0F3C00028B952
:100AA0000448007820F008000249087010BD0000DA
:100AB0000700002008000020CE01002012000020C6
:100AC00010B500F085F8FFF747FF00F03DF8FFF79D
:100AD000AFFEFFF7A9FF00F0DFF8FFF7EFFE00F031
:100AE00001F810BD15480078C0F34010B8B11448A3
:100AF0000078C0F3401090B912480078401C1149AA
:100B0000087008460078022817DD002008700C489D
:100B1000007820F020002030094908700DE0002006
:100B20000849087005480078C0F3401028B9044807
:100B3000007820F02000024908707047070000206C
:100B400008000020CA01002010B51D480078C0F33D
:100B5000001030B31B480078C0F3001008BB1A48DF
:100B60000078401C1849087008460078022826DDE5
:100B7000002008701348007820F010001030114950
:100B80000870FFF7C5FBD0B900201049087008466F
:100B90000178042000F05EFC0C48007800F02CFA8C
:100BA0000DE000200849087005480078C0F30010E7
:100BB00028B90448007820F010000249087010BDE0
:100BC0000700002008000020C2010020C40100200E
:100BD00010B52C48007800F00100002843D02A48C6
:100BE000007800F0010000283DD128480078401C22
:100BF0002649087008460078022842DD0020087067
:100C00002148007820F00100401C1F49087020484E
:100C1000407B38BB1E4890F8210018BB1C4890F858
:100C20003500F8B91A4890F84900D8B91948007841
:100C3000401C1849087008460078642801DD01202E
:100C4000087014480178042000F004FC1148007872
:100C500000F0D2F90121002000F04CFA002101201F
:100C600000F048FA0DE000200849087005480078B7
:100C700000F0010028B90448007820F00100024982
:100C8000087010BD0700002008000020C0010020EF
:100C9000F4010020C401002010B51D480078012196
:100CA000B1EBD01F25D11B480078C00908BB1A48FA
:100CB0000078401C1849087008460078022825DD95
:100CC000002008701348007820F08000803011491F
:100CD00008701248007818B901201049087002E025
:100CE00000200E49087032200D49088000F0FAFB00
:100CF0000CE000200849087005480078C00928B9B0
:100D00000448007820F080000249087010BD0000FF
:100D10000700002008000020C3010020C7010020B8
:100D200010000020062844D2DFE800F043030F1C27
:100D30002A370121264AD1730022254981F8232030
:100D400081F8372081F84B203FE00021204AD17301
:100D500001221F4981F82320002281F8372081F8E1
:100D60004B2032E000211A4AD1730022184981F841
:100D70002320012281F83720002281F84B2024E033
:100D80000021134AD1730022114981F8232081F8F0
:100D90003720012281F84B2017E001210C4AD17342
:100DA00001220B4981F8232081F8372081F84B205C
:100DB0000BE00021064AD1730022054981F8232067
:100DC00081F8372081F84B2000BF00BF704700003A
:100DD000F401002070B50024002517E064104FF4E2
:100DE00000600C494861022000F0C6F8094880689C
:100DF000C0F3802008B144F080044FF4006005493E
:100E00000861022000F0B8F8681CC5B2082DE5DBC7
:100E1000204670BD0010014010B500F085FE10BDE9
:100E200010B51348006840F00100114908600846F9
:100E30004068104908400E494860084600680E495D
:100E400008400B4908600846006820F480200860CC
:100E50000846406820F4FE0048604FF41F00886098
:100E6000FFF7DAFF4FF000600449086010BD000092
:100E7000001002400000FFF8FFFFF6FE08ED00E062
:100E800010B52848006800F00100002848D04FF64F
:100E9000FE70244908602448008820B12248008858
:100EA000401E214908802148008820B11F48008841
:100EB000401E1E4908801E48008820B11C4800883A
:100EC000401E1B4908801B480088401C19490880A7
:100ED00008460088642821DB0020088016488068C6
:100EE00020B115488068401E134988601248C069C7
:100EF00020B11148C069401E0F49C8610E48006BFF
:100F000020B10D48006B401E0B4908630A48406C35
:100F100020B10948406C401E0749486400F060FB5E
:100F200010BD00001004004000000020040000205C
:100F30001000002002000020F401002010B5402025
:100F400000F0F2F94FF480500A494861C02000F0E7
:100F5000C1F9002404E0002000F0BCF9601CC4B218
:100F6000102CF8DB4FF4805002490861012000F09A
:100F700003F810BD0010014008B50BE000210091FE
:100F800004E0BDF80010491C89B20091BDF80010C2
:100F90005029F6DB011EA0F1010290B2EED108BD8E
:100FA0002DE9F04105460C466806060E04F00F07D1
:100FB0004FEA1418402000F0B7F94FF480500D4963
:100FC00048610A20FFF7D8FF46F0C00000F082F920
:100FD000384600F07FF9404600F07CF90A20FFF720
:100FE000CBFF4FF48050034908610A20FFF7C4FF8C
:100FF000BDE8F081001001402DE9F0410446B4F550
:101000007A7F01DB40F2E734642094FBF0F0C6B253
:101010000A2094FBF0F00A2190FBF1F201FB120090
:10102000C5B20A2094FBF0F100FB1140C7B27EB9B3
:1010300000210846FFF7B4FF25B900210120FFF782
:10104000AFFF0FE00B48415D0120FFF7A9FF09E06A
:101050000848815D0020FFF7A3FF0648415D01209D
:10106000FFF79EFF0348C15D0220FFF799FFBDE82F
:10107000F0810000B81F00082DE9F0470546002662
:101080000024142D00DD142500242AE005EB450082
:1010900016490844065D6006070E06F00F084FEA81
:1010A0001619402000F040F94FF480501049486173
:1010B0000A20FFF761FF47F0C00000F00BF940463F
:1010C00000F008F9484600F005F90A20FFF754FF40
:1010D0004FF48050064908610A20FFF74DFF601C5D
:1010E000C4B2032CD2DBBDE8F0870000CA1F0008A1
:1010F000001001402DE9F04104460D46002600276E
:101100003DB10120A04014490988084312490880D4
:1011100006E00120A0401049098881430E48018063
:10112000042C05DA06260C48007800F00F070CE0C6
:10113000082C05DA082608480078C0F3031704E0F5
:101140000A2605480088C0F303273946304600F0D8
:101150000BF9BDE8F0810000BE01002070B54FF42E
:1011600080505A4948610220FFF706FF422000F0F4
:10117000B1F80220FFF700FF00BF0822D101534859
:1011800000F0ECFB00BF0520FFF7F6FEFFF722FEA4
:101190000546FFF71FFE04464FF480504B49086197
:1011A0000A20FFF7E9FE00BF43224FF48061474861
:1011B00000F0D4FB00BF05F0040038B144480078CB
:1011C00020F00100401C4249087005E040480078CA
:1011D00020F001003E49087004F0400038B13C485E
:1011E000007820F00200801C3949087005E038487A
:1011F000007820F002003649087005F0400038B150
:101200003348007820F00400001D3149087005E0E3
:101210002F48007820F004002D49087004F00400E5
:1012200038B12B48007820F00800083028490870B1
:1012300005E02748007820F008002549087004F0F0
:10124000080038B12248007820F010001030204902
:10125000087005E01E48007820F010001C49087056
:1012600005F0080038B11A48007820F0200020303E
:101270001749087005E01648007820F0200014494E
:10128000087005F0800038B11148007820F0400067
:1012900040300F49087005E00D48007820F040000C
:1012A0000B49087004F0800038B10948007820F03C
:1012B000800080300649087005E00548007820F07D
:1012C0008000034908700248007870BD001001409A
:1012D0000700002070B5044600251FE04FF40060B1
:1012E000104948610120FFF747FE04F0010020B1DA
:1012F0004FF480600B49086103E04FF480600949B6
:10130000486164100120FFF737FE4FF40060054983
:1013100008610220FFF730FE681CC5B2082DDDDB36
:1013200070BD00000010014010B504464FF480501D
:10133000074948610220FFF71FFE2046FFF7CAFF5A
:101340004FF48050024908610220FFF715FE10BDDE
:101350000010014010B50446072C00DD072444F0BE
:101360008800FFF7E1FF10BD70B504460D4644202C
:10137000FFF7DAFF4FF480500949486104F00F018C
:1013800041F0C000FFF7A6FF2846FFF7A3FF4FF488
:101390008050034908610120FFF7EEFD70BD000099
:1013A0000010014026480068C0F34010002845D0D6
:1013B0002348001D00682349087008460078282843
:1013C00005D021480078C0F3C000002836D01E4860
:1013D000007820F0080008301B490870194801788F
:1013E0001A4802780078401C184B1870184881542D
:1013F00018460078092806DC18460078401E144973
:10140000085C29281AD11248407852280AD110487D
:101410008078292806D10C48007820F00200801C32
:101420000949087000200949087009498870087046
:101430000548007820F00800034908707047000054
:1014400000380140B101002006000020B00100205A
:101450008A020020642900DD642101B901210428E9
:1014600000DD7047042827D11B4A117382F8201031
:1014700082F8341082F848104A1E184B33F81220B4
:101480005200174B1A604A1E144B33F812205300B7
:10149000134A343A93634A1E104B33F81220530018
:1014A0000F4A343AD3634A1E0C4B33F812205300D0
:1014B0000B4A343A13640DE000EB8002064B03EB59
:1014C000820211734A1E054B33F812205300044A5E
:1014D00042F8203000BFC4E7F40100201C000020C7
:1014E000342C014010B5002400BF69E004EB8400F7
:1014F000394901EB8000C07B01285FD104EB8400F7
:1015000001EB8000407B38B9012004EB8401324AB2
:1015100002EB8101487306E0002004EB84012E4AAF
:1015200002EB8101487304EB84002B4B03EB80003A
:10153000427B04EB840003EB8000817B2046FEF7B6
:101540006BFE04EB8400244901EB8000807B0128C2
:1015500006D1002004EB84011F4A02EB810148738D
:1015600004EB84001C4901EB8000407B28B9002279
:101570000121204600F070FC20E004EB84001649B5
:1015800001EB8000007B642809D104EB840001EBAF
:101590008000027B0121204600F05EFC0EE000226C
:1015A0001146204600F058FC04EB84000A4901EB88
:1015B0008000427B2146094800F037FC601CC4B221
:1015C000042C93DBFEF7A4FE20B100221146C820B4
:1015D000FEF7EEFD10BD0000F4010020002C0140DC
:1015E00010B51B48008828B119480088401E1849CA
:1015F000088007E01748008820B116480088401E80
:10160000144908801248008878B11348007800F027
:10161000010050B91048007820F00100401C0E492C
:1016200008700120FEF7D2FD10E00948008868B973
:101630000948007800F0010040B10748007820F028
:101640000100054908700020FEF7C0FD10BD000034
:101650000A0000200C0000200600002002E008C85C
:10166000121F08C1002AFAD170477047002001E01C
:1016700001C1121F002AFBD17047000000B58BB0DA
:101680001248406940F0010010494861104800F0DC
:101690001DF910480090104801900020029005208C
:1016A0000390002004908020059040000690800068
:1016B0000790202008900002099000200A906946B7
:1016C000034800F01DF90BB000BD000000100240FF
:1016D000080002404C240140940200201E4800688B
:1016E000C0F34000B8B302201B49486000201B49EA
:1016F000087014E01A481949097830F811001749A0
:101700000978C1EBC101174A02EB4101164A127870
:1017100021F8120011480078401C104908700F4849
:1017200000780528E6DB10480078401C0E49087058
:101730000846007807280EDB002008700B48006878
:1017400020F4A000094908600948007820F004004E
:10175000001D07490870704700000240BC010020CE
:101760009402002044020020BB0100200824014014
:101770000600002010B5D1E900231A4343680B4C42
:1017800023401A434260D1E902231A430B691A43EA
:101790008368074C23401A438260C26A22F47003B4
:1017A0008A8A521E43EA0252C26210BDFFFEF0FF57
:1017B000FDF7F1FF70B5092910DDC468A1F10A0534
:1017C00005EB45060725B540AC43A1F10A0505EB3D
:1017D000450502FA05F52C43C4600BE0046901EBF2
:1017E00041060725B540AC4301EB410502FA05F57A
:1017F0002C430461072B0EDA446B5D1E05EB850656
:101800001F25B540AC435D1E05EB850501FA05F5C6
:101810002C43446320E00D2B0EDA046BDD1F05EB37
:1018200085061F25B540AC43DD1F05EB850501FA94
:1018300005F52C4304630FE0C46AA3F10D0505EB25
:1018400085061F25B540AC43A3F10D0505EB8505C5
:1018500001FA05F52C43C46270BD70B502460B4613
:10186000002400210025032B01DA002070BD002494
:1018700019E0002112E032F81160481C32F8100023
:10188000864209DD32F81150481C32F8100022F867
:101890001100481C22F81050481CC1B2581E884242
:1018A000E9DC601CC4B29C42E3DB0025012405E0B6
:1018B00032F81400284485B2601CC4B2981EA042BD
:1018C000F6DA95FBF0F080B2D0E7000001684FF641
:1018D000FE72114001600021016041608160C160C1
:1018E0000649411A08390522B1FBF2F20F21914055
:1018F000024A52681143014A516070470000024099
:1019000010B50022134C0B68A34203D0124C0B6895
:10191000A34202D14FF440534B62026847F6F07382
:101920009A430C6A8B6823430C6923434C69234315
:101930008C692343CC6923434C6A23438C6A234339
:101940001A430260CB6843600B6883604B68C360D6
:1019500010BD00002854004028580040F0B5034650
:101960000D46002100200024EEB246B3196800BFE6
:1019700022E0012686402E40EEB1840002F04006AF
:1019800096B90F26A640B14302F00F06A640314398
:10199000182A03D1012686405E610CE0082A0AD18C
:1019A000012686401E6106E00F26A640B14302F0E4
:1019B0000F06A6403143401C0828DAD3196005F40D
:1019C0007F4676B35968002028E000F10806012719
:1019D00007FA06F62E4006B3840002F04006AEB9C0
:1019E0000F26A640B14302F00F06A6403143182A45
:1019F00004D100F10806B7405F610EE0082A0CD15F
:101A000000F108060127B7401F6106E00F26A64037
:101A1000B14302F00F06A6403143401C0828D4D33E
:101A20005960F0BD29B1064A52680243044B5A601E
:101A300004E0034A52688243014B5A607047000039
:101A400000000140FEF7E4FEFEF738FD3220FEF70D
:101A500071FDFEF7A1FEFEF775FC00221146C820BD
:101A6000FEF7A6FBFEF738FD0020FFF705FB13E0AD
:101A70000A48008830B9142008490880FFF76EFB37
:101A8000FFF71EF8FFF72AFE0548008820B932202C
:101A90000349088000F016FAEAE70000040000207D
:101AA0001000002070B5002100230F22C47804B379
:101AB000154C246804F4E064C4F5E064210AC1F123
:101AC0000403CA40447804FA03F1847814402143A3
:101AD00009010E4C0678A155047804F01F05012475
:101AE000AC4005786D11AD0005F1E025C5F8004169
:101AF00009E0047804F01F050124AC40044D067889
:101B0000761145F8264070BD0CED00E000E400E0E1
:101B100080E100E00349496821F440410143014A62
:101B200051607047001002400CB5002001900090F9
:101B30003348006840F480303149086000BF3048C5
:101B4000006800F4003000900198401C019000985B
:101B500018B90198B0F5A04FF1D12948006800F4F8
:101B6000003010B10120009001E0002000900098AA
:101B7000012843D12348006840F010002149086043
:101B80000846006820F0070008600846006840F03A
:101B9000020008601A4840681949486008464068D1
:101BA00048600846406840F48060486008464068E5
:101BB00020F47C1048600846406840F4E810486013
:101BC0000846006840F08070086000BF0C4800685C
:101BD00000F000700028F9D00948406820F00300A8
:101BE000074948600846406840F00200486000BF6E
:101BF0000348406800F00C000828F9D10CBD000033
:101C00000010024000200240026822F070024B885F
:101C10001A430260026822F440720B881A43026081
:101C20008A88C262CA888262054A904202D0054A06
:101C3000904201D10A89026301224261704700008B
:101C4000002C01400034014030B5002301248C40B9
:101C5000A3B2046ADD43ADB22C400462046A02FA06
:101C600001F5ADB22C43046230BD000030B50A4628
:101C700000211178036A8D000124AC40A343036264
:101C80004C1000F1180353F82430CC07250F7324AF
:101C9000AC40A3435488CD072D0FAC4023434D10D7
:101CA00000F1180444F82530036A8D000324AC4089
:101CB000A343548995882C438D00AC402343036291
:101CC000124B984202D0124B984218D1036A8D00F1
:101CD0000C24AC40A3439489D5882C438D00AC40A0
:101CE0002343036243684D004FF44074AC40A34368
:101CF000D489158A2C434D00AC402343436014899A
:101D000000F1340343F8214030BD0000002C0140B5
:101D1000003401403B4988420BD13B49C96841F43A
:101D20000061394AD1601146C96821F40061D1606F
:101D300067E0B0F1804F0BD13349096941F00101EF
:101D4000314A11611146096921F00101116158E020
:101D50002E4988420BD12C49096941F002012A4AD7
:101D600011611146096921F00201116149E0284918
:101D700088420BD12449096941F00401224A1161CA
:101D80001146096921F0040111613AE021498842B4
:101D90000BD11D49096941F008011B4A1161114627
:101DA000096921F0080111612BE01B4988420BD120
:101DB0001549096941F01001134A11611146096979
:101DC00021F0100111611CE0144988420BD10E4929
:101DD000096941F020010C4A11611146096921F09D
:101DE000200111610DE00E4988420AD10649C968F7
:101DF00041F40051044AD1601146C96821F40051F0
:101E0000D1607047002C01400010024000040040E7
:101E100000080040000C004000100040001400408A
:101E20000034014081624261704730B50023012ACD
:101E300000DD01228D000124AC40A3B2046ADD4321
:101E4000ADB22C400462046A8D0002FA05F5ADB211
:101E50002C43046230BD000070B504460D461646A2
:101E6000032C00DD70BD3DB9134830F814104B222F
:101E70001248FFF773FD1CE004EB8400104901EBEE
:101E80008000C07B012814D10B4830F81410432285
:101E90000A48FFF763FD36B9074830F814000749D0
:101EA0001431086005E0044830F81400034910318B
:101EB000086000BFD6E700001400002000080140C1
:101EC000F401002010B5002435480078C0F38000EC
:101ED000002863D03248007820F0040030490870B0
:101EE00007213048FFF7B9FC40F6E441484340F68B
:101EF000FF7190FBF1F02C490880072129480E3032
:101F0000FFF7ABFC40F6E441484340F6FF7190FB1D
:101F1000F1F026490882072122481C30FFF79DFC7A
:101F200040F6E441484340F6FF7190FBF1F081B286
:101F30001E48818407211B482A30FFF78EFC40F69B
:101F4000E441484340F6FF7190FBF1F081B217483D
:101F50000187072113483830FFF77FFC40F6E44142
:101F6000484340F6FF7190FBF1F081B20F48A0F8B2
:101F70004C100D480088B0F5C86F09DC43224FF4BF
:101F800000510B48FFF7EAFC4FF400500849486144
:101F90000848006840F4A0000649086010BD000031
:101FA0000600002044020020B4010020F4010020BB
:101FB00000100140082401403F065B4F666D7D071D
:101FC0007F6F777C395E79714000FFFFFF790454A1
:101FD0007350047C1C505C7338663E745B4F5B38F6
:101FE000793E731C387804546D043D005C545C7178
:101FF00071006F7D066F5B4F7F6639760639765BC1
:1020000039764F3976667738380000002C20000882
:1020100000000020DC010000480100081C2100082D
:10202000DC010020C40400006C16000801104232DC
:10203000120112021204130807120E1216121D12B8
:10204000241A2B18123A12411248124F1256125EDD
:102050001265126C1273127A128212891290129700
:10206000129E12A612AD12B412BB12C212CA12D123
:1020700012D812DF12E612EE12F512FC20830301D1
:102080000A0112011901200127012E0136013D012B
:1020900044014B0152015A01610168016F0176014F
:1020A0007E0185018C0193019A01A201A901B00171
:1020B000B701BE01C601CD01D401DB01E201EA0195
:1020C000F101F801FF0106020E0215021C022302B3
:1020D0002A0232023902400247024E0256025D02D3
:1020E00064026B0272027A02810288028F029602F7
:1020F0009E02A502AC02B302BA02C202C902D00219
:102100001A90A01AB49C1AD09801C40D1601020DA1
:0C2110000B1A300803050A0F143264009B
:04000005080000ED02
:00000001FF
