:020000040800F2
:10000000B806002001010008090100080B010008E2
:100010000D0100080F010008110100080000000098
:1000200000000000000000000000000013010008B4
:100030001501000800000000170100081901000860
:100040001B0100081B0100081B0100081B01000820
:100050001B0100081B0100081B0100081B01000810
:100060001B0100081B0100081B0100081B01000800
:100070001B0100081B0100081B0100081B010008F0
:100080001B0100081B010008A10100081B0100085A
:100090001B0100081B0100081B0100081B010008D0
:1000A0001B0100081B0100081B0100081B010008C0
:1000B0001B010008BD1200081B0100081B010008FD
:1000C0001B0100081B0100081B0100081B010008A0
:1000D0001B0100089D1700081B0100081B010008F8
:1000E0001B0100081B0100081B010008DFF80CD0F1
:1000F00000F018F800480047E11E0008B80600208C
:100100000648804706480047FEE7FEE7FEE7FEE7B1
:10011000FEE7FEE7FEE7FEE7FEE7FEE75D1200080A
:10012000ED000008064C074D06E0E06840F00103D2
:1001300094E8070098471034AC42F6D3FFF7DAFF93
:10014000402500086025000870B58C1810F8015B88
:1001500015F0070301D110F8013B2A1106D110F860
:10016000012B03E010F8016B01F8016B5B1EF9D164
:100170002B0705D40023521E0DD401F8013BFAE7EA
:1001800010F8013BCB1A921C03E013F8015B01F855
:10019000015B521EF9D5A142D8D3002070BD0000EA
:1001A0006FF0010001490860704700000024014021
:1001B000034B1880034B1980034B1A7070470000E3
:1001C0000C0000200E0000201000002010B5044696
:1001D000012C02D100F0C4FA1BE0002202214807E2
:1001E00001F096FF4FF08040406C20F400404FF04B
:1001F000804148640846006820F0010008604322FE
:100200000915044801F0F8FD4FF4806001491031F0
:10021000086010BD000C014070B506460C4615463E
:1002200036B1012E17D0022E28D0032E4CD138E043
:1002300044B92946082001F059F90021042001F0B1
:1002400055F907E02946042001F050F90021082063
:1002500001F04CF959E044B92946092001F046F96A
:100260000021052001F042F907E02946052001F0B0
:100270003DF90021092001F039F946E044B9294649
:100280000A2001F033F90021062001F02FF907E0E0
:100290002946062001F02AF900210A2001F026F95A
:1002A00033E044B929460B2001F020F90021072052
:1002B00001F01CF907E02946072001F017F9002199
:1002C0000B2001F013F920E00021082001F00EF9C5
:1002D0000021042001F00AF90021092001F006F9AB
:1002E0000021052001F002F900210A2001F0FEF8AA
:1002F0000021062001F0FAF800210B2001F0F6F8A9
:100300000021072001F0F2F800BF00BF70BD00001F
:1003100000200B494A7B91F8211042EA410149B97A
:10032000074991F83510890021B9054991F849101C
:10033000C90009B1012100E0002108467047000012
:10034000F801002000B587B001F0E6FB5548806950
:1003500040F00400534988610846806940F010006D
:10036000886100220121504801F046FD002202214F
:100370004D4801F041FD002204214B4801F03CFDB5
:1003800000220221494801F037FD00220821474898
:1003900001F032FD4348806940F4007041498861B2
:1003A0004FF4004001F01AFE00BF3E48C06840F420
:1003B00000703C49C8600846C06820F40070C860FE
:1003C00000BF00200190881502904FF46020039038
:1003D00000200490022005900520069001A93448D1
:1003E00001F016FC012305220021314801F030FC08
:1003F00030480178022305222D4801F029FC2D48C0
:100400004178032305222A4801F022FC29488178FB
:1004100004230522264801F01BFC2648C178052349
:100420001A46234801F014FC21480830006840F4C3
:1004300080701F49083108601F48806840F0010043
:100440001D4988601A480830006840F001001849CA
:10045000083108600846006840F00800086000BFE6
:10046000134808300068C0F3C0000028F8D11048D5
:100470000830006840F004000D490831086000BFF2
:100480000B4808300068C0F380000028F8D1084805
:100490000830006840F4A00005490831086007B042
:1004A00000BD0000001002400008014000100140A3
:1004B00000240140BA0100200000024010B523488A
:1004C000806940F00400214988610846806940F055
:1004D000080088610846806940F01000886108467D
:1004E000806940F0200088610822F821184801F056
:1004F00083FC08220121174801F07EFC08223021EC
:10050000154801F079FC43220121134801F074FCE5
:10051000432210210F4801F06FFC432204210F48B1
:1005200001F06AFC432204210B4801F065FC012024
:10053000094948611020074914310860042007491F
:10054000143108600449486110BD000000100240E9
:1005500000080140000C014000100140001401405F
:1005600010B51448806940F0100012498861432298
:100570008914114801F040FC43224FF400610E48F9
:1005800001F03AFC43224FF480610B4801F034FC47
:100590004FF480500849086140100861401008611C
:1005A0000A2000F0E5FE00F0C5FE052001F0CEF8BF
:1005B00010BD0000001002400010014010B588B0CE
:1005C0000446614801F00AFE604890FBF4F060497F
:1005D00008806048806940F004005E4988610846F0
:1005E000806940F4006088610846806940F001003D
:1005F00088614B228915584801F0FEFB4B224FF4CD
:100600000071554801F0F8FB4B224FF480615248CD
:1006100001F0F2FB4B224FF400614F4801F0ECFB7C
:100620004B480088ADF818000020ADF81A00ADF86E
:100630001400ADF81600ADF81C0005A9424801F001
:1006400047FD6020ADF802000120ADF80400002055
:10065000ADF80600ADF80A000820ADF80C00002047
:10066000ADF80E00ADF810008DF80000ADF80800F0
:100670006946354801F05EFD01208DF8000000203C
:10068000ADF808006946304801F054FD02208DF8AD
:1006900000000020ADF8080069462B4801F04AFD33
:1006A00003208DF800000020ADF8080069462648B8
:1006B00001F040FD2448006840F001002249086034
:1006C00021484430006840F400401F49443108602C
:1006D000002211461C4801F01BFD002201211A488E
:1006E00001F016FD00220221174801F011FD002241
:1006F0000321154801F00CFD1848018843221648D3
:1007000001F07AFB154841884322134801F074FB3D
:10071000124881884322104801F06EFB0F48C188BF
:1007200043220D4801F068FB0C4800880A49143147
:1007300008600A48408808600848808808600748C0
:10074000C088086008B010BD002C014040190100AD
:10075000B2010020001002400008014018000020F3
:1007600000B589B02C48806940F008002A498861AA
:100770000846C06940F00100C8614B2209152748AE
:1007800001F03AFB0121480201F09AFB47F22F5099
:10079000ADF81C000020ADF81E00ADF81800ADF853
:1007A0001A00ADF8200006A94FF0804001F090FC3F
:1007B0006020ADF806000120ADF808000020ADF87B
:1007C0000A00ADF80E000820ADF810004001ADF8A9
:1007D00012000020ADF8140002208DF8040043F64A
:1007E0009820ADF80C0001A94FF0804001F0A2FC68
:1007F0004FF08040006840F001004FF080410860F9
:100800000846406C40F40040486401220221480739
:1008100001F07EFC09B000BD00100240000C014058
:100820001FB51B48C06940F002001949C86140F279
:10083000E730ADF808000020ADF80A00ADF804007C
:10084000ADF8060001A9134801F042FC012247213E
:10085000104801F04BFD1D208DF8000001208DF89F
:1008600003008DF8010000208DF80200684601F0B9
:100870007DFB08480C30006840F0010005490C3150
:1008800008600448006840F00100024908601FBD8C
:100890000010024000040040012006498871022136
:1008A00004488176032180F82E10042180F842103C
:1008B00070470000F801002010B52C480078C0F304
:1008C0008000002843D02A480078C0F38000002828
:1008D0003DD128480078401C264908700846007819
:1008E000022842DD002008702148007820F0040032
:1008F000001D1F490870FFF70BFD38BB1E4800881C
:1009000018B94FF47A701C4908801B48008820B140
:1009100019480088401E184908801748008800F0D0
:1009200067FD1549098801EB81014FF6FF7202EA64
:10093000410000F02FFB0021084600F0D7FD012107
:10094000084600F0D3FD03200C4908700DE000209C
:100950000849087005480078C0F3800028B90448A9
:10096000007820F004000249087010BD0900002042
:100970000A000020D101002014000020D301002033
:1009800010B528480078C0F3801000283BD02648D6
:100990000078C0F38010002835D124480078401C2E
:1009A000224908700846007802283ADD00200870C5
:1009B0001D48007820F0400040301B490870FFF7C8
:1009C000A7FCF8B91A480078401C19490870084675
:1009D0000078052801DD01200870154909780F31DC
:1009E000C8B200F045FD1248007800F08FFB0021EE
:1009F000084600F07BFD0021012000F077FD01207A
:100A00000C4908700DE0002008490870054800787E
:100A1000C0F3801028B90448007820F04000024953
:100A2000087010BD090000200A000020C901002044
:100A3000CA010020D301002010B535480078C0F36A
:100A40004000002854D033480078C0F3400000280C
:100A50004ED131480078401C2F4908700846007874
:100A6000022853DD002008702A48007820F0020098
:100A7000801C28490870FFF74BFC002846D1274806
:100A8000007820B125480078401E2449087023488A
:100A9000007810B96420214908702148007828B9ED
:100AA0001E480178002000F0D1FE11E01C480078BB
:100AB000052808DA1A490978491EC8B21749097881
:100AC00000F0C4FE04E015480178042000F0BEFEEA
:100AD0001248007800F08CFC0121002000F006FD97
:100AE0000021012000F002FD02200E4908700DE0F7
:100AF00000200949087006480078C0F3400028B972
:100B00000448007820F002000249087010BD00007F
:100B1000090000200A000020C5010020C8010020B3
:100B2000CA010020D301002010B52B480078C0F383
:100B3000C000002840D029480078C0F3C000002839
:100B40003AD127480078401C2549087008460078AB
:100B500002283FDD002008702048007820F00800BF
:100B600008301E490870FFF7D3FB20BB1D480088E2
:100B7000401C1C49088008460088B0F57A7F01DBDC
:100B8000002008801748008800F032FC15490988C9
:100B900001EB81014FF6FF7202EA410000F0FAF921
:100BA0000021084600F0A2FC0121084600F09EFC4E
:100BB00003200D4908700DE000200949087006481F
:100BC0000078C0F3C00028B90448007820F008007D
:100BD0000249087010BD0000090000200A00002032
:100BE000D201002014000020D301002010B500F035
:100BF00017F9FFF721FF00F0B9F8FFF75DFEFFF7E7
:100C000093FF00F081F9FFF7BBFE00F001F810BD83
:100C100010B550480078C0F34010002876D04E48F8
:100C20000078C0F34010002870D14C480078401C78
:100C30004A49087008460078022868DD00200870DC
:100C40004548007820F0200020304349087044488F
:100C50000078401C4249087008460078012802D0FC
:100C600002283BD11DE03F48007818B9102000F061
:100C7000FFFB0DE03B480078052806DA3949097882
:100C80000F31C8B200F0F4FB02E0142000F0F0FBDA
:100C90000021084600F02AFC0021012000F026FC7B
:100CA00048E03048007805280BDA2E490978491EBB
:100CB00001EB81012C4A02EB8101087B00F098FBDB
:100CC00003E02949087B00F093FB0121002000F09C
:100CD0000DFC0021012000F009FC2BE00020204940
:100CE000087020480078052812DA1E480078401E57
:100CF00000EB80001C4901EB800080680A21B0FBFA
:100D0000F1F084B2204600F073FB0AE013E020E02B
:100D1000154880680A21B0FBF1F084B2204600F04B
:100D200067FB0021084600F0E1FB0121084600F0C6
:100D3000DDFB00BF0DE00020084908700548007881
:100D4000C0F3401028B90448007820F02000024980
:100D5000087010BD090000200A000020CE0100200C
:100D6000D3010020CA010020F801002010B5264858
:100D70000078C0F30010002837D024480078C0F372
:100D8000001088BB22480078401C214908700846A2
:100D90000078022837DD002008701C48007820F019
:100DA0001000103019490870FFF7B2FA58BB002044
:100DB0001849087008460178042000F047FD1548DE
:100DC000007800F015FB00201349088000F0E2F8DD
:100DD0000021084600F08AFB0021012000F086FB7C
:100DE00000200E4908700EE0FFE700200849087057
:100DF00005480078C0F3001028B90448007820F0B6
:100E000010000249087010BD090000200A000020EF
:100E1000C6010020C801002014000020D3010020DA
:100E200010B53348007800F00100002851D0314857
:100E3000007800F0010000284BD12F480078401CBA
:100E40002D49087008460078022850DD00200870FF
:100E50002848007820F00100401C26490870FFF760
:100E600057FA002843D125480078401C23490870D0
:100E700008460078642801DD0120087020480078C9
:100E800028B91E480178002000F0E0FC11E01C4861
:100E90000078052808DA1A490978491EC8B21749A6
:100EA000097800F0D3FC04E014480178042000F035
:100EB000CDFC1248007800F09BFA0121002000F0E0
:100EC00015FB0021012000F011FB02200D490870E4
:100ED0000DE00020084908700548007800F0010086
:100EE00028B90448007820F001000249087010BDBC
:100EF000090000200A000020C4010020C8010020D1
:100F0000CA010020D301002010B51D48007801213E
:100F1000B1EBD01F25D11B480078C00908BB1A4887
:100F20000078401C1849087008460078022825DD22
:100F3000002008701348007820F0800080301149AC
:100F400008701248007818B901201049087002E0B2
:100F500000200E49087032200D49088000F0C4FCC2
:100F60000CE000200849087005480078C00928B93D
:100F70000448007820F080000249087010BD00008D
:100F8000090000200A000020C7010020CB0100203A
:100F9000120000200146002000BF0DE000EB80029F
:100FA000074B03EB8202D27B22B100EB800203EB02
:100FB00082029160421CD0B20428EFDB704700002F
:100FC000F801002010B500244A48006880094A4909
:100FD000097860F300014848017046480068C0097C
:100FE0004549097860F341014348017043488068EE
:100FF00000094149097860F382013F4801703F4888
:10100000806840093C49097860F3C3013A4801709F
:101010003B4800683849097860F30411364801708C
:101020003448006840093449097860F34511324872
:1010300001703048006800092F49097860F3861173
:101040002D4801702B480068C0082B49097860F3CF
:10105000C7112948017000BF48E0274800786100A7
:10106000084100F00300032820D104EB8400254947
:1010700001EB8000807BB8BB012004EB8401214A96
:1010800002EB81018873002004EB840102EB8101F3
:10109000487300220121204601F042F900201A493C
:1010A00021F8240001EB840188701DE004EB84002A
:1010B000144901EB8000807B012815D1002004EB4E
:1010C0008401104A02EB8101887304EB840102EB76
:1010D00081014873002211462046FFF79DF8002247
:1010E0000121204601F01CF9601CC4B2042CB4DBC1
:1010F00010BD00000808014016000020001001404B
:10110000080C0140F80100208E020020062853D26E
:10111000DFE800F052030F1C2A3701212D4AD1735A
:1011200000222C4981F8232081F8372081F84B20B8
:101130004EE00021274AD1730122264981F823205D
:10114000002281F8372081F84B2041E00021214A1C
:10115000D17300221F4981F82320012281F8372012
:10116000002281F84B2033E000211A4AD17300227B
:10117000184981F8232081F83720012281F84B207B
:1011800026E00121134AD1730122124981F823205C
:1011900081F8372081F84B2000210E4A11739160AD
:1011A00000220C4981F82020CA6181F834200A63AA
:1011B00081F848204A640BE00021064AD1730022DE
:1011C000044981F8232081F8372081F84B2000BFA3
:1011D00000BF7047F801002010B5002400BF11E0E7
:1011E0000A4800EB84008078012809D100200749D3
:1011F00001EB84018870002211462046FFF70CF8AD
:10120000601CC4B2042CEBDB10BD00008E02002079
:1012100070B50024002517E064104FF400600C49FD
:101220004861022000F0A4F809488068C0F38020DB
:1012300008B144F080044FF40060054908610220C1
:1012400000F096F8681CC5B2082DE5DB204670BD9D
:101250000010014010B500F0CBFE10BD10B51348D2
:10126000006840F0010011490860084640681049D4
:1012700008400E494860084600680E4908400B497E
:1012800008600846006820F480200860084640682E
:1012900020F4FE0048604FF41F008860FFF7DAFF7B
:1012A0004FF000600449086010BD000000100240CB
:1012B0000000FFF8FFFFF6FE08ED00E010B518484B
:1012C000006800F0010050B34FF6FE70144908604A
:1012D0001448008820B113480088401E1149088036
:1012E0001148008820B110480088401E0E4908802F
:1012F0000E48008820B10D480088401E0B49088028
:101300000B480088401C0A49088008460088642869
:1013100003DB0020088000F0C5FB00F075FB10BD6A
:1013200010040040020000200600002012000020EF
:101330000400002010B5402000F0F2F94FF4805076
:101340000A494861C02000F0C1F9002404E00020EF
:1013500000F0BCF9601CC4B2102CF8DB4FF48050D4
:1013600002490861012000F003F810BD001001409F
:1013700008B50BE00021009104E0BDF80010491C05
:1013800089B20091BDF800105029F6DB011EA0F1D2
:10139000010290B2EED108BD2DE9F04105460C46A0
:1013A0006806060E04F00F074FEA1418402000F0FC
:1013B000B7F94FF480500D4948610A20FFF7D8FF74
:1013C00046F0C00000F082F9384600F07FF9404650
:1013D00000F07CF90A20FFF7CBFF4FF4805003495F
:1013E00008610A20FFF7C4FFBDE8F081001001404A
:1013F0002DE9F0410446B4F57A7F01DB40F2E73491
:10140000642094FBF0F0C6B20A2094FBF0F00A21AD
:1014100090FBF1F201FB1200C5B20A2094FBF0F13F
:1014200000FB1140C7B27EB900210846FFF7B4FFA8
:1014300025B900210120FFF7AFFF0FE00B48415D08
:101440000120FFF7A9FF09E00848815D0020FFF7B0
:10145000A3FF0648415D0120FFF79EFF0348C15DE1
:101460000220FFF799FFBDE8F0810000EC2400089E
:101470002DE9F047054600260024142D00DD142533
:1014800000242AE005EB450016490844065D600685
:10149000070E06F00F084FEA1619402000F040F939
:1014A0004FF48050104948610A20FFF761FF47F070
:1014B000C00000F00BF9404600F008F9484600F083
:1014C00005F90A20FFF754FF4FF4805006490861E0
:1014D0000A20FFF74DFF601CC4B2032CD2DBBDE82D
:1014E000F0870000FE240008001001402DE9F041C3
:1014F00004460D46002600273DB10120A0401449B6
:10150000098808431249088006E00120A0401049DC
:10151000098881430E480180042C05DA06260C4810
:10152000007800F00F070CE0082C05DA08260848C0
:101530000078C0F3031704E00A2605480088C0F3CA
:1015400003273946304600F00BF9BDE8F081000072
:10155000C201002070B54FF480505A494861022002
:10156000FFF706FF422000F0B1F80220FFF700FF6E
:1015700000BF0822D101534800F03EFC00BF052007
:10158000FFF7F6FEFFF744FE0546FFF741FE04466F
:101590004FF480504B4908610A20FFF7E9FE00BF75
:1015A00043224FF48061474800F026FC00BF05F05D
:1015B000040038B14448007820F00100401C424942
:1015C000087005E04048007820F001003E490870AE
:1015D00004F0400038B13C48007820F00200801C44
:1015E0003949087005E03848007820F00200364993
:1015F000087005F0400038B13348007820F004004E
:10160000001D3149087005E02F48007820F00400E3
:101610002D49087004F0040038B12B48007820F000
:10162000080008302849087005E02748007820F0B5
:1016300008002549087004F0080038B122480078F5
:1016400020F0100010302049087005E01E48007896
:1016500020F010001C49087005F0080038B11A4845
:10166000007820F0200020301749087005E0164867
:10167000007820F020001449087005F0800038B18F
:101680001148007820F0400040300F49087005E014
:101690000D48007820F040000B49087004F08000ED
:1016A00038B10948007820F0800080300649087081
:1016B00005E00548007820F08000034908700248E2
:1016C000007870BD001001400900002070B504468C
:1016D00000251FE04FF40060104948610120FFF72A
:1016E00047FE04F0010020B14FF480600B4908610F
:1016F00003E04FF480600949486164100120FFF75E
:1017000037FE4FF40060054908610220FFF730FE04
:10171000681CC5B2082DDDDB70BD00000010014063
:1017200010B504464FF48050074948610220FFF786
:101730001FFE2046FFF7CAFF4FF4805002490861A0
:101740000220FFF715FE10BD0010014010B5044641
:10175000072C00DD072444F08800FFF7E1FF10BDEF
:1017600070B504460D464420FFF7DAFF4FF4805071
:101770000949486104F00F0141F0C000FFF7A6FFDE
:101780002846FFF7A3FF4FF480500349086101206A
:10179000FFF7EEFD70BD0000001001402648006814
:1017A000C0F34010002845D02348001D006823499D
:1017B000087008460078282805D021480078C0F332
:1017C000C000002836D01E48007820F008000830FD
:1017D0001B490870194801781A4802780078401CA3
:1017E000184B18701848815418460078092806DCF0
:1017F00018460078401E1449085C29281AD112485E
:10180000407852280AD110488078292806D10C48FF
:10181000007820F00200801C094908700020094966
:1018200008700949887008700548007820F00800A1
:10183000034908707047000000380140B5010020DE
:1018400008000020B40100209E020020642900DD71
:10185000642101B90121042800DD704704282BD13F
:101860001E4A117382F8201082F8341082F8481052
:101870001B4A1288642392FBF3F24A43194B1A6005
:10188000174A1288642392FBF3F24A43154B343B08
:101890009A63134A1288642392FBF3F24A43114B72
:1018A000343BDA630E4A1288642392FBF3F24A4314
:1018B0000C4B343B1A640EE000EB8002074B03EB49
:1018C00082021173064A1288642392FBF3F24A43A0
:1018D000044B43F8202000BFBFE70000F8010020C0
:1018E000B2010020342C014010B5002400BF79E083
:1018F00004EB8400414901EB8000C07B01286FD1DB
:1019000004EB840001EB8000407B38B9012004EB3C
:1019100084013A4A02EB8101487306E0002004EB9F
:101920008401364A02EB8101487304EB8400334B97
:1019300003EB8000427B04EB840003EB8000817B9F
:101940002046FEF769FC04EB84002C4901EB800083
:10195000807B012806D1002004EB8401274A02EB9A
:101960008101487304EB8400244901EB8000407B33
:1019700060B900220121204600F0D2FC002020495D
:1019800021F8240001EB8401887029E004EB840035
:101990001A4901EB8000007B642809D104EB840024
:1019A00001EB8000027B0121204600F0B9FC0EE033
:1019B00000221146204600F0B3FC04EB84000F49DE
:1019C00001EB8000427B21460E4800F092FC04EBC4
:1019D00084000A4901EB80000089094921F82400AC
:1019E000601CC4B2042C83DBFEF792FC20B1002201
:1019F0001146C820FEF7DCFB10BD0000F8010020F6
:101A00008E020020002C014010B51B48008828B130
:101A100019480088401E1849088007E017480088C8
:101A200020B116480088401E1449088012480088DA
:101A300078B11348007800F0010050B910480078E0
:101A400020F00100401C0E4908700120FEF7BEFB8B
:101A500010E00948008868B90948007800F00100E2
:101A600040B10748007820F00100054908700020C7
:101A7000FEF7ACFB10BD00000C0000200E000020A3
:101A80000800002002E008C8121F08C1002AFAD18D
:101A900070477047002001E001C1121F002AFBD1EE
:101AA0007047000010B5002400BF2DE0184830F842
:101AB000240038B304EB8400164901EB8000407B1E
:101AC00000B3134830F82400401E114921F82400C7
:101AD000084630F82400A8B9002004EB84010D4A20
:101AE00002EB810148730120094901EB84018870F0
:101AF00000220121204600F013FC00221146C820DC
:101B0000FEF756FB601CC4B2042CCFDB10BD0000F6
:101B10008E020020F801002000B58BB01248406909
:101B200040F0010010494861104800F01DF91048CC
:101B300000901048019000200290052003900020A2
:101B4000049080200590400006908000079020209F
:101B500008900002099000200A906946034800F0AE
:101B60001DF90BB000BD000000100240080002404B
:101B70004C240140A80200201E480068C0F3400029
:101B8000B8B302201B49486000201B49087014E0CC
:101B90001A481949097830F8110017490978C1EB3A
:101BA000C101174A02EB4101164A127821F81200CE
:101BB00011480078401C104908700F48007805282B
:101BC000E6DB10480078401C0E4908700846007893
:101BD00007280EDB002008700B48006820F4A000E6
:101BE000094908600948007820F00400001D0749F1
:101BF0000870704700000240C0010020A8020020C9
:101C000048020020BF0100200824014008000020F5
:101C100010B5D1E900231A4343680B4C23401A4303
:101C20004260D1E902231A430B691A438368074CC7
:101C300023401A438260C26A22F470038A8A521EC9
:101C400043EA0252C26210BDFFFEF0FFFDF7F1FF52
:101C500070B5092910DDC468A1F10A0505EB450638
:101C60000725B540AC43A1F10A0505EB450502FA8D
:101C700005F52C43C4600BE0046901EB4106072520
:101C8000B540AC4301EB410502FA05F52C43046174
:101C9000072B0EDA446B5D1E05EB85061F25B5404C
:101CA000AC435D1E05EB850501FA05F52C43446345
:101CB00020E00D2B0EDA046BDD1F05EB85061F25DA
:101CC000B540AC43DD1F05EB850501FA05F52C4356
:101CD00004630FE0C46AA3F10D0505EB85061F251B
:101CE000B540AC43A3F10D0505EB850501FA05F5FB
:101CF0002C43C46270BD70B502460B46002400211F
:101D00000025032B01DA002070BD002419E000211A
:101D100012E032F81160481C32F81000864209DDEA
:101D200032F81150481C32F8100022F81100481CFB
:101D300022F81050481CC1B2581E8842E9DC601CD1
:101D4000C4B29C42E3DB0025012405E032F8140014
:101D5000284485B2601CC4B2981EA042F6DA95FBF6
:101D6000F0F080B2D0E7000001684FF6FE7211403B
:101D700001600021016041608160C1600649411A33
:101D800008390522B1FBF2F20F219140024A526854
:101D90001143014A516070470000024010B5002213
:101DA000134C0B68A34203D0124C0B68A34202D120
:101DB0004FF440534B62026847F6F0739A430C6A43
:101DC0008B6823430C6923434C6923438C69234369
:101DD000CC6923434C6A23438C6A23431A43026031
:101DE000CB6843600B6883604B68C36010BD000024
:101DF0002854004028580040F0B503460D46002105
:101E000000200024EEB246B3196800BF22E001268C
:101E100086402E40EEB1840002F0400696B90F26AF
:101E2000A640B14302F00F06A6403143182A03D161
:101E3000012686405E610CE0082A0AD10126864010
:101E40001E6106E00F26A640B14302F00F06A64031
:101E50003143401C0828DAD3196005F47F4676B375
:101E60005968002028E000F10806012707FA06F665
:101E70002E4006B3840002F04006AEB90F26A640FD
:101E8000B14302F00F06A6403143182A04D100F1F5
:101E90000806B7405F610EE0082A0CD100F1080681
:101EA0000127B7401F6106E00F26A640B14302F0AC
:101EB0000F06A6403143401C0828D4D35960F0BD1A
:101EC00029B1064A52680243044B5A6004E0034AAF
:101ED00052688243014B5A60704700000000014085
:101EE000FEF7DAFCFEF7EAFA1420FEF767FBFEF7CE
:101EF00097FCFEF727FA00221146C820FEF758F992
:101F0000FEF72EFB0020FFF7B3FA01201349C87338
:101F100022E01348008840B9142011490880FFF7D7
:101F200019FBFEF763FEFFF74DF8FFF725FE0D489E
:101F3000008878B932200B49088000F027FA0A4857
:101F400001780078401C084A1070282902DD002022
:101F500011460870FFF740F9DBE70000F8010020A8
:101F600006000020120000200000002070B50021B3
:101F700000230F22C47804B3154C246804F4E064F1
:101F8000C4F5E064210AC1F10403CA40447804FAAC
:101F900003F184781440214309010E4C0678A155C1
:101FA000047804F01F050124AC4005786D11AD00E4
:101FB00005F1E025C5F8004109E0047804F01F05AB
:101FC0000124AC40044D0678761145F8264070BDDA
:101FD0000CED00E000E400E080E100E00349496826
:101FE00021F440410143014A516070470010024012
:101FF0000CB50020019000903348006840F4803018
:102000003149086000BF3048006800F4003000909B
:102010000198401C0190009818B90198B0F5A04FA4
:10202000F1D12948006800F4003010B1012000907F
:1020300001E0002000900098012843D12348006867
:1020400040F01000214908600846006820F00700B1
:1020500008600846006840F0020008601A484068BE
:10206000194948600846406848600846406840F49E
:10207000806048600846406820F47C10486008464C
:10208000406840F4E81048600846006840F08070FE
:10209000086000BF0C48006800F000700028F9D00C
:1020A0000948406820F00300074948600846406836
:1020B00040F00200486000BF0348406800F00C0098
:1020C0000828F9D10CBD0000001002400020024099
:1020D000026822F070024B881A430260026822F400
:1020E00040720B881A4302608A88C262CA88826280
:1020F000054A904202D0054A904201D10A89026302
:102100000122426170470000002C01400034014070
:1021100030B5002301248C40A3B2046ADD43ADB284
:102120002C400462046A02FA01F5ADB22C43046249
:1021300030BD000030B50A4600211178036A8D00D9
:102140000124AC40A34303624C1000F1180353F880
:102150002430CC07250F7324AC40A3435488CD070B
:102160002D0FAC4023434D1000F1180444F82530E6
:10217000036A8D000324AC40A343548995882C4303
:102180008D00AC4023430362124B984202D0124BA5
:10219000984218D1036A8D000C24AC40A343948963
:1021A000D5882C438D00AC402343036243684D0027
:1021B0004FF44074AC40A343D489158A2C434D009E
:1021C000AC4023434360148900F1340343F82140B9
:1021D00030BD0000002C0140003401403B498842E2
:1021E0000BD13B49C96841F40061394AD1601146BD
:1021F000C96821F40061D16067E0B0F1804F0BD174
:102200003349096941F00101314A116111460969F7
:1022100021F00101116158E02E4988420BD12C496F
:10222000096941F002012A4A11611146096921F048
:102230000201116149E0284988420BD1244909690A
:1022400041F00401224A11611146096921F004019B
:1022500011613AE0214988420BD11D49096941F0D9
:1022600008011B4A11611146096921F00801116139
:102270002BE01B4988420BD11549096941F0100137
:10228000134A11611146096921F0100111611CE026
:10229000144988420BD10E49096941F020010C4ACA
:1022A00011611146096921F0200111610DE00E490B
:1022B00088420AD10649C96841F40051044AD160F4
:1022C0001146C96821F40051D1607047002C0140CB
:1022D000001002400004004000080040000C0040D4
:1022E000001000400014004000340140816242614F
:1022F000704730B50023012A00DD01228D00012442
:10230000AC40A3B2046ADD43ADB22C400462046A5F
:102310008D0002FA05F5ADB22C43046230BD000019
:1023200070B504460D461646032C00DD70BD3DB960
:10233000134830F814104B221248FFF75DFD1CE0E3
:1023400004EB8400104901EB8000C07B012814D10C
:102350000B4830F8141043220A48FFF74DFD36B9F8
:10236000074830F8140007491431086005E00448B4
:1023700030F8140003491031086000BFD6E70000B0
:102380001800002000080140F801002010B50024CA
:102390004F480078C0F3800000287CD04C4800787B
:1023A00020F004004A49087007214A48FFF7A3FCBF
:1023B00040F6E441484340F6FF7190FBF1F0464996
:1023C0000880072143480E30FFF795FC40F6E441B2
:1023D000484340F6FF7190FBF1F0404948820721E5
:1023E0003C481C30FFF787FC40F6E441484340F688
:1023F000FF7190FBF1F081B23848C1840721354864
:102400002A30FFF778FC40F6E441484340F6FF717C
:1024100090FBF1F081B23148418707212D483830D7
:10242000FFF769FC40F6E441484340F6FF7190FB3A
:10243000F1F081B22948A0F84E1000BF30E004EB63
:102440008400264901EB8000407B012826D104EB63
:10245000840001EB8000408AB0F5FA6F1EDD002099
:1024600004EB84011D4A02EB8101487304EB8401F3
:1024700002EB81018860002201212046FFF750FF16
:102480000020174921F8240001EB84018870002204
:102490001146204600E01AE0FDF7BEFE601CC4B203
:1024A000042CCCDB0C480088B0F5C86F09DC432253
:1024B0004FF400510B48FFF79FFC4FF400500949BF
:1024C00048610948006840F4A0000749086010BD51
:1024D0000800002048020020B8010020F801002078
:1024E0008E02002000100140082401403F065B4F8F
:1024F000666D7D077F6F777C395E79714000FFFFE5
:10250000FF7904547350047C1C505C7338663E742D
:102510005B4F5B38793E731C387804546D043D0082
:102520005C545C7171006F7D066F5B4F7F6639761E
:102530000639765B39764F39766677383800000091
:102540006025000800000020E001000048010008AC
:1025500050260008E0010020D8040000941A00086A
:1025600001126232120112021204130807120E1233
:1025700016121D12241A2B1A123A12411248124F27
:102580001256125E1265126C1273127A128212893E
:1025900012901297129E12A612AD12B412BB12C262
:1025A00012CA12D112D812DF12E612EE12F512FC84
:1025B000208303010A0112011901200127012E01C4
:1025C00036013D0144014B0152015A01610168018C
:1025D0006F0176017E0185018C0193019A01A201B0
:1025E000A901B001B701BE01C601CD01D401DB01D3
:1025F000E201EA01F101F801FF0106020E021502F3
:102600001C0223022A0232023902400247024E0211
:1026100056025D0264026B0272027A028102880233
:102620008F0296029E02A502AC02B302BA02C20257
:10263000C902D0021A90A01AB49C1AD09801C40DF5
:102640001701020D0B1B200803050A0F143264004A
:04000005080000ED02
:00000001FF
