:020000040800F2
:10000000E807002001010008090100080B010008B1
:100010000D0100080F010008110100080000000098
:1000200000000000000000000000000013010008B4
:100030001501000800000000170100081901000860
:100040001B0100081B0100081B0100081B01000820
:100050001B0100081B0100081B0100081B01000810
:100060001B0100081B0100081B0100084D030008CC
:100070001B0100081B0100081B0100081B010008F0
:100080001B0100081B0100081B0100081B010008E0
:100090001B0100081B0100081B0100081B010008D0
:1000A0001B0100081B0100081B0100081B010008C0
:1000B0001B010008892500081B0100081B0100081E
:1000C0001B0100081B0100081B0100081B010008A0
:1000D0001B010008D12B00081B0100081B010008B0
:1000E0001B0100081B0100081B010008DFF80CD0F1
:1000F00000F018F8004800477D360008E8070020A7
:100100000648804706480047FEE7FEE7FEE7FEE7B1
:10011000FEE7FEE7FEE7FEE7FEE7FEE7292500082B
:10012000ED000008064C074D06E0E06840F00103D2
:1001300094E8070098471034AC42F6D3FFF7DAFF93
:10014000783E0008983E000870B58C1810F8015BE6
:1001500015F0070301D110F8013B2A1106D110F860
:10016000012B03E010F8016B01F8016B5B1EF9D164
:100170002B0705D40023521E0DD401F8013BFAE7EA
:1001800010F8013BCB1A921C03E013F8015B01F855
:10019000015B521EF9D5A142D8D3002070BD0000EA
:1001A000044B9B782BB1044B1880044B1980044BF3
:1001B0001A707047170000200C0000200E0000206D
:1001C0001000002010B50446012C02D100F0A6FC5E
:1001D0001BE000220221480703F0DEFB4FF08040C5
:1001E000406C20F400404FF08041486408460068AD
:1001F00020F00100086043220915044803F0CAF901
:100200004FF4806001491031086010BD000C0140BE
:1002100070B505460C461646062D74D2DFE805F08B
:100220000316293C734F44B93146082002F078FB8D
:100230000021042002F074FB07E03146042002F0A4
:100240006FFB0021082002F06BFB7DE044B93146D2
:10025000092002F065FB0021052002F061FB07E0A8
:100260003146052002F05CFB0021092002F058FB1A
:100270006AE044B931460A2002F052FB0021062010
:1002800002F04EFB07E03146062002F049FB002158
:100290000A2002F045FB57E044B931460B2002F03A
:1002A0003FFB0021072002F03BFB07E0314607201F
:1002B00002F036FB00210B2002F032FB44E084B94F
:1002C0003146082002F02CFB3146092002F028FBC1
:1002D00031460A2002F024FB31460B2002F020FBBD
:1002E0000FE03146042002F01BFB3146052002F0EE
:1002F00017FB3146062002F013FB3146072002F0BF
:100300000FFB21E0FFE70021082002F009FB00219C
:10031000042002F005FB0021092002F001FB00216E
:10032000052002F0FDFA00210A2002F0F9FA00216E
:10033000062002F0F5FA00210B2002F0F1FA00216C
:10034000072002F0EDFA00BF00BF70BD10B5E44811
:100350000068C0F3400000287ED00220E0494860D9
:10036000E048008870BB0020DF49087014E0DF48D7
:10037000DD49097830F81100DB490978C1EBC1018A
:10038000DB4A02EB4101DB4A127821F81200D64821
:100390000078401CD4490870D34800780528E6DB73
:1003A000D4480078401CD3490870084600780728D4
:1003B00008DB00200870D048007820F00400001D01
:1003C000CD490870CC480078C0F380000028C3D025
:1003D000C948007820F00400C74908700721C448C4
:1003E00002F087FF40F6E441484340F6FF7190FB7E
:1003F000F1F0C24908800721BD480E3002F079FFB4
:1004000040F6E441484340F6FF7190FBF1F0BC49EF
:1004100048820721B6481C3002F06BFF40F6E441E9
:10042000484340F6FF7190FBF1F081B2B4488185FA
:100430000721AF482A3002F05CFF40F6E441484310
:1004400040F6FF7190FBF1F081B2AD48A0F8461084
:100450000721A748383000E041E102F04AFF40F6AA
:10046000E441484340F6FF7190FBF1F081B2A448AB
:10047000A0F860100020A34908702BE1A148007883
:1004800000EB800101EBC0009D4901EB4000C07B07
:1004900001287DD19B48007800EB800101EBC00072
:1004A000974901EB4000807B002872D09548007886
:1004B00000EB800101EBC000914901EB4000807D21
:1004C000002866D18F48007800EB800101EBC00066
:1004D0008B4901EB4000407D0028F2D1894800782B
:1004E00000EB800101EBC000854901EB4000408A30
:1004F0000A285ADA00208349097801EB810202EBCD
:10050000C1017F4A02EB410108767E48007800EB8A
:10051000800101EBC000114601EB4000C07D401C92
:100520007849097801EB810202EBC101744A02EBC0
:100530004101C8757348007800EB800101EBC000F1
:10054000114601EB4000C07D05282DDB00206D49E0
:10055000097801EB810202EBC101694A02EB41011A
:10056000C87501206749097801EB810202EBC101DE
:10057000634A02EB4101487500221146C820FFF78B
:100580000FFE00215F48007801F02EFF002001E0FF
:1005900086E06FE05B49097801EB810202EBC10163
:1005A000574A02EB4101C8738FE05648007800EBD0
:1005B000800101EBC000524901EB4000408AB0F5D8
:1005C000166F56DD00204F49097801EB810202EBDE
:1005D000C1014B4A02EB4101C8754A48007800EB63
:1005E000800101EBC000114601EB4000007E401C81
:1005F0004449097801EB810202EBC101404A02EB58
:10060000410108763F48007800EB800101EBC00013
:10061000114601EB4000007E022856DB00203949DC
:10062000097801EB810202EBC101354A02EB41017D
:10063000087602203349097801EB810202EBC101FF
:100640002F4A02EB4101487500221146C820FFF7EE
:10065000A7FD00212B48007801F0C6FE00202949A3
:10066000097801EB810202EBC101254A02EB41014D
:10067000C8732AE000202349097801EB810202EBCC
:10068000C1011F4A02EB4101C8751E49097801EBFF
:10069000810202EBC1011A4A02EB4101087614E023
:1006A00000201849097801EB810202EBC101144ACC
:1006B00002EB4101C8751349097801EB810202EB95
:1006C000C1010F4A02EB410108760E480078401C38
:1006D0000C4908700B4800780428FFF6CFAE10BD17
:1006E000000002401E000020AC020020DA030020BF
:1006F0007A030020AB02002006000020A4020020A4
:10070000F8020020AA02002000B587B002F038FDF0
:100710005548806940F00400534988610846806963
:1007200040F01000886100220121504802F032FFA1
:10073000002202214D4802F02DFF002204214B48E7
:1007400002F028FF00220221494802F023FF002284
:100750000821474802F01EFF4348806940F40070BA
:10076000414988614FF4004003F07CF800BF3E48E7
:10077000C06840F400703C49C8600846C06820F476
:100780000070C86000BF00200190881502904FF4EF
:100790006020039000200490022005900520069020
:1007A00001A9344802F032FD01230522002131481D
:1007B00002F04CFD30480178022305222D4802F05A
:1007C00045FD2D484178032305222A4802F03EFDCD
:1007D0002948817804230522264802F037FD26485F
:1007E000C17805231A46234802F030FD214808301D
:1007F000006840F480701F49083108601F48806815
:1008000040F001001D4988601A480830006840F037
:1008100001001849083108600846006840F00800E7
:10082000086000BF134808300068C0F3C00000280B
:10083000F8D110480830006840F004000D49083134
:10084000086000BF0B4808300068C0F38000002833
:10085000F8D108480830006840F4A0000549083184
:10086000086007B000BD0000001002400008014011
:100870000010014000240140A602002000000240B8
:1008800010B52348806940F004002149886108467A
:10089000806940F0080088610846806940F01000D7
:1008A00088610846806940F0200088610822F821AC
:1008B000184802F06FFE08220121174802F06AFE74
:1008C00008223021154802F065FE43220121134819
:1008D00002F060FE432210210F4802F05BFE43222B
:1008E00004210F4802F056FE432204210B4802F077
:1008F00051FE012009494861102007491431086060
:1009000004200749143108600449486110BD000003
:100910000010024000080140000C0140001001409E
:100920000014014010B51448806940F010001249CD
:10093000886143228914114802F02CFE43224FF4AF
:1009400000610E4802F026FE43224FF480610B48FE
:1009500002F020FE4FF48050084908614010086101
:10096000401008610A2001F07BFE01F05BFE0520CB
:1009700002F006F910BD0000001002400010014016
:1009800000B589B0604803F06DF84FF4B4605F497A
:1009900008805F48806940F004005D49886108462E
:1009A000806940F4006088610846806940F0010079
:1009B00088614B228915574802F0ECFD4B224FF419
:1009C0000071544802F0E6FD4B224FF4806151481B
:1009D00002F0E0FD4B224FF400614E4802F0DAFDD8
:1009E0004A480088ADF81C000020ADF81E00ADF8A4
:1009F0001800ADF81A00ADF8200006A9424802F030
:100A0000ABFF6020ADF806000120ADF80800002023
:100A1000ADF80A00ADF80E000820ADF81000002077
:100A2000ADF81200ADF814008DF80400ADF80C001C
:100A300001A9354802F0C2FF01208DF80400002012
:100A4000ADF80C0001A9304802F0B8FF02208DF883
:100A500004000020ADF80C0001A92B4802F0AEFF05
:100A600003208DF804000020ADF80C0001A92648F1
:100A700002F0A4FF2448006840F001002249086009
:100A800021484430006840F400401F494431086068
:100A9000002211461C4802F07FFF002201211A4863
:100AA00002F07AFF00220221174802F075FF0022AF
:100AB0000321154802F070FF1748018843221548AA
:100AC00002F068FD144841884322124802F062FD9A
:100AD0001148818843220F4802F05CFD0E48C1880E
:100AE00043220C4802F056FD0B4800880949143196
:100AF0000860094840880860074880880860064800
:100B0000C088086009B000BD002C01409E02002092
:100B100000100240000801403800002000B589B0F4
:100B20002C48806940F008002A4988610846C0695D
:100B300040F00100C8614B220915274802F02AFD48
:100B40000121480202F08AFD47F22F50ADF81C0047
:100B50000020ADF81E00ADF81800ADF81A00ADF891
:100B6000200006A94FF0804002F0F6FE6020ADF8AC
:100B700006000120ADF808000020ADF80A00ADF82D
:100B80000E000820ADF810004001ADF81200002062
:100B9000ADF8140002208DF8040043F69820ADF85B
:100BA0000C0001A94FF0804002F008FF4FF0804098
:100BB000006840F001004FF0804108600846406C3A
:100BC00040F40040486401220221480702F0E4FE9C
:100BD00009B000BD00100240000C01401FB51B48C9
:100BE000C06940F002001949C86140F2E730ADF831
:100BF00008000020ADF80A00ADF80400ADF80600CA
:100C000001A9134802F0A8FE01224721104802F072
:100C1000B1FF1D208DF8000001208DF803008DF834
:100C2000010000208DF80200684602F0E3FD08484C
:100C30000C30006840F0010005490C3108600448A0
:100C4000006840F00100024908601FBD001002402A
:100C5000000400400120064988720221044880F8FF
:100C60002410032180F83E10042180F858107047AA
:100C7000F802002010B5002438480068800938497F
:100C8000097860F300013648017034480068C009F3
:100C90003349097860F34101314801703148806877
:100CA00000092F49097860F382012D4801702D4811
:100CB000806840092A49097860F3C3012848017017
:100CC000294800682649097860F304112448017016
:100CD0002248006840092249097860F345112048FC
:100CE00001701E48006800091D49097860F38611EB
:100CF0001B48017019480068C0081949097860F359
:100D0000C7111748017000BF19E01548007861004D
:100D1000084100F00300032809D1012004EB8401FD
:100D200001EBC401114A02EB4101887505E010484E
:100D3000007810B9601C0E490870601CC4B2042C05
:100D4000E3DB02F0A3F80F2803D11F2001F0AAFD76
:100D500003E00748007800F095FC10BD080801404A
:100D60001600002000100140080C0140F80200208D
:100D7000210000201CB5FFF76DFF002001F092FD5F
:100D80000C2000F07FFA4FF47A7003F02FF8112056
:100D900000F078FA1A2001F085FD4FF47A7003F024
:100DA00025F80848016800918088ADF80400DDE965
:100DB000000101F02FFD4FF47A7003F017F8FFF7F0
:100DC00059FF1CBD2B00002020480078C0F3800094
:100DD000F0B11F480078C0F38000C8B91D48007802
:100DE000401C1C4908700846007802282DDD0020B0
:100DF00008701748007820F00400001D144908709E
:100E00001548007820F00400001D134908701CE00C
:100E10000020104908700D480078C0F38000A0B988
:100E20000B48007820F00400094908700A4800784F
:100E300020F004000849087000200849087008489C
:100E4000007820F002000649087070470800002072
:100E500009000020C00200200A000020CC0200206F
:100E6000070000201C480078C0F38010F0B11B4838
:100E70000078C0F38010C8B919480078401C1849A0
:100E8000087008460078022824DD00200870134806
:100E9000007820F040004030104908701148007878
:100EA00020F0400040300F49087013E000200C494A
:100EB000087009480078C0F3801058B907480078D6
:100EC00020F04000054908700648007820F04000F6
:100ED0000449087070470000080000200900002045
:100EE000B50200200A00002020480078C0F340002E
:100EF000F0B11F480078C0F34000C8B91D48007821
:100F0000401C1C4908700846007802282DDD00208E
:100F100008701748007820F00200801C14490870FF
:100F20001548007820F00200801C134908701CE06E
:100F30000020104908700D480078C0F34000A0B9A7
:100F40000B48007820F00200094908700A48007830
:100F500020F002000849087000200849087008487D
:100F6000007820F001000649087070470800002052
:100F700009000020B10200200A000020CB0200205E
:100F80000700002020480078C0F3C000F0B11F48DF
:100F90000078C0F3C000C8B91D480078401C1C4947
:100FA00008700846007802282DDD002008701748D8
:100FB000007820F0080008301449087015480078BF
:100FC00020F008000830134908701CE00020104988
:100FD00008700D480078C0F3C000A0B90B48007835
:100FE00020F00800094908700A48007820F008003D
:100FF000084908700020084908700848007820F067
:10100000040006490870704708000020090000200D
:10101000C10200200A000020CD02002007000020AD
:1010200010B500F0A1F8FFF75FFF00F057F8FFF7E9
:10103000CBFEFFF7A7FF00F0E5F8FFF713FF00F086
:101040000BF802F08DFE00F067FC0248007802F019
:1010500089F910BD210000201C480078C0F3401021
:10106000F0B11B480078C0F34010C8B919480078A7
:10107000401C1849087008460078022824DD00202A
:1010800008701348007820F02000203010490870C4
:101090001148007820F0200020300F49087013E03C
:1010A00000200C49087009480078C0F3401058B976
:1010B0000748007820F020000549087006480078AD
:1010C00020F020000449087070470000080000204C
:1010D00009000020BD0200200A0000201D48007801
:1010E000C0F30010F0B11C480078C0F30010C8B97C
:1010F0001A480078401C19490870084600780228F0
:1011000027DD002008701448007820F0100010300F
:10111000114908701248007820F010001030104972
:10112000087016E000200D4908700A480078C0F3E6
:10113000001070B90848007820F0100006490870C7
:101140000748007820F01000054908700020054984
:10115000087070470800002009000020B20200203B
:101160000A000020C90200202048007800F0010099
:10117000F0B11F48007800F00100C8B91D480078A0
:10118000401C1C4908700846007802282DDD00200C
:1011900008701748007820F00100401C14490870BE
:1011A0001548007820F00100401C134908701CE02D
:1011B0000020104908700D48007800F00100A0B927
:1011C0000B48007820F00100094908700A480078AF
:1011D00020F00100084908700020084908700848FC
:1011E000007820F080000649087070470800002051
:1011F00009000020B00200200A000020CA020020DE
:10120000060000201B4800780121B1EBD01F1DD142
:1012100019480078C009C8B918480078401C174917
:10122000087008460078022823DD00200870124864
:10123000007820F0800080300F4908701048007856
:1012400020F0800080300E49087012E000200B4929
:10125000087008480078C00958B90748007820F09D
:101260008000054908700648007820F08000044995
:10127000087070470800002009000020B302002019
:101280000A00002010B50446122C12D2DFE804F048
:1012900009121B2C11111111111111113D6E7F90AA
:1012A000B1D20121002001F03BFB0021012001F01F
:1012B00037FBF0E00021084601F032FB012108462F
:1012C00001F02EFBE7E00021084601F029FB002198
:1012D000012001F025FB0121022001F021FB00216A
:1012E000032001F01DFBD6E00021084601F018FBA9
:1012F0000021012001F014FB0021022001F010FB6D
:101300000121032001F00CFBC5E00121002001F0C8
:1013100007FB0121084601F003FB0121022001F037
:10132000FFFA0121032001F0FBFA0121082001F05E
:10133000F7FA0121092001F0F3FA01210A2001F056
:10134000EFFA01210B2001F0EBFA0121042001F05A
:10135000E7FA0121052001F0E3FA0121062001F05E
:10136000DFFA0121072001F0DBFA94E000210846B2
:1013700001F0D6FA0021012001F0D2FA002102206A
:1013800001F0CEFA0021032001F0CAFA83E0002127
:10139000082001F0C5FA0021092001F0C1FA00215E
:1013A0000A2001F0BDFA00210B2001F0B9FA72E029
:1013B0000021084601F0B4FA0021012001F0B0FA42
:1013C0000021022001F0ACFA0021032001F0A8FA6C
:1013D0000021082001F0A4FA0021092001F0A0FA60
:1013E00000210A2001F09CFA00210B2001F098FA5C
:1013F00051E00021084601F093FA0021012001F09C
:101400008FFA0021022001F08BFA0021032001F065
:1014100087FA0021082001F083FA0021092001F059
:101420007FFA00210A2001F07BFA00210B2001F055
:1014300077FA30E00021084601F072FA002101201D
:1014400001F06EFA0021022001F06AFA0021032067
:1014500001F066FA0021082001F062FA002109205B
:1014600001F05EFA00210A2001F05AFA00210B2057
:1014700001F056FA0021042001F052FA0021052063
:1014800001F04EFA0021062001F04AFA002107205F
:1014900001F046FA00BF00BF10BD000010B50446C1
:1014A000052C30D2DFE804F0030D17242E000F20A6
:1014B000FFF7E8FE154909780F31C8B201F0F2F9DB
:1014C00021E01020FFF7DEFE104909780F31C8B285
:1014D00001F0E8F917E001200D4908700E20FFF730
:1014E000D1FE0220FFF7CEFE012001F0DBF90AE079
:1014F0000E20FFF7C7FE0320FFF7C4FE182001F0FF
:10150000D1F900E000BF00BF10BD000021000020A5
:10151000C502002010B50146002000BF14E000EB1A
:10152000800202EBC0020A4B03EB4202127C4AB17A
:1015300000EB800303EBC003054C04EB43039981EC
:10154000044B9981421CD0B20428E8DB10BD000096
:10155000F80200206003002010B500244348006812
:1015600080094349097860F30001414801703F4810
:101570000068C0093E49097860F341013C480170A8
:101580003C48806800093A49097860F3820138488C
:1015900001703848806840093549097860F3C30113
:1015A00033480170344800683149097860F3041108
:1015B0002F4801702D48006840092D49097860F3D3
:1015C00045112B480170294800680009284909780D
:1015D00060F386112648017024480068C008244939
:1015E000097860F3C7112248017000BF3BE0204832
:1015F00000786100084100F00300032831D104EBBA
:10160000840000EBC4001D4901EB4000807D40BB1D
:10161000022004EB840101EBC401184A02EB4101F2
:10162000887504EB840000EBC40002EB4000817D70
:1016300001222046FEF7ECFD0021204600F0D4FEFA
:10164000002004EB840101EBC4010C4A02EB4101D0
:10165000C8730B480078401EA04202D11F2001F041
:1016600021F9601CC4B2042CC1DB10BD0808014084
:101670001600002000100140080C0140F802002074
:101680002100002070B504460025012C00DA012459
:10169000052C5BDA601E00EB800101EBC0009C4969
:1016A00001EB4000807D50B9601E00EB800101EB32
:1016B000C000974901EB4000407D002846D0601EE5
:1016C00000EB800101EBC000914901EB4000807DFF
:1016D000012803D1192001F0E5F82BE0601E00EB92
:1016E000800101EBC0008A4901EB4000807D0228A7
:1016F00003D11F2001F0D6F81CE0601E00EB800132
:1017000001EBC000824901EB4000407D012803D17C
:101710001E2001F0C7F80DE0601E00EB800101EB18
:10172000C0007B4901EB4000407D022802D11D2012
:1017300001F0B8F80020764908740021744880F858
:101740002A1080F8441080F85E1070BD062C7CD200
:10175000DFE804F0CF03172C425701206C490874CE
:1017600000216B4880F82A1080F8441080F85E1041
:1017700001206849887204F10F01C8B201F092F8A3
:10178000C3E00020624908740121614880F82A10F2
:10179000002180F8441080F85E1002205D498872B4
:1017A00004F10F01C8B201F07DF8AEE00020584905
:1017B00008740021564880F82A10012180F844104E
:1017C000002180F85E1003205249887204F10F0155
:1017D000C8B201F067F898E000204D490874002174
:1017E0004B4880F82A1080F84410012180F85E10E0
:1017F00004204849887204F10F01C8B201F052F880
:1018000083E0002567E005EB850000EBC50040495B
:1018100001EB4000807D48B9012005EB850101EB1B
:10182000C5013B4A02EB4101087408E0002005EBCA
:10183000850101EBC501364A02EB4101087405EB55
:10184000850000EBC500324900E052E001EB4000AA
:10185000807D02280ED11F2001F024F800202C49A1
:10186000087400212A4880F82A1080F8441080F873
:101870005E106AE705EB850000EBC500244901EB2B
:101880004000407D28B305EB850000EBC50001EB6F
:101890004000407D012803D11E2001F003F80CE038
:1018A00005EB850000EBC500194901EB4000407DC8
:1018B000022802D11D2000F0F5FF00201449087411
:1018C0000021134880F82A1080F8441080F85E1038
:1018D0003BE7681CC5B2042D95DB01F0D7FA0F2851
:1018E00003D1192000F0DEFF02E0142000F0DAFF3F
:1018F0000BE00020064908740021054880F82A10F2
:1019000080F8441080F85E1000BF00BF00BF1CE7E5
:10191000F80200206003002010B5F8480078C0F3FA
:101920004010C0B101F028FB01F010FB00B110BD68
:10193000F3480078012807D00120F14908700846D3
:101940000078FFF7ABFD06E00020ED49087008467F
:101950000078FFF7A3FDEA48007805287AD2DFE88F
:1019600000F00392FDFCFB00E4480078C00930B1B0
:1019700001F002FBE348007800F004FC82E0DF485D
:101980000078C0F38010F0B101F0F6FADD4800787D
:10199000401CDC49087008460078052801DD01205C
:1019A000087001F09FFA30B1D6480078052802D1BE
:1019B0000120D4490870D3480078FFF763FE0D205A
:1019C000FFF760FC5EE0CD48007800F0010090B1C8
:1019D00001F0D2FA01F0A4FA002853D0C9480078E7
:1019E00005284FDA01F00EFB044600F0D3FE00207C
:1019F000FFF748FC46E0C1480078C0F3400088B1DA
:101A000001F0BAFA01F08CFA18B3BE480078052844
:101A100038DA01F0F7FA044600F0BCFE0020FFF7C8
:101A200031FC2FE0B5480078C0F3800098B101F098
:101A3000A3FA01F075FA60B1B2480078052821DAFE
:101A400001F0FCFA84B2204601F0C2FC0120FFF74D
:101A500019FC17E019E2A9480078C0F3C00088B16A
:101A600001F08AFA01F05CFA60B1A6480078052816
:101A700008DA01F0E3FA84B2204601F0A9FC012063
:101A8000FFF700FC02E39D480078C0F3001048B364
:101A90009D480078401C9C4908700846007828281A
:101AA00001DB01F069FA95480078C0F3800048B185
:101AB00001F062FA02209249087008460078FFF7A8
:101AC000EDFCE2E18D480078C0F3C0000028F8D0BA
:101AD00001F052FA03208A49087008460078FFF79F
:101AE000DDFCD2E185480078C0F38010B8B101F088
:101AF00043FA84480078401C824908700846007800
:101B0000042801DD012008707E480078FFF7BAFD47
:101B10000D20FFF7B7FB0E20FFF7B4FBB5E17748C8
:101B2000007800F00100A0B301F0FAF90028C8D055
:101B3000744800780428C4DC74480078401C734959
:101B4000087073480078C00918B1084600780F285B
:101B5000B7DB6F48007802E02EE22CE296E1C00984
:101B600018B900206949087002E00A206749087026
:101B700001F048FA6749087065480078C00948B123
:101B8000084600785A280EDC084600780A300870AB
:101B900009E01CE05F480078642804DA5D480078BA
:101BA000401C5C49087057490978491EC8B2594918
:101BB000097801F065F85748007800F0EBFD5448CB
:101BC000007820F080008030514908705DE14B487A
:101BD0000078C0F3400098B301F0A2F900289DD02E
:101BE00048480078042899DC4B480078401C4A4952
:101BF00008704A48007800F0010018B108460078E3
:101C00000F288BDB4548007800F0010018B9002050
:101C10004149087002E00A203F49087001F0F2F9DA
:101C20003C4908703D48007800F0010048B1084682
:101C300000780A280DDB084600780A38087008E0AA
:101C40001BE03448007820B132480078401E31490A
:101C500008702C490978491EC8B22E49097801F04C
:101C60000FF82C48007800F095FD2C48007820F003
:101C70000100401C2949087007E120480078C0F3A2
:101C80008000002873D001F04BF900289ED01D4839
:101C9000007804289ADC22480078401C204908700B
:101CA0001E480078C0F3400018B1084600780F289D
:101CB0008CDB1A480078C0F3400018B9002018499E
:101CC000087002E00A201649087001F0B7F91549BA
:101CD000088012480078C0F3400088B308460088A6
:101CE00040F2DE3188421FDD0E480088B0F57A7F71
:101CF0001ADA4FF47A700B49088050E00A0000208D
:101D0000C302002021000020C4020020CA020020DB
:101D100006000020B4020020CB02002007000020B3
:101D2000CC020020B8020020DA48008840F2E731F7
:101D3000884206DAD74800880A30D64908802EE063
:101D40000BE0D448008842F2A261884227DAD148E9
:101D500000886430CF49088021E0CE48008840F2F6
:101D6000E731884204D1401CCA49088017E026E0C8
:101D7000C848008840F2E731884205DAC548008843
:101D8000401CC44908800AE0C248008842F206713B
:101D9000884204DABF4800880A30BE490880BD483E
:101DA0000088FFF7B7FBBB48008801F011FBBA4879
:101DB000007820F00200801CB749087065E0B74841
:101DC0000078C0F3C00098B301F0AAF880B3B4481B
:101DD0000078042859DCB3480078401CB1490870E9
:101DE000AD480078C0F3800018B1084600780F288D
:101DF0004BDBA9480078C0F3800018B90020A9493E
:101E0000087002E00A20A749087001F017F9A149FB
:101E10000880A1480078C0F38000A0B1084600887F
:101E2000B0F57A7F05DB08460088643808801DE03D
:101E30002BE0984800880A2818DD964800880A3860
:101E40009449088012E093480088B0F57A7F05DD58
:101E5000904800880A388F49088007E08D4800883C
:101E600020B18C480088401E8A4908808948008833
:101E7000FFF750FB8748008801F0AAFA86480078EF
:101E800020F00400001D84490870FFE083480078BA
:101E900000287CD084480078401C8349087008469C
:101EA000007802281DDB002008707C480078C0F311
:101EB0008000B8B179480078C0F3C00090B17B4889
:101EC0000078401C79490870084600784B2871DB7F
:101ED0000020087000221146C820FEF761F901F0C9
:101EE0004BF867E06D480078C0F3800098B101F0CE
:101EF00043F86F480078401C6D4908700846007828
:101F0000062801DD0120087000226948017810468A
:101F100001F0DEFB4EE061480078C0F3C000B0B1D4
:101F200001F02AF86248007820B161480078401E2C
:101F30005F4908705E48007810B906205C49087057
:101F400000225B480178104601F0C2FB32E05348A2
:101F50000078C0F3001048B356480078401C55493B
:101F6000087008460078022809DA53480278504879
:101F70000178012001F0ACFB0420504908704D4865
:101F80000078252816DB00204A49087000E00EE0A2
:101F900000F0F2FF00221146C820FEF701F90120EF
:101FA0004649087008460078FFF778FA02E00020FA
:101FB0003D4908706AE069E03848007800F00100A7
:101FC00000B300F0D9FF3A480078062809D13A4812
:101FD0000078022805DA38480078401C3649087035
:101FE00008E035480078012804DA33480078401CBE
:101FF00031490870304802782D480178012001F0FD
:1020000067FB42E025480078C0F3400088B100F04B
:10201000B3FF2948007820B127480078401E2649A0
:1020200008702548027822480178012001F050FB11
:102030002BE01A480078C0F3001030B31D48007838
:10204000401C1C49087008460078022808DA002263
:1020500017480178104601F03BFB02201749087031
:1020600014480078962810DB00201249087000F010
:1020700083FF00221146C820FEF792F801200F4985
:10208000087008460078FFF709FA00BF00BF00BFDC
:102090004DE40000B8020020070000200A000020E4
:1020A00021000020CD020020C8020020C60200202E
:1020B000C5020020C9020020C7020020C302002080
:1020C00010B5002400BF23E0002004EB840101EBE5
:1020D000C401114A02EB4101C880002104EB8400D5
:1020E00000EBC40002EB40000172204600F07CF9D6
:1020F000002211462046FEF78BF8002004EB8401F5
:1021000001EBC401044A02EB4101C873601CC4B274
:10211000042CD9DB10BD0000F802002010B500240B
:1021200000BF27E004EB840000EBC400134901EB7F
:102130004000007A01281BD1002104EB840000EB51
:10214000C4000E4A02EB40000172002211462046F4
:10215000FEF75EF80A4931F8240001F039F900F081
:10216000F5FE28B9002211464FF47A70FEF718F8F0
:10217000601CC4B2042CD5DB10BD0000F8020020A6
:10218000C003002070B5064600250024012E00DAA9
:1021900070BD701EC4B200F0D9FE28B900F0A2FED6
:1021A00010B900208C490870042C7CDA8A48007829
:1021B000042878DC04EB840000EBC400874901EBC1
:1021C0004000407C012859D104EB840000EBC4009E
:1021D00001EB4000C07B002850D104EB840000EBF1
:1021E000C40001EB4000807BF0B3012004EB8401CC
:1021F00001EBC401794A02EB4101C873002004EBF2
:10220000840101EBC40102EB4101487404EB84003A
:1022100000EBC400114601EB4000808904EB84010F
:1022200001EBC40102EB4101C880002105EB8500F0
:1022300000EBC50002EB400001720121204600F0D6
:10224000D3F800221146C820FDF7AAFF0122002181
:102250002046FDF7DDFF604806700020604921F848
:1022600024006049088000E008E00021084600F0F2
:1022700057FB0021012000F053FBAAE004EB84008F
:1022800000EBC400554901EB4000C07B0128F4D1AC
:10229000002004EB840101EBC401504A02EB410130
:1022A000C880002100E018E004EB840000EBC400CB
:1022B00002EB40000172204600F096F80022114621
:1022C0002046FDF7A5FF002004EB840101EBC401CB
:1022D000424A02EB4101C8737BE0042C79DB3E48A3
:1022E000007818B13C480078042872DD00F0FAFD4F
:1022F00000286ED100F02AFE002868D1002563E096
:1023000005EB850000EBC500344901EB4000407C43
:10231000012857D105EB850000EBC50001EB40001B
:10232000C07BE0BB04EB840000EBC40001EB400089
:10233000807BA0B3012005EB850101EBC501274A95
:1023400002EB4101C873002005EB850101EBC501DB
:1023500002EB4101487405EB850000EBC500114616
:1023600001EB4000808905EB850101EBC50102EB23
:102370004101C880002105EB850000EBC50002EBA0
:102380004000017200221146C820FDF709FF01211B
:10239000284600F029F801220021284600E011E03B
:1023A000FDF736FF0C48067000200D4921F8250086
:1023B0000C4908800021084600F0B2FA00210120F3
:1023C00000F0AEFA681CC5B2042D99DB01E0FFF7FE
:1023D00077FE00BFDCE600002A000020F8020020A3
:1023E000C00300202800002070B504460D46032CD1
:1023F00000DD70BD95B304EB840000EBC4002349FD
:1024000001EB4000807B64280BD104EB840000EBDF
:10241000C40001EB4000827B0121204601F0C4FB97
:1024200009E000221146204601F0BEFB01222146B0
:10243000174801F0A2FB002004EB840101EBC4016A
:10244000124A02EB4101C87504EB840101EBC4019F
:1024500002EB4101087600F0CBFC15E0FFE700201D
:1024600004EB840101EBC401084A02EB4101C87589
:1024700004EB840101EBC40102EB41010876002268
:102480000121204601F090FB00BFB2E7F8020020D6
:10249000002C014070B50024002517E064104FF4B3
:1024A00000600C494861022000F0DAF809488068B1
:1024B000C0F3802008B144F080044FF40060054967
:1024C0000861022000F0CCF8681CC5B2082DE5DBDD
:1024D000204670BD0010014010B507480078C0F3D9
:1024E000400040B10448007820F002000249087022
:1024F00002A000F095FC10BD060000200D0A32304D
:1025000032362E30392E32322C536F667420566597
:102510007273696F6E2056302E30320D0A00000043
:1025200010B501F0A9F910BD10B51348006840F0CE
:1025300001001149086008464068104908400E49EA
:102540004860084600680E4908400B490860084684
:10255000006820F4802008600846406820F4FE00EF
:1025600048604FF41F008860FFF7DAFF4FF000600B
:102570000449086010BD0000001002400000FFF890
:10258000FFFFF6FE08ED00E010B51F48006800F000
:102590000100002837D04FF6FE701B4908601B4829
:1025A000008820B119480088401E18490880184842
:1025B000008820B116480088401E1549088015483B
:1025C000008820B113480088401E12490880124834
:1025D0000078C0F3801038B11048008820B10F484F
:1025E0000088401E0D4908800D480088401C0C4999
:1025F000088008460088642803DB0020088000F07B
:102600004BFD00F085FB10BD1004004000000020D1
:102610000400002012000020060000201E00002000
:102620000200002010B5402000F094FA4FF48050D2
:102630000A494861C02000F063FA002404E0002049
:1026400000F05EFA601CC4B2102CF8DB4FF480502E
:1026500002490861012000F003F810BD001001409C
:1026600008B50BE00021009104E0BDF80010491C02
:1026700089B20091BDF800105029F6DB011EA0F1CF
:10268000010290B2EED108BD2DE9F05F06460C467E
:102690001746012F00DD0127022E01DDBDE8F09F66
:1026A000302C05DB392C03DCA4F13000C5B214E07A
:1026B000412C05DB462C03DCA4F13700C5B20CE04D
:1026C000612C05DB662C03DCA4F15700C5B204E0E5
:1026D0002D2C01D1102500E011251648405D40EA5F
:1026E000C71000F0FF0870064FEA106908F00F0AE3
:1026F0004FEA181B402000F02DFA4FF480500E498D
:1027000048610A20FFF7ACFF49F0C00000F0F8F97B
:10271000504600F0F5F9584600F0F2F90A20FFF7AC
:102720009FFF4FF48050044908610A20FFF798FF8B
:1027300000BFB3E7003E0008001001402DE9F04162
:1027400005460C466806060E04F00F074FEA1418FB
:10275000402000F0FFF94FF480500D4948610A20F5
:10276000FFF77EFF46F0C00000F0CAF9384600F0DF
:10277000C7F9404600F0C4F90A20FFF771FF4FF493
:102780008050034908610A20FFF76AFFBDE8F08125
:10279000001001402DE9F0410446B4F57A7F01DBD9
:1027A00040F2E734642094FBF0F0C6B20A2094FBB8
:1027B000F0F00A2190FBF1F201FB1200C5B20A20F1
:1027C00094FBF0F100FB1140C7B27EB9002108462E
:1027D000FFF7B4FF25B900210120FFF7AFFF0FE09D
:1027E0000B48415D0120FFF7A9FF09E00848815D22
:1027F0000020FFF7A3FF0648415D0120FFF79EFF81
:102800000348C15D0220FFF799FFBDE8F081000099
:10281000003E000813B59DF80000092805DD0022E0
:1028200020211046FFF730FF0CE09DF8000030300B
:10283000C0B28DF800009DF801209DF80010002026
:10284000FFF722FF9DF80200092805DD0022202164
:102850000120FFF719FF0CE09DF802003030C0B2F4
:102860008DF802009DF803209DF802100120FFF76B
:102870000BFF9DF80400092805DD0022202102201D
:10288000FFF702FF0CE09DF804003030C0B28DF875
:1028900004009DF805209DF804100220FFF7F4FEC7
:1028A0001CBD00002DE9F047054600260024212D1F
:1028B00001DBBDE8F08700242AE005EB450016495E
:1028C0000844065D6006070E06F00F084FEA161969
:1028D000402000F03FF94FF48050104948610A2031
:1028E000FFF7BEFE47F0C00000F00AF9404600F0D6
:1028F00007F9484600F004F90A20FFF7B1FE4FF44B
:102900008050064908610A20FFF7AAFE601CC4B285
:10291000032CD2DB00BFCCE7123E000800100140C0
:102920002DE9F04104460D46002600273DB1012067
:10293000A0401449098808431249088006E0012094
:10294000A0401049098881430E480180042C05DA13
:1029500006260C48007800F00F070CE0082C05DA7A
:10296000082608480078C0F3031704E00A26054843
:102970000088C0F303273946304600F00BF9BDE864
:10298000F0810000AE02002070B54FF480505A492B
:1029900048610220FFF764FE422000F0B1F80220F7
:1029A000FFF75EFE00BF0822D101534800F0F2FDA0
:1029B00000BF0520FFF754FEFFF76CFD0546FFF74B
:1029C00069FD04464FF480504B4908610A20FFF727
:1029D00047FE00BF43224FF48061474800F0DAFD14
:1029E00000BF05F0040038B14448007820F0010031
:1029F000401C4249087005E04048007820F0010082
:102A00003E49087004F0400038B13C48007820F09E
:102A10000200801C3949087005E03848007820F031
:102A200002003649087005F0400038B1334800789C
:102A300020F00400001D3149087005E02F4800789F
:102A400020F004002D49087004F0040038B12B4830
:102A5000007820F0080008302849087005E0274871
:102A6000007820F008002549087004F0080038B10B
:102A70002248007820F0100010302049087005E04E
:102A80001E48007820F010001C49087005F008006E
:102A900038B11A48007820F020002030174908701B
:102AA00005E01648007820F020001449087005F071
:102AB000800038B11148007820F0400040300F49C4
:102AC000087005E00D48007820F040000B490870C0
:102AD00004F0800038B10948007820F08000803090
:102AE0000649087005E00548007820F08000034999
:102AF00008700248007870BD0010014008000020F6
:102B000070B5044600251FE04FF40060104948618D
:102B10000120FFF7A5FD04F0010020B14FF4806013
:102B20000B49086103E04FF4806009494861641073
:102B30000120FFF795FD4FF4006005490861022070
:102B4000FFF78EFD681CC5B2082DDDDB70BD0000EF
:102B50000010014010B504464FF480500749486109
:102B60000220FFF77DFD2046FFF7CAFF4FF480509B
:102B7000024908610220FFF773FD10BD00100140FB
:102B800010B50446072C00DD072444F08800FFF749
:102B9000E1FF10BD70B504460D464420FFF7DAFF93
:102BA0004FF480500949486104F00F0141F0C00022
:102BB000FFF7A6FF2846FFF7A3FF4FF48050034915
:102BC00008610120FFF74CFD70BD000000100140BE
:102BD00026480068C0F34010002845D02348001D57
:102BE00000682349087008460078282805D0214845
:102BF0000078C0F3C000002836D01E48007820F0CE
:102C0000080008301B490870194801781A480278F2
:102C10000078401C184B18701848815418460078EA
:102C2000092806DC18460078401E1449085C29284B
:102C30001AD11248407852280AD1104880782928A1
:102C400006D10C48007820F00200801C0949087069
:102C50000020094908700949887008700548007803
:102C600020F0080003490870704700000038014058
:102C7000A102002006000020A0020020D0030020B6
:102C8000642900DD6421042800DD7047042823D175
:102C90001B4A917382F8281082F8421082F85C1067
:102CA000184A32F811205200174B1A60154A32F8B0
:102CB00011205300144A343A9363124A32F8112017
:102CC0005300114A343AD3630E4A32F811205300AC
:102CD0000D4A343A136410E000EB800202EBC002AC
:102CE000074B03EB42029173064A32F8112053005E
:102CF000054A42F82030054A917300BFC5E700003D
:102D0000F802002040000020342C01406003002025
:102D100010B51B48008828B119480088401E184982
:102D2000088007E01748008820B116480088401E38
:102D3000144908801248008878B11348007800F0E0
:102D4000010050B91048007820F00100401C0E49E5
:102D500008700120FDF736FA10E00948008868B9CC
:102D60000948007800F0010040B10748007820F0E1
:102D70000100054908700020FDF724FA10BD00008D
:102D80000C0000200E0000200600002014480078EF
:102D9000C0F3801018B31248007820F040001049AA
:102DA000087000200F4908800F48006820F4A00038
:102DB0000D4908600846006820F0010008600846D8
:102DC000006820F4807008600848806820F00200E5
:102DD000064988600846806820F0010088607047D6
:102DE000060000201E0000200824014000000240D0
:102DF00010B509480078C0F3801040B90648007843
:102E000020F04000403004490870FDF77DFC32207E
:102E10000249088010BD0000060000201E000020AE
:102E2000014A024900F026B979350008DC02002089
:102E300002E008C8121F08C1002AFAD17047704783
:102E4000002001E001C1121F002AFBD170470000E1
:102E500010B501460022032901DD012010BD01EB60
:102E6000810000EBC100084B03EB4000807D01EBCB
:102E7000810303EBC103044C04EB43035B7D40EA95
:102E80004300C2B21046E9E7F802002000200949D9
:102E90008A7D91F8301042EA4102064991F84A10C1
:102EA00042EA8102034991F8641042EAC101C8B2C2
:102EB00070470000F8020020002009494A7D91F87F
:102EC0002F1042EA4102064991F8491042EA810274
:102ED000034991F8631042EAC101C8B2704700008B
:102EE000F802002000B50D48807D022811D00B4863
:102EF00090F8300002280CD0084890F84A000228C8
:102F000007D0064890F86400022802D0FFF7D4FFEB
:102F100008B1012000BD0020FCE70000F8020020FD
:102F2000002009490A7C91F82A1042EA4102064928
:102F300091F8441042EA8102034991F85E1042EA96
:102F4000C101C8B270470000F80200200020094902
:102F5000CA7B91F8291042EA4102064991F84310D0
:102F600042EA8102034991F85D1042EAC101C8B208
:102F700070470000F8020020002017490870174928
:102F800008701749087017490870174908701749E1
:102F900008701748007820F080001549087000205C
:102FA000144908701448007820F001001249087094
:102FB0000020124908701048007820F002000E49E5
:102FC000087000200E4908700B48007820F00400BB
:102FD00009490870704700000A000020C402002060
:102FE000C6020020C8020020C9020020CA02002038
:102FF00006000020CB02002007000020CC020020A9
:10300000CD020020002100BF12E001EB810000EBA7
:10301000C100094A02EB4000007C38B101EB81009D
:1030200000EBC10002EB4000807B7047481CC1B23E
:103030000429EADB0020F8E7F8020020002100BFA5
:1030400012E001EB810000EBC100094A02EB4000F5
:10305000007C38B101EB810000EBC10002EB4000C5
:1030600080897047481CC1B20429EADB0020F8E7D8
:10307000F80200202DE9F04116460F4604460025CF
:1030800003E03946B047641C6D1C20780028F8D155
:103090002846BDE8F081000010B50024FFF756FF78
:1030A00050B13448008842F20671884204DA31484F
:1030B0000088401C2F490880002457E004EB84005E
:1030C00000EBC4002C4901EB4000C07B68B12B48E9
:1030D00030F8240042F20671884206DA274830F8B8
:1030E0002400401C254921F8240004EB840000EB57
:1030F000C400214901EB4000C088A8B304EB840060
:1031000000EBC40001EB4000C07B68B304EB84001B
:1031100000EBC40001EB4000C088401E04EB8401BA
:1031200001EBC401144A02EB4101C88004EB8400A6
:1031300000EBC400114601EB4000C088A0B901219A
:1031400004EB840000EBC40002EB4000017200219C
:103150002046FFF749F9002004EB840101EBC4018C
:10316000054A02EB4101C873601CC4B2042CA5DB04
:1031700010BD000028000020F8020020C00300203D
:1031800000B58DB01D48406940F001001B49486101
:103190001B4800F0A9F91B4802901B48039000202F
:1031A00004900520059000200690802007904000A4
:1031B00008908000099020200A9000020B900020C7
:1031C0000C9002A90E4800F0A9F90B208DF804001C
:1031D00000208DF805008DF8060001208DF807000D
:1031E00001A800F007FB06480838806840F002009C
:1031F0000349083988600DB000BD0000001002408E
:10320000080002404C240140DA03002010B5D1E947
:1032100000231A4343680B4C23401A434260D1E910
:1032200002231A430B691A438368074C23401A434D
:103230008260C26A22F470038A8A521E43EA0252F2
:10324000C26210BDFFFEF0FFFDF7F1FF70B5092966
:1032500010DDC468A1F10A0505EB45060725B54058
:10326000AC43A1F10A0505EB450502FA05F52C432F
:10327000C4600BE0046901EB41060725B540AC438F
:1032800001EB410502FA05F52C430461072B0EDA28
:10329000446B5D1E05EB85061F25B540AC435D1EE6
:1032A00005EB850501FA05F52C43446320E00D2B61
:1032B0000EDA046BDD1F05EB85061F25B540AC4318
:1032C000DD1F05EB850501FA05F52C4304630FE0CE
:1032D000C46AA3F10D0505EB85061F25B540AC4377
:1032E000A3F10D0505EB850501FA05F52C43C46234
:1032F00070BD70B502460B46002400210025032B4B
:1033000001DA002070BD002419E0002112E032F83B
:103310001160481C32F81000864209DD32F8115065
:10332000481C32F8100022F81100481C22F81050F6
:10333000481CC1B2581E8842E9DC601CC4B29C42E1
:10334000E3DB0025012405E032F81400284485B2AF
:10335000601CC4B2981EA042F6DA95FBF0F080B271
:10336000D0E7000010B50446012C00DA10BD042C93
:103370000EDDFFF7EBFD58B111480078042807DD9A
:10338000FFF79AFD20B90F48008800F021F814E0FB
:10339000601E00EB800101EBC0000B4901EB400017
:1033A000C07B50B1611EC8B2FFF752FD28B9611E43
:1033B000064A32F8210000F00BF800BFD6E7000003
:1033C0002A00002028000020F8020020C00300206E
:1033D0001CB504464CB9632042490870002048706F
:1033E00088700120C8700C7170E0092C09DC632022
:1033F0003C4908700020487088700120C8700C712A
:1034000064E0632C12DC63203649087000204870A9
:103410000A2094FBF0F088700120C8700A2094FB09
:10342000F0F100FB11402F4908714FE0B4F57A7FAD
:1034300025DA642094FBF0F02A49087000204870D7
:103440000846007800EBC00101EB0010A4EB8000FF
:1034500084B20A2094FBF0F0224988700120C870E1
:103460000846807800EB8000A4EB400084B20A207C
:1034700094FBF0F100FB11401A49087126E042F27A
:103480000F70844222DC0A2094FBF0F084B26420A6
:1034900094FBF0F01349087000204870084600784B
:1034A00000EBC00101EB0010A4EB800084B20A2005
:1034B00094FBF0F00B4988700020C87008468078B3
:1034C00000EB8000A4EB400084B20C710548016859
:1034D00000918088ADF80400DDE90001FFF79AF95A
:1034E0001CBD00002200002001684FF6FE72114052
:1034F00001600021016041608160C1600649411A9C
:1035000008390522B1FBF2F20F219140024A5268BC
:103510001143014A516070470000024010B500227B
:10352000134C0B68A34203D0124C0B68A34202D188
:103530004FF440534B62026847F6F0739A430C6AAB
:103540008B6823430C6923434C6923438C692343D1
:10355000CC6923434C6A23438C6A23431A43026099
:10356000CB6843600B6883604B68C36010BD00008C
:103570002854004028580040C2B2054B1A6000BFD2
:10358000034A121F1268C2F3C012002AF8D0704713
:1035900004380140F0B503460D4600210020002408
:1035A000EEB246B3196800BF22E0012686402E40E5
:1035B000EEB1840002F0400696B90F26A640B14352
:1035C00002F00F06A6403143182A03D10126864097
:1035D0005E610CE0082A0AD1012686401E6106E0E1
:1035E0000F26A640B14302F00F06A6403143401C0F
:1035F0000828DAD3196005F47F4676B359680020AD
:1036000028E000F10806012707FA06F62E4006B367
:10361000840002F04006AEB90F26A640B14302F086
:103620000F06A6403143182A04D100F10806B7401E
:103630005F610EE0082A0CD100F108060127B740AF
:103640001F6106E00F26A640B14302F00F06A64018
:103650003143401C0828D4D35960F0BD29B1064A33
:1036600052680243044B5A6004E0034A52688243A2
:10367000014B5A607047000000000140FDF700F95F
:10368000FDF77EF9FDF7AAFA01200F4988700022A4
:103690001146C820FCF784FDFDF744F9FDF76AFBED
:1036A00011E00A48008840B9142008490880FFF753
:1036B0006BF9FDF7B5FCFDF74FFFFEF72FFD00F0AE
:1036C0009FFAFEF709FFECE7170000200400002036
:1036D00070B505460E461446072E18D2DFE806F0F0
:1036E0008504182C405468001DB90120FFF7DAF852
:1036F0000DE034B90720FFF7D5F800203C490870E9
:1037000005E00820FFF7CEF80120394908706CE089
:103710001DB90220FFF7C6F80DE034B90920FFF704
:10372000C1F800203249487005E00A20FFF7BAF8D6
:1037300001202F49487058E01DB90320FFF7B2F867
:103740000DE034B90C20FFF7ADF80020284988704F
:1037500005E00B20FFF7A6F801202549887044E01A
:103760001DB90420FFF79EF80DE034B90C20FFF7D7
:1037700099F800201E49C87005E00B20FFF792F869
:1037800001201B49C87030E01DB90520FFF78AF8F9
:103790000DE034B90C20FFF785F8002014490871BA
:1037A00005E00B20FFF77EF80120114908711CE0AD
:1037B0001DB90620FFF776F816E034B90D20FFF7A3
:1037C00071F800200A4948710EE0012C06D10E2044
:1037D000FFF768F801200649487105E00F20FFF760
:1037E00061F802200249487100BF00BF70BD0000AF
:1037F0001700002070B5002100230F22C47804B305
:10380000154C246804F4E064C4F5E064210AC1F1B5
:103810000403CA40447804FA03F184781440214335
:1038200009010E4C0678A155047804F01F05012407
:10383000AC4005786D11AD0005F1E025C5F80041FB
:1038400009E0047804F01F050124AC40044D06781B
:10385000761145F8264070BD0CED00E000E400E074
:1038600080E100E00349496821F440410143014AF5
:1038700051607047001002400CB50020019000908C
:103880003348006840F480303149086000BF304858
:10389000006800F4003000900198401C01900098EE
:1038A00018B90198B0F5A04FF1D12948006800F48B
:1038B000003010B10120009001E00020009000983D
:1038C000012843D12348006840F0100021490860D6
:1038D0000846006820F0070008600846006840F0CD
:1038E000020008601A484068194948600846406864
:1038F00048600846406840F4806048600846406878
:1039000020F47C1048600846406840F4E8104860A5
:103910000846006840F08070086000BF0C480068EE
:1039200000F000700028F9D00948406820F003003A
:10393000074948600846406840F00200486000BF00
:103940000348406800F00C000828F9D10CBD0000C5
:103950000010024000200240026822F070024B88F2
:103960001A430260026822F440720B881A43026014
:103970008A88C262CA888262054A904202D0054A99
:10398000904201D10A89026301224261704700001E
:10399000002C01400034014030B5002301248C404C
:1039A000A3B2046ADD43ADB22C400462046A02FA99
:1039B00001F5ADB22C43046230BD000030B50A46BB
:1039C00000211178036A8D000124AC40A3430362F7
:1039D0004C1000F1180353F82430CC07250F732442
:1039E000AC40A3435488CD072D0FAC4023434D106A
:1039F00000F1180444F82530036A8D000324AC401C
:103A0000A343548995882C438D00AC402343036223
:103A1000124B984202D0124B984218D1036A8D0083
:103A20000C24AC40A3439489D5882C438D00AC4032
:103A30002343036243684D004FF44074AC40A343FA
:103A4000D489158A2C434D00AC402343436014892C
:103A500000F1340343F8214030BD0000002C014048
:103A6000003401403B4988420BD13B49C96841F4CD
:103A70000061394AD1601146C96821F40061D16002
:103A800067E0B0F1804F0BD13349096941F0010182
:103A9000314A11611146096921F00101116158E0B3
:103AA0002E4988420BD12C49096941F002012A4A6A
:103AB00011611146096921F00201116149E02849AB
:103AC00088420BD12449096941F00401224A11615D
:103AD0001146096921F0040111613AE02149884247
:103AE0000BD11D49096941F008011B4A11611146BA
:103AF000096921F0080111612BE01B4988420BD1B3
:103B00001549096941F01001134A1161114609690B
:103B100021F0100111611CE0144988420BD10E49BB
:103B2000096941F020010C4A11611146096921F02F
:103B3000200111610DE00E4988420AD10649C96889
:103B400041F40051044AD1601146C96821F4005182
:103B5000D1607047002C014000100240000400407A
:103B600000080040000C004000100040001400401D
:103B70000034014081624261704730B50023012A60
:103B800000DD01228D000124AC40A3B2046ADD43B4
:103B9000ADB22C400462046A8D0002FA05F5ADB2A4
:103BA0002C43046230BD000070B504460D46164635
:103BB000032C00DD70BD3DB90F4830F814104B22C6
:103BC0000E48FFF7E7FC14E00B4830F814104322CE
:103BD0000A48FFF7DFFC36B9074830F814000749F8
:103BE0001431086005E0044830F81400034910312E
:103BF000086000BFDEE70000380000200008014038
:103C000010B5002400BF7EE004EB840000EBC4008C
:103C1000514901EB4000407D022834D104EB84007F
:103C200000EBC40001EB4000007D60BB012004EB11
:103C3000840101EBC401484A02EB410108750020F0
:103C400004EB840101EBC40102EB4101C8800021B7
:103C500004EB840000EBC40002EB400001721D2065
:103C6000FEF720FE00212046FEF7BEFB04EB840099
:103C700000EBC400384A02EB4000417D012220469F
:103C8000FCF7C6FA3DE004EB840000EBC4003249C7
:103C900001EB4000407D012833D104EB840000EBB0
:103CA000C40001EB4000007D58BB012004EB8401FF
:103CB00001EBC401284A02EB41010875002004EB26
:103CC000840101EBC40102EB4101C880002104EB37
:103CD000840000EBC40002EB400001721E20FEF7DE
:103CE000E1FD00212046FEF77FFB04EB840000EBA2
:103CF000C400194A02EB4000417D01222046FCF736
:103D000087FA601CC4B2042CFFF67EAF134800781B
:103D100004281BDDFFF7D0F8C0B100240EE000201E
:103D200004EB840101EBC4010B4A02EB4101C873AF
:103D300000212046FEF758FB601CC4B2042CEEDBC9
:103D40000022114605480078FCF762FAFFF7FEF8FA
:103D500008B9FFF71BF810BDF80200202100002071
:103D6000002000BF3DE000EB800101EBC0011E4AD6
:103D700002EB4101097C49B300EB800101EBC0017A
:103D800002EB4101897D09BB00EB800101EBC00121
:103D900002EB4101497DC9B900EB800101EBC00193
:103DA00002EB4101C97B89B900EB800101EBC00145
:103DB00002EB4101897B91B1012100EB800202EB12
:103DC000C002094B03EB4202517408E0002100EBF2
:103DD000800202EBC002044B03EB42025174411C0F
:103DE000C8B20428BFDB7047F802002003490880EE
:103DF00000BF024909880029FBD17047000000205C
:103E00003F065B4F666D7D077F6F777C395E79710A
:103E10004000FFFFFF7904547350047C1C505C7316
:103E200038663E745B4F5B38793E731C38780454B7
:103E30006D043D005C545C7171006F7D066F5B4FDB
:103E40007F6639760639765B39764F39766677380C
:103E500038501C546C7978377954745C1C4040405D
:103E60003E79D0795C0671795B385E06385E5B38E6
:103E70005E4F385E66000000983E0008000000209B
:103E8000E00200004801000858400008E00200205D
:103E900008050000402E00080112E232BA010B7A38
:103EA000020A1A010C120422081207120E1216122C
:103EB0001D12241A2B3C123A12411248124F12566C
:103EC000125E1265126C1273127A128212891290AB
:103ED0001297129E12A612AD12B412BB12C212CACF
:103EE00012D112D812DF12E612EE12F512FC18826D
:103EF00003010A0112011901200127012E013601D7
:103F00003D0144014B0152015A01610168016F01F9
:103F100076017E0185018C0193019A01A201A9011C
:103F2000B001B701BE01C601CD01D401DB01E20140
:103F3000EA01F101F801FF0106020E0215021C025E
:103F400023022A0232023902400247024E0256027E
:103F50005D0264026B0272027A02810288028F02A1
:103F600096029E02A502AC02B302BA02C202C902C4
:103F7000D0DA1A90A01AB49C1AD09801BC120A1276
:103F800013121D12261230123A1243124D125612FB
:103F900060126A1273127D1A86E4129A12A312AD8D
:103FA00012B612C012CA12D312DD12E612F012FAC1
:103FB000106B03010D01160120012A0133013D019F
:103FC000460150015A0163016D01760180018A01A9
:103FD00093019D01A601B001BA01C301CD01D60133
:103FE000E001EA01F301FD01060210021A022302B8
:103FF0002D02360240024A0253025D02660270023E
:104000007A0283028D029602A002AA02B302BD02C6
:10401000C602D002DA02E302ED02F602A02A030A87
:104020000313031D03260330033A0343034D0356D2
:104030000360036A0373037D03860390039A03A35B
:1040400003AD03B603C003052501020D0B800A0171
:084050000203050A0F1432649B
:04000005080000ED02
:00000001FF
