:020000040800F2
:100000001005002001010008090100080B0100088B
:100010000D0100080F010008110100080000000098
:1000200000000000000000000000000013010008B4
:100030001501000800000000170100081901000860
:100040001B0100081B0100081B0100081B01000820
:100050001B0100081B0100081B0100081B01000810
:100060001B0100081B0100081B0100081B01000800
:100070001B0100081B0100081B0100081B010008F0
:100080001B0100081B010008490100081B010008B2
:100090001B0100081B0100081B0100081B010008D0
:1000A0001B0100081B0100081B0100081B010008C0
:1000B0001B0100087D0900081B0100081B01000846
:1000C0001B0100081B0100081B0100081B010008A0
:1000D0001B010008010F00081B0100081B0100089C
:1000E0001B0100081B0100081B010008DFF80CD0F1
:1000F00000F018F8004800471D1200081005002005
:100100000648804706480047FEE7FEE7FEE7FEE7B1
:10011000FEE7FEE7FEE7FEE7FEE7FEE71D09000853
:10012000ED000008064C074D06E0E06840F00103D2
:1001300094E8070098471034AC42F6D3FFF7DAFF93
:1001400074180008941800086FF001000149086055
:10015000704700000024014010B50446012C02D174
:1001600000F0B2F91BE000220221480701F0D4F9A7
:100170004FF08040406C20F400404FF080414864D4
:100180000846006820F00100086043220915044871
:1001900000F0CFFF4FF4806001491031086010BDBE
:1001A000000C014030B587B05248806940F004002F
:1001B000504988610846806940F01000886100223B
:1001C00002214D4800F0B5FF002204214A4800F00A
:1001D000B0FF00220221494800F0ABFF00220821B5
:1001E000464800F0A6FF40F692544FF47875414817
:1001F000806940F400703F4988614FF4404001F04D
:1002000087F800BF3B48C06840F400703949C860B7
:100210000846C06820F40070C86000BF01A800F064
:100220007EFF4FF46020039001A9354800F0F4FEF2
:10023000012305221946324800F01EFF0123052242
:1002400002212F4800F018FF012305220B212C4822
:1002500000F012FF012305220D21294800F00CFFB8
:100260002A462146264800F0D3FE0121244800F00A
:10027000C0FE0221224800F0BCFE0B21204800F005
:10028000B8FE0D211E4800F0B4FE4FF400011C48DA
:1002900000F0B6FE1A48001D006840F04000184902
:1002A000091D0860081D006840F00100091D086074
:1002B0000846006840F00800086000BF1048083099
:1002C0000068C0F3C0000028F8D10D48083000686D
:1002D00040F004000A490831086000BF08480830AF
:1002E0000068C0F380000028F8D100F0B5FE07B028
:1002F00030BD000000100240000801400010014025
:10030000002401400348806940F0080001498861E9
:10031000704700000010024010B51448806940F09A
:1003200010001249886143228914114800F001FF2E
:1003300043224FF400610E4800F0FBFE43224FF4CD
:1003400080610B4800F0F5FE4FF4805008490861C9
:1003500040100861401008610A2000F05BFB00F0CB
:100360003BFB052000F0A4FD10BD00000010024082
:100370000010014010B588B004464E4801F032F933
:100380004D4890FBF4F04D4908804D48806940F09D
:1003900004004B4988610846806940F40060886128
:1003A0000846806940F0010088614B228915454864
:1003B00000F0BFFE4B224FF40071424800F0B9FE3E
:1003C0004B224FF480613F4800F0B3FE4B224FF4C4
:1003D00000613C4800F0ADFE38480088ADF81800D8
:1003E0000020ADF81A00ADF81400ADF81600ADF815
:1003F0001C0005A92F4801F06FF86020ADF802003D
:100400000120ADF804000020ADF80600ADF80A00A8
:100410000820ADF80C000020ADF80E00ADF810007B
:100420008DF80000ADF808006946224801F086F812
:1004300001208DF800000020ADF8080069461D4835
:1004400001F07CF802208DF800000020ADF80800D3
:100450006946184801F072F803208DF8000000206A
:10046000ADF808006946134801F068F811480068C3
:1004700040F001000F4908600E484430006840F425
:1004800000400C494431086000221146094801F03F
:1004900043F800220121074801F03EF80022022122
:1004A000044801F039F800220321024801F034F831
:1004B00008B010BD002C014040190100D4000020FC
:1004C000001002400008014000B589B02C48806946
:1004D00040F008002A4988610846C06940F00100E0
:1004E000C8614B220915274800F023FE012148026C
:1004F00000F084FE47F22F50ADF81C000020ADF84C
:100500001E00ADF81800ADF81A00ADF8200006A9DD
:100510004FF0804000F0E0FF6020ADF806000120C1
:10052000ADF808000020ADF80A00ADF80E00082074
:10053000ADF810004001ADF812000020ADF8140035
:1005400002208DF8040043F69820ADF80C0001A9B4
:100550004FF0804000F0F2FF4FF08040006840F024
:1005600001004FF0804108600846406C40F40040B4
:10057000486401220221480700F0CEFF09B000BD07
:1005800000100240000C01401FB51B48C06940F03C
:1005900002001949C86140F2E730ADF808000020B8
:1005A000ADF80A00ADF80400ADF8060001A9134843
:1005B00000F092FF01224721104801F09BF81D2016
:1005C0008DF8000001208DF803008DF80100002057
:1005D0008DF80200684600F063FE08480C300068A1
:1005E00040F0010005490C3108600448006840F003
:1005F0000100024908601FBD0010024000040040D5
:1006000010B588B004462348806940F008002149AD
:1006100088610846806940F48040886108468069A6
:1006200040F0010088614B2240211B4800F081FD11
:1006300008228021184800F07CFD184801F070F86D
:100640000294002003900790059004900C200690DF
:1006500002A9124801F0BCF825208DF804000420FE
:100660008DF8050000208DF8060001208DF80700A8
:1006700001A800F015FE09480C30006840F0200089
:1006800006490C3108600846006840F400500860D4
:1006900008B010BD00100240000C014000380140BD
:1006A00010B58348007800F0010058B38148007805
:1006B00000F0010030BB80480078401C7E49087083
:1006C0000846007803282BDD002008707948007860
:1006D00020F00100401C7749087078480078401CE1
:1006E0007649087008460078642801DD002008700B
:1006F00072480178042000F013FC7048007800F084
:1007000023FA0DE000206C4908706948007800F079
:10071000010028B96748007820F001006549087099
:1007200063480078C0F3400070B362480078C0F3BB
:10073000400048BB62480078401C61490870084688
:10074000007803282EDD002008705A48007820F039
:100750000200801C574908705848007820B157485B
:100760000078401E554908705448007810B964203C
:100770005249087051480178042000F0D1FB4F48DD
:10078000007800F0E1F90DE000204D49087048487C
:100790000078C0F3400028B94648007820F00200F5
:1007A0004449087042480078C0F3001018B341482B
:1007B0000078C0F30010F0B942480078401C41496D
:1007C000087008460078032823DD002008703948A7
:1007D000007820F0100010303649087000203749AA
:1007E000087008460178042000F09AFB334800782E
:1007F00000F0AAF90DE00020324908702C4800787A
:10080000C0F3001028B92B48007820F010002949C7
:100810000870274800780121B1EBD01F3AD1254854
:100820000078C009A8BB28480078401C26490870F9
:100830000846007803283ADD002008701D4800783B
:1008400020F0800080301B4908702048007818B9DB
:1008500001201E49087002E000201C4908701B4856
:100860000178042000F094FB18480178082000F07B
:10087000EFF916480178092000F0EAF913480178E9
:100880000A2000F0E5F9114801780B2000F0E0F9AA
:100890000DE0FFE700200C49087005480078C0090A
:1008A00028B90448007820F080000249087010BD83
:1008B0000600002007000020DA000020DE000020F3
:1008C000DB000020DC000020DD000020DF00002035
:1008D00070B50024002517E064104FF400600C4947
:1008E0004861022000F096F809488068C0F3802033
:1008F00008B144F080044FF400600549086102200B
:1009000000F088F8681CC5B2082DE5DB204670BDF4
:100910000010014010B500F06FFD10BD10B5134878
:10092000006840F00100114908600846406810491D
:1009300008400E494860084600680E4908400B49C7
:1009400008600846006820F4802008600846406877
:1009500020F4FE0048604FF41F008860FFF7DAFFC4
:100960004FF000600449086010BD00000010024014
:100970000000FFF8FFFFF6FE08ED00E012480068F7
:1009800000F00100F0B14FF6FE700F4908600F480B
:10099000008820B10D480088401E0C4908800C4892
:1009A000008820B10A480088401E0949088009488B
:1009B0000088401C07490880084600880A2801DB97
:1009C0000020088070470000100400400000002054
:1009D000040000200200002010B5402000F052FA70
:1009E0004FF480500A494861C02000F021FA0024E9
:1009F00004E0002000F01CFA601CC4B2102CF8DBEC
:100A00004FF4805002490861012000F003F810BD46
:100A10000010014008B50BE00021009104E0BDF892
:100A20000010491C89B20091BDF800105029F6DB76
:100A3000011EA0F1010290B2EED108BD2DE9F05FD8
:100A400006460C461746012F00DD0027022E01DD69
:100A5000BDE8F09F302C05DB392C03DCA4F130001D
:100A6000C5B214E0412C05DB462C03DCA4F13700B1
:100A7000C5B20CE0612C05DB662C03DCA4F1570049
:100A8000C5B204E02D2C01D1102500E01125164837
:100A9000405D40EAC71000F0FF0870064FEA106999
:100AA00008F00F0A4FEA181B402000F0EBF94FF452
:100AB00080500E4948610A20FFF7ACFF49F0C000A2
:100AC00000F0B6F9504600F0B3F9584600F0B0F91E
:100AD0000A20FFF79FFF4FF48050044908610A2065
:100AE000FFF798FF00BFB3E760180008001001404F
:100AF0002DE9F04105460C466806060E04F00F0786
:100B00004FEA1418402000F0BDF94FF480500D4911
:100B100048610A20FFF77EFF46F0C00000F088F928
:100B2000384600F085F9404600F082F90A20FFF7C8
:100B300071FF4FF48050034908610A20FFF76AFFF4
:100B4000BDE8F081001001402DE9F0410446B4F504
:100B50007A7F01DB40F2E734642094FBF0F0C6B208
:100B60000A2094FBF0F00A2190FBF1F201FB120045
:100B7000C5B20A2094FBF0F100FB1140C7B27EB968
:100B800000210846FFF7B4FF25B900210120FFF737
:100B9000AFFF0FE00B48415D0120FFF7A9FF09E01F
:100BA0000848815D0020FFF7A3FF0648415D012052
:100BB000FFF79EFF0348C15D0220FFF799FFBDE8E4
:100BC000F08100006018000813B59DF8000028B9F6
:100BD000002220211046FFF731FF0CE09DF80000B5
:100BE0003030C0B28DF800009DF801209DF8001053
:100BF0000020FFF723FF9DF8020028B900222021E2
:100C00000120FFF71BFF0CE09DF802003030C0B25E
:100C10008DF802009DF803209DF802100120FFF7D7
:100C20000DFF9DF8040028B9002220210220FFF7C3
:100C300005FF0CE09DF804003030C0B28DF80400D0
:100C40009DF805209DF804100220FFF7F7FE1CBD5B
:100C50002DE9F04104460D46002600273DB1012054
:100C6000A0401449098808431249088006E0012081
:100C7000A0401049098881430E480180042C05DA00
:100C800006260C48007800F00F070CE0082C05DA67
:100C9000082608480078C0F3031704E00A26054830
:100CA0000088C0F303273946304600F00BF9BDE851
:100CB000F0810000D800002070B54FF480505A49F0
:100CC00048610220FFF7A6FE422000F0B1F80220A2
:100CD000FFF7A0FE00BF0822D101534800F029FA17
:100CE00000BF0520FFF796FEFFF7F2FD0546FFF770
:100CF000EFFD04464FF480504B4908610A20FFF78E
:100D000089FE00BF43224FF48061474800F011FA8A
:100D100000BF05F0040038B14448007820F001001D
:100D2000401C4249087005E04048007820F001006E
:100D30003E49087004F0400038B13C48007820F08B
:100D40000200801C3949087005E03848007820F01E
:100D500002003649087005F0400038B13348007889
:100D600020F00400001D3149087005E02F4800788C
:100D700020F004002D49087004F0040038B12B481D
:100D8000007820F0080008302849087005E027485E
:100D9000007820F008002549087004F0080038B1F8
:100DA0002248007820F0100010302049087005E03B
:100DB0001E48007820F010001C49087005F008005B
:100DC00038B11A48007820F0200020301749087008
:100DD00005E01648007820F020001449087005F05E
:100DE000800038B11148007820F0400040300F49B1
:100DF000087005E00D48007820F040000B490870AD
:100E000004F0800038B10948007820F0800080307C
:100E10000649087005E00548007820F08000034985
:100E200008700248007870BD0010014006000020E4
:100E300070B5044600251FE04FF40060104948617A
:100E40000120FFF7E7FD04F0010020B14FF48060BE
:100E50000B49086103E04FF4806009494861641060
:100E60000120FFF7D7FD4FF400600549086102201B
:100E7000FFF7D0FD681CC5B2082DDDDB70BD00009A
:100E80000010014010B504464FF4805007494861F6
:100E90000220FFF7BFFD2046FFF7CAFF4FF4805046
:100EA000024908610220FFF7B5FD10BD00100140A6
:100EB00010B50446072C00DD072444F08800FFF736
:100EC000E1FF10BD70B504460D464420FFF7DAFF80
:100ED0004FF480500949486104F00F0141F0C0000F
:100EE000FFF7A6FF2846FFF7A3FF4FF48050034902
:100EF00008610120FFF78EFD70BD00000010014069
:100F000005480068C0F3401020B10348001D006888
:100F1000024908707047000000380140D6000020E8
:100F2000642900DD6421042823D1174A1288642330
:100F300092FBF3F24A43154B1A60134A128864235A
:100F400092FBF3F24A43114B343B9A630E4A1288E8
:100F5000642392FBF3F24A430C4B343BDA630A4AB4
:100F60001288642392FBF3F24A43084B343B1A6421
:100F700008E0054A1288642392FBF3F34B43034ACB
:100F800042F8203070470000D4000020342C01408B
:100F900030B504460D46042C14D12A4600210C48D5
:100FA00000F0ABFB2A460121094800F0A6FB2A46C7
:100FB0000221074800F0A1FB2A460321044800F063
:100FC0009CFB04E02A462146014800F096FB30BD18
:100FD000002C014002E008C8121F08C1002AFAD103
:100FE00070477047002001E001C1121F002AFBD1A9
:100FF0007047426822F01F020A43426070470000B7
:101000004268024B1A400A4342607047FFFD3FFFAF
:10101000416282627047000010B5D1E900231A4393
:1010200043680B4C23401A434260D1E902231A4320
:101030000B691A438368074C23401A438260C26AD3
:1010400022F470038A8A521E43EA0252C26210BD21
:10105000FFFEF0FFFDF7F1FF08B512208DF800004C
:1010600001208DF8030000208DF801008DF80200AA
:10107000684600F015F908BD70B5092910DDC4688F
:10108000A1F10A0505EB45060725B540AC43A1F1E2
:101090000A0505EB450502FA05F52C43C4600BE093
:1010A000046901EB41060725B540AC4301EB41055E
:1010B00002FA05F52C430461072B0EDA446B5D1E22
:1010C00005EB85061F25B540AC435D1E05EB850588
:1010D00001FA05F52C43446320E00D2B0EDA046B76
:1010E000DD1F05EB85061F25B540AC43DD1F05EB75
:1010F000850501FA05F52C4304630FE0C46AA3F1EA
:101100000D0505EB85061F25B540AC43A3F10D0584
:1011100005EB850501FA05F52C43C46270BD00217D
:1011200001600121416100210161C1608160416074
:101130007047F0B503460D46002100200024EEB2B2
:1011400046B3196800BF22E0012686402E40EEB16A
:10115000840002F0400696B90F26A640B14302F083
:101160000F06A6403143182A03D1012686405E614E
:101170000CE0082A0AD1012686401E6106E00F26EF
:10118000A640B14302F00F06A6403143401C082898
:10119000DAD3196005F47F4676B35968002028E059
:1011A00000F10806012707FA06F62E4006B3840070
:1011B00002F04006AEB90F26A640B14302F00F067A
:1011C000A6403143182A04D100F10806B7405F61F8
:1011D0000EE0082A0CD100F108060127B7401F6174
:1011E00006E00F26A640B14302F00F06A6403143A9
:1011F000401C0828D4D35960F0BD000029B1064A2C
:1012000052680243044B5A6004E0034A5268824326
:10121000014B5A6070470000000001401CB5FFF709
:1012200071F81E20FFF7A6F8FFF7AEF9FEF7BAFF38
:101230000120FEF791FF4FF47A7000F007FB0020C9
:10124000FEF78AFF4FF4E130FFF7DAF9FFF764F8B1
:10125000082011490870012048700820887001207A
:10126000C870082008710120487108460168009183
:101270008088ADF80400DDE90001FFF7A5FC09E076
:101280000648008830B9142004490880FFF714FD8F
:10129000FFF706FAF4E70000F40000200400002045
:1012A00070B5002100230F22C47804B3154C2468C4
:1012B00004F4E064C4F5E064210AC1F10403CA4007
:1012C000447804FA03F184781440214309010E4C58
:1012D0000678A155047804F01F050124AC40057878
:1012E0006D11AD0005F1E025C5F8004109E0047875
:1012F00004F01F050124AC40044D0678761145F832
:10130000264070BD0CED00E000E400E080E100E06C
:101310000349496821F440410143014A5160704743
:101320000010024030B500240023002100222D4D82
:101330006D68C5F3810525B1012D05D0022D22D19F
:1013400005E0294D056021E0274D05601EE0254D93
:101350006D6805F44033234D6D68C5F38345AC1CBF
:101360001BB9224D654305600CE0B3F5803F03D106
:101370001D4D6543056005E0B3F5403F02D11B4DAF
:101380006543056002E0184D056000BF00BF154DC4
:101390006D6805F0F0010909154D6A5C0568D540D6
:1013A0004560104D6D6805F4E061090A104D6A5CF6
:1013B0004568D54085600B4D6D6805F46051C90ADC
:1013C0000B4D6A5C4568D540C560064D6D6805F4F7
:1013D0004041890B074D6A5CC568B5FBF2F50561B4
:1013E00030BD00000010024000127A0000093D00EC
:1013F000E0000020F00000200CB5002001900090DB
:101400003348006840F480303149086000BF3048FC
:10141000006800F4003000900198401C0190009892
:1014200018B90198B0F5A04FF1D12948006800F42F
:10143000003010B10120009001E0002000900098E1
:10144000012843D12348006840F01000214908607A
:101450000846006820F0070008600846006840F071
:10146000020008601A484068194948600846406808
:1014700048600846406840F480604860084640681C
:1014800020F47C1048600846406840F4E81048604A
:101490000846006840F08070086000BF0C48006893
:1014A00000F000700028F9D00948406820F00300DF
:1014B000074948600846406840F00200486000BFA5
:1014C0000348406800F00C000828F9D10CBD00006A
:1014D0000010024000200240026822F070024B8897
:1014E0001A430260026822F440720B881A430260B9
:1014F0008A88C262CA888262054A904202D0054A3E
:10150000904201D10A8902630122426170470000C2
:10151000002C01400034014030B5002301248C40F0
:10152000A3B2046ADD43ADB22C400462046A02FA3D
:1015300001F5ADB22C43046230BD000030B50A465F
:1015400000211178036A8D000124AC40A34303629B
:101550004C1000F1180353F82430CC07250F7324E6
:10156000AC40A3435488CD072D0FAC4023434D100E
:1015700000F1180444F82530036A8D000324AC40C0
:10158000A343548995882C438D00AC4023430362C8
:10159000124B984202D0124B984218D1036A8D0028
:1015A0000C24AC40A3439489D5882C438D00AC40D7
:1015B0002343036243684D004FF44074AC40A3439F
:1015C000D489158A2C434D00AC40234343601489D1
:1015D00000F1340343F8214030BD0000002C0140ED
:1015E000003401403B4988420BD13B49C96841F472
:1015F0000061394AD1601146C96821F40061D160A7
:1016000067E0B0F1804F0BD13349096941F0010126
:10161000314A11611146096921F00101116158E057
:101620002E4988420BD12C49096941F002012A4A0E
:1016300011611146096921F00201116149E028494F
:1016400088420BD12449096941F00401224A116101
:101650001146096921F0040111613AE021498842EB
:101660000BD11D49096941F008011B4A116111465E
:10167000096921F0080111612BE01B4988420BD157
:101680001549096941F01001134A116111460969B0
:1016900021F0100111611CE0144988420BD10E4960
:1016A000096941F020010C4A11611146096921F0D4
:1016B000200111610DE00E4988420AD10649C9682E
:1016C00041F40051044AD1601146C96821F4005127
:1016D000D1607047002C014000100240000400401F
:1016E00000080040000C00400010004000140040C2
:1016F0000034014081624261704730B500238D00A3
:101700000124AC40A3B2046ADD43ADB22C400462B4
:10171000046A8D0002FA05F5ADB22C43046230BDB7
:10172000254988420BD12549C96841F48041234AA3
:10173000D1601146C96821F48041D1603AE0204966
:1017400088420BD11D49096941F400311B4A1161DE
:101750001146096921F4003111612BE019498842D1
:101760000BD11649096941F48021144A11611146CF
:10177000096921F4802111611CE0134988420BD1D1
:101780000E49096941F400210C4A116111460969A9
:1017900021F4002111610DE00C4988420AD107496A
:1017A000096941F48011054A11611146096921F462
:1017B00080111161704700000038014000100240A4
:1017C0000044004000480040004C004000500040F1
:1017D0002DE9F04186B004460D46E06820F48050C3
:1017E00069680843E060E06820F4C060E968084385
:1017F000E060E06820F00C0029690843E06020699F
:1018000020F44050A96808432061606920F44070CA
:1018100069690843606101A8FFF784FD0A488442B2
:1018200001D1049E00E0039E286806EB5000296861
:10183000B0FBF1F707F00F0827F00F0040EA0800AF
:10184000A06006B0BDE8F08100380140034908807F
:1018500000BF024909880029FBD170470000002021
:101860003F065B4F666D7D077F6F777C395E7971D0
:10187000400000009418000800000020F400000060
:10188000D40F000888190008F40000201C04000090
:10189000E40F000800000000000000000000070046
:1018A0000E0016001D0024002B0032003A004100FB
:1018B00048004F0056005E0065006C0073007A001F
:1018C00082008900900097009E00A600AD00B40041
:1018D000BB00C200CA00D100D800DF00E600EE0065
:1018E000F500FC0003010A01120119012001270182
:1018F0002E0136013D0144014B0152015A016101A3
:1019000068016F0176017E0185018C0193019A01C6
:10191000A201A901B001B701BE01C601CD01D401E8
:10192000DB01E201EA01F101F801FF0106020E020A
:1019300015021C0223022A02320239024002470227
:101940004E0256025D0264026B0272027A0281024A
:1019500088028F0296029E02A502AC02B302BA026E
:10196000C202C902D0020000000000000000000016
:101970000000000000000000010203040102030453
:0819800006070809020406082D
:04000005080000ED02
:00000001FF
